{
  "_format": "hh-sol-artifact-1",
  "contractName": "GameCard",
  "sourceName": "contracts/GameCard.sol",
  "abi": [
    {
      "inputs": [
        {
          "internalType": "address",
          "name": "nftBoxAddress",
          "type": "address"
        },
        {
          "internalType": "address",
          "name": "characterAddress",
          "type": "address"
        },
        {
          "internalType": "address",
          "name": "vrfCoordinatorV2",
          "type": "address"
        },
        {
          "internalType": "uint64",
          "name": "subscriptionId",
          "type": "uint64"
        },
        {
          "internalType": "bytes32",
          "name": "gasLane",
          "type": "bytes32"
        },
        {
          "internalType": "uint32",
          "name": "callbackGasLimit",
          "type": "uint32"
        }
      ],
      "stateMutability": "nonpayable",
      "type": "constructor"
    },
    {
      "inputs": [],
      "name": "GameCard__AlreadyOpponentFound",
      "type": "error"
    },
    {
      "inputs": [],
      "name": "GameCard__NotOpponent",
      "type": "error"
    },
    {
      "inputs": [],
      "name": "GameCard__NotOwner",
      "type": "error"
    },
    {
      "inputs": [],
      "name": "GameCard__PlayerNotAllowed",
      "type": "error"
    },
    {
      "inputs": [],
      "name": "GameCard__PlayerNotFound",
      "type": "error"
    },
    {
      "inputs": [
        {
          "internalType": "address",
          "name": "have",
          "type": "address"
        },
        {
          "internalType": "address",
          "name": "want",
          "type": "address"
        }
      ],
      "name": "OnlyCoordinatorCanFulfill",
      "type": "error"
    },
    {
      "anonymous": false,
      "inputs": [
        {
          "indexed": false,
          "internalType": "address",
          "name": "caller",
          "type": "address"
        },
        {
          "indexed": false,
          "internalType": "uint256[3]",
          "name": "tokenId",
          "type": "uint256[3]"
        },
        {
          "indexed": false,
          "internalType": "address",
          "name": "opponent",
          "type": "address"
        },
        {
          "indexed": false,
          "internalType": "enum GameCard.PlayerStatus",
          "name": "status",
          "type": "uint8"
        }
      ],
      "name": "AddedToList",
      "type": "event"
    },
    {
      "anonymous": false,
      "inputs": [
        {
          "indexed": false,
          "internalType": "address",
          "name": "winner",
          "type": "address"
        },
        {
          "indexed": false,
          "internalType": "address",
          "name": "looser",
          "type": "address"
        },
        {
          "indexed": false,
          "internalType": "bool",
          "name": "draw",
          "type": "bool"
        }
      ],
      "name": "Match",
      "type": "event"
    },
    {
      "anonymous": false,
      "inputs": [
        {
          "indexed": false,
          "internalType": "address",
          "name": "player1",
          "type": "address"
        },
        {
          "indexed": false,
          "internalType": "address",
          "name": "player2",
          "type": "address"
        },
        {
          "indexed": false,
          "internalType": "uint256",
          "name": "requestId",
          "type": "uint256"
        }
      ],
      "name": "MatchBeginsSoon",
      "type": "event"
    },
    {
      "anonymous": false,
      "inputs": [
        {
          "indexed": false,
          "internalType": "address",
          "name": "player1",
          "type": "address"
        },
        {
          "indexed": false,
          "internalType": "address",
          "name": "player2",
          "type": "address"
        }
      ],
      "name": "MatchFound",
      "type": "event"
    },
    {
      "inputs": [
        {
          "internalType": "uint256",
          "name": "",
          "type": "uint256"
        }
      ],
      "name": "currentPlayers",
      "outputs": [
        {
          "internalType": "address",
          "name": "",
          "type": "address"
        }
      ],
      "stateMutability": "view",
      "type": "function"
    },
    {
      "inputs": [
        {
          "internalType": "uint256",
          "name": "tokenId1",
          "type": "uint256"
        },
        {
          "internalType": "uint256",
          "name": "tokenId2",
          "type": "uint256"
        },
        {
          "internalType": "uint256",
          "name": "tokenId3",
          "type": "uint256"
        }
      ],
      "name": "enterGame",
      "outputs": [],
      "stateMutability": "nonpayable",
      "type": "function"
    },
    {
      "inputs": [
        {
          "internalType": "uint256",
          "name": "",
          "type": "uint256"
        }
      ],
      "name": "finshedGames",
      "outputs": [
        {
          "internalType": "address",
          "name": "winner",
          "type": "address"
        },
        {
          "internalType": "address",
          "name": "loser",
          "type": "address"
        },
        {
          "internalType": "bool",
          "name": "draw",
          "type": "bool"
        }
      ],
      "stateMutability": "view",
      "type": "function"
    },
    {
      "inputs": [],
      "name": "getCurrentPlayers",
      "outputs": [
        {
          "internalType": "uint256",
          "name": "",
          "type": "uint256"
        }
      ],
      "stateMutability": "view",
      "type": "function"
    },
    {
      "inputs": [
        {
          "internalType": "address",
          "name": "user",
          "type": "address"
        },
        {
          "internalType": "uint256",
          "name": "index",
          "type": "uint256"
        }
      ],
      "name": "getTokenIds",
      "outputs": [
        {
          "internalType": "uint256",
          "name": "",
          "type": "uint256"
        }
      ],
      "stateMutability": "view",
      "type": "function"
    },
    {
      "inputs": [],
      "name": "i_contractCharacter",
      "outputs": [
        {
          "internalType": "contract Characters",
          "name": "",
          "type": "address"
        }
      ],
      "stateMutability": "view",
      "type": "function"
    },
    {
      "inputs": [],
      "name": "i_contractNftBox",
      "outputs": [
        {
          "internalType": "contract NftBox",
          "name": "",
          "type": "address"
        }
      ],
      "stateMutability": "view",
      "type": "function"
    },
    {
      "inputs": [
        {
          "internalType": "uint256",
          "name": "requestId",
          "type": "uint256"
        },
        {
          "internalType": "uint256[]",
          "name": "randomWords",
          "type": "uint256[]"
        }
      ],
      "name": "rawFulfillRandomWords",
      "outputs": [],
      "stateMutability": "nonpayable",
      "type": "function"
    },
    {
      "inputs": [
        {
          "internalType": "address",
          "name": "",
          "type": "address"
        }
      ],
      "name": "s_addressInfo",
      "outputs": [
        {
          "internalType": "uint256",
          "name": "game",
          "type": "uint256"
        },
        {
          "internalType": "address",
          "name": "player",
          "type": "address"
        },
        {
          "internalType": "address",
          "name": "opponent",
          "type": "address"
        },
        {
          "internalType": "enum GameCard.PlayerStatus",
          "name": "status",
          "type": "uint8"
        }
      ],
      "stateMutability": "view",
      "type": "function"
    },
    {
      "inputs": [],
      "name": "s_gameCounter",
      "outputs": [
        {
          "internalType": "uint256",
          "name": "",
          "type": "uint256"
        }
      ],
      "stateMutability": "view",
      "type": "function"
    },
    {
      "inputs": [
        {
          "internalType": "uint256",
          "name": "",
          "type": "uint256"
        },
        {
          "internalType": "uint256",
          "name": "",
          "type": "uint256"
        }
      ],
      "name": "s_requestIdToPlayers",
      "outputs": [
        {
          "internalType": "address",
          "name": "",
          "type": "address"
        }
      ],
      "stateMutability": "view",
      "type": "function"
    }
  ],
  "bytecode": "0x6101606040523480156200001257600080fd5b5060405162004fea38038062004fea833981810160405281019062000038919062000249565b838073ffffffffffffffffffffffffffffffffffffffff1660808173ffffffffffffffffffffffffffffffffffffffff1660601b815250505085600360006101000a81548173ffffffffffffffffffffffffffffffffffffffff021916908373ffffffffffffffffffffffffffffffffffffffff1602179055508573ffffffffffffffffffffffffffffffffffffffff166101208173ffffffffffffffffffffffffffffffffffffffff1660601b815250508473ffffffffffffffffffffffffffffffffffffffff166101408173ffffffffffffffffffffffffffffffffffffffff1660601b8152505084600460006101000a81548173ffffffffffffffffffffffffffffffffffffffff021916908373ffffffffffffffffffffffffffffffffffffffff1602179055508373ffffffffffffffffffffffffffffffffffffffff1660a08173ffffffffffffffffffffffffffffffffffffffff1660601b815250508267ffffffffffffffff1660c08167ffffffffffffffff1660c01b815250508160e081815250508063ffffffff166101008163ffffffff1660e01b815250506000600581905550505050505050620003b4565b600081519050620001fe816200034c565b92915050565b600081519050620002158162000366565b92915050565b6000815190506200022c8162000380565b92915050565b60008151905062000243816200039a565b92915050565b60008060008060008060c0878903121562000269576200026862000347565b5b60006200027989828a01620001ed565b96505060206200028c89828a01620001ed565b95505060406200029f89828a01620001ed565b9450506060620002b289828a0162000232565b9350506080620002c589828a0162000204565b92505060a0620002d889828a016200021b565b9150509295509295509295565b6000620002f28262000303565b9050919050565b6000819050919050565b600073ffffffffffffffffffffffffffffffffffffffff82169050919050565b600063ffffffff82169050919050565b600067ffffffffffffffff82169050919050565b600080fd5b6200035781620002e5565b81146200036357600080fd5b50565b6200037181620002f9565b81146200037d57600080fd5b50565b6200038b8162000323565b81146200039757600080fd5b50565b620003a58162000333565b8114620003b157600080fd5b50565b60805160601c60a05160601c60c05160c01c60e0516101005160e01c6101205160601c6101405160601c614bc5620004256000396000505060006104d601526000612d0f01526000612ccb01526000612cec01526000612c8f01526000818161026801526102bc0152614bc56000f3fe608060405234801561001057600080fd5b50600436106100a95760003560e01c8063533d765311610071578063533d765314610142578063570d2f2014610175578063703afc87146101a5578063e783c827146101d5578063e81fb49514610205578063eabfb83914610221576100a9565b806302cac05c146100ae578063123cb832146100cc5780631fe543e3146100ea5780632a3031a2146101065780632c0d555814610124575b600080fd5b6100b6610253565b6040516100c39190614674565b60405180910390f35b6100d4610260565b6040516100e19190614674565b60405180910390f35b61010460048036038101906100ff9190614226565b610266565b005b61010e610326565b60405161011b919061463e565b60405180910390f35b61012c61034c565b6040516101399190614659565b60405180910390f35b61015c600480360381019061015791906140af565b610372565b60405161016c949392919061468f565b60405180910390f35b61018f600480360381019061018a9190614109565b6103ef565b60405161019c9190614674565b60405180910390f35b6101bf60048036038101906101ba91906141cc565b61044e565b6040516101cc91906144f4565b60405180910390f35b6101ef60048036038101906101ea9190614305565b61048d565b6040516101fc91906144f4565b60405180910390f35b61021f600480360381019061021a9190614345565b6104d2565b005b61023b600480360381019061023691906141cc565b6114c6565b60405161024a93929190614538565b60405180910390f35b6000600280549050905090565b60055481565b7f000000000000000000000000000000000000000000000000000000000000000073ffffffffffffffffffffffffffffffffffffffff163373ffffffffffffffffffffffffffffffffffffffff161461031857337f00000000000000000000000000000000000000000000000000000000000000006040517f1cf993f400000000000000000000000000000000000000000000000000000000815260040161030f92919061450f565b60405180910390fd5b610322828261153d565b5050565b600460009054906101000a900473ffffffffffffffffffffffffffffffffffffffff1681565b600360009054906101000a900473ffffffffffffffffffffffffffffffffffffffff1681565b60006020528060005260406000206000915090508060000154908060010160009054906101000a900473ffffffffffffffffffffffffffffffffffffffff16908060050160009054906101000a900473ffffffffffffffffffffffffffffffffffffffff16908060050160149054906101000a900460ff16905084565b60008060008473ffffffffffffffffffffffffffffffffffffffff1673ffffffffffffffffffffffffffffffffffffffff168152602001908152602001600020600201826003811061044457610443614aae565b5b0154905092915050565b6002818154811061045e57600080fd5b906000526020600020016000915054906101000a900473ffffffffffffffffffffffffffffffffffffffff1681565b600160205281600052604060002081600281106104a957600080fd5b016000915091509054906101000a900473ffffffffffffffffffffffffffffffffffffffff1681565b60007f000000000000000000000000000000000000000000000000000000000000000090506000600360009054906101000a900473ffffffffffffffffffffffffffffffffffffffff1673ffffffffffffffffffffffffffffffffffffffff1663bdc60bf9866040518263ffffffff1660e01b81526004016105549190614674565b60006040518083038186803b15801561056c57600080fd5b505afa158015610580573d6000803e3d6000fd5b505050506040513d6000823e3d601f19601f820116820180604052508101906105a99190614282565b50925050506000600360009054906101000a900473ffffffffffffffffffffffffffffffffffffffff1673ffffffffffffffffffffffffffffffffffffffff1663bdc60bf9866040518263ffffffff1660e01b815260040161060b9190614674565b60006040518083038186803b15801561062357600080fd5b505afa158015610637573d6000803e3d6000fd5b505050506040513d6000823e3d601f19601f820116820180604052508101906106609190614282565b50925050506000600360009054906101000a900473ffffffffffffffffffffffffffffffffffffffff1673ffffffffffffffffffffffffffffffffffffffff1663bdc60bf9866040518263ffffffff1660e01b81526004016106c29190614674565b60006040518083038186803b1580156106da57600080fd5b505afa1580156106ee573d6000803e3d6000fd5b505050506040513d6000823e3d601f19601f820116820180604052508101906107179190614282565b50925050503373ffffffffffffffffffffffffffffffffffffffff168473ffffffffffffffffffffffffffffffffffffffff16636352211e896040518263ffffffff1660e01b815260040161076c9190614674565b60206040518083038186803b15801561078457600080fd5b505afa158015610798573d6000803e3d6000fd5b505050506040513d601f19601f820116820180604052508101906107bc91906140dc565b73ffffffffffffffffffffffffffffffffffffffff161415806107dd575082155b806107e757508587145b806107f157508486145b806107fb57508685145b15610832576040517f85696c6f00000000000000000000000000000000000000000000000000000000815260040160405180910390fd5b3373ffffffffffffffffffffffffffffffffffffffff168473ffffffffffffffffffffffffffffffffffffffff16636352211e886040518263ffffffff1660e01b81526004016108829190614674565b60206040518083038186803b15801561089a57600080fd5b505afa1580156108ae573d6000803e3d6000fd5b505050506040513d601f19601f820116820180604052508101906108d291906140dc565b73ffffffffffffffffffffffffffffffffffffffff161415806108f3575081155b1561092a576040517f85696c6f00000000000000000000000000000000000000000000000000000000815260040160405180910390fd5b3373ffffffffffffffffffffffffffffffffffffffff168473ffffffffffffffffffffffffffffffffffffffff16636352211e876040518263ffffffff1660e01b815260040161097a9190614674565b60206040518083038186803b15801561099257600080fd5b505afa1580156109a6573d6000803e3d6000fd5b505050506040513d601f19601f820116820180604052508101906109ca91906140dc565b73ffffffffffffffffffffffffffffffffffffffff161415806109eb575080155b15610a22576040517f85696c6f00000000000000000000000000000000000000000000000000000000815260040160405180910390fd5b60016003811115610a3657610a35614a50565b5b6000803373ffffffffffffffffffffffffffffffffffffffff1673ffffffffffffffffffffffffffffffffffffffff16815260200190815260200160002060050160149054906101000a900460ff166003811115610a9757610a96614a50565b5b1415610acf576040517f4173115d00000000000000000000000000000000000000000000000000000000815260040160405180910390fd5b60006002805490501415610d59576002339080600181540180825580915050600190039060005260206000200160009091909190916101000a81548173ffffffffffffffffffffffffffffffffffffffff021916908373ffffffffffffffffffffffffffffffffffffffff1602179055506040518060a0016040528060055481526020013373ffffffffffffffffffffffffffffffffffffffff16815260200160405180606001604052808a8152602001898152602001888152508152602001600073ffffffffffffffffffffffffffffffffffffffff16815260200160006003811115610bc057610bbf614a50565b5b8152506000803373ffffffffffffffffffffffffffffffffffffffff1673ffffffffffffffffffffffffffffffffffffffff1681526020019081526020016000206000820151816000015560208201518160010160006101000a81548173ffffffffffffffffffffffffffffffffffffffff021916908373ffffffffffffffffffffffffffffffffffffffff160217905550604082015181600201906003610c69929190613daf565b5060608201518160050160006101000a81548173ffffffffffffffffffffffffffffffffffffffff021916908373ffffffffffffffffffffffffffffffffffffffff16021790555060808201518160050160146101000a81548160ff02191690836003811115610cdc57610cdb614a50565b5b02179055509050507fdbef1b3fbd727e0f6d68a939317676615e5672a68159020edbd96a09f055a8463360405180606001604052808a815260200189815260200188815250600080604051610d3494939291906145a6565b60405180910390a160056000815480929190610d4f90614978565b91905055506114bd565b60006002600081548110610d7057610d6f614aae565b5b9060005260206000200160009054906101000a900473ffffffffffffffffffffffffffffffffffffffff1690503373ffffffffffffffffffffffffffffffffffffffff168173ffffffffffffffffffffffffffffffffffffffff161415610e03576040517f6e04f53700000000000000000000000000000000000000000000000000000000815260040160405180910390fd5b60008060008373ffffffffffffffffffffffffffffffffffffffff1673ffffffffffffffffffffffffffffffffffffffff1681526020019081526020016000206040518060a0016040529081600082015481526020016001820160009054906101000a900473ffffffffffffffffffffffffffffffffffffffff1673ffffffffffffffffffffffffffffffffffffffff1673ffffffffffffffffffffffffffffffffffffffff16815260200160028201600380602002604051908101604052809291908260038015610eea576020028201915b815481526020019060010190808311610ed6575b505050505081526020016005820160009054906101000a900473ffffffffffffffffffffffffffffffffffffffff1673ffffffffffffffffffffffffffffffffffffffff1673ffffffffffffffffffffffffffffffffffffffff1681526020016005820160149054906101000a900460ff166003811115610f6e57610f6d614a50565b5b6003811115610f8057610f7f614a50565b5b8152505090506040518060a00160405280826000015181526020018373ffffffffffffffffffffffffffffffffffffffff168152602001826040015181526020013373ffffffffffffffffffffffffffffffffffffffff16815260200160016003811115610ff157610ff0614a50565b5b8152506000808473ffffffffffffffffffffffffffffffffffffffff1673ffffffffffffffffffffffffffffffffffffffff1681526020019081526020016000206000820151816000015560208201518160010160006101000a81548173ffffffffffffffffffffffffffffffffffffffff021916908373ffffffffffffffffffffffffffffffffffffffff16021790555060408201518160020190600361109a929190613daf565b5060608201518160050160006101000a81548173ffffffffffffffffffffffffffffffffffffffff021916908373ffffffffffffffffffffffffffffffffffffffff16021790555060808201518160050160146101000a81548160ff0219169083600381111561110d5761110c614a50565b5b02179055509050506040518060a00160405280826000015181526020013373ffffffffffffffffffffffffffffffffffffffff16815260200160405180606001604052808c81526020018b81526020018a81525081526020018373ffffffffffffffffffffffffffffffffffffffff1681526020016001600381111561119657611195614a50565b5b8152506000803373ffffffffffffffffffffffffffffffffffffffff1673ffffffffffffffffffffffffffffffffffffffff1681526020019081526020016000206000820151816000015560208201518160010160006101000a81548173ffffffffffffffffffffffffffffffffffffffff021916908373ffffffffffffffffffffffffffffffffffffffff16021790555060408201518160020190600361123f929190613daf565b5060608201518160050160006101000a81548173ffffffffffffffffffffffffffffffffffffffff021916908373ffffffffffffffffffffffffffffffffffffffff16021790555060808201518160050160146101000a81548160ff021916908360038111156112b2576112b1614a50565b5b021790555090505060005b600280549050811015611475578273ffffffffffffffffffffffffffffffffffffffff16600282815481106112f5576112f4614aae565b5b9060005260206000200160009054906101000a900473ffffffffffffffffffffffffffffffffffffffff1673ffffffffffffffffffffffffffffffffffffffff1614156114625760008190505b600160028054905061135491906147ef565b81101561141557600260018261136a9190614799565b8154811061137b5761137a614aae565b5b9060005260206000200160009054906101000a900473ffffffffffffffffffffffffffffffffffffffff16600282815481106113ba576113b9614aae565b5b9060005260206000200160006101000a81548173ffffffffffffffffffffffffffffffffffffffff021916908373ffffffffffffffffffffffffffffffffffffffff160217905550808061140d90614978565b915050611342565b50600280548061142857611427614a7f565b5b6001900381819060005260206000200160006101000a81549073ffffffffffffffffffffffffffffffffffffffff02191690559055611475565b808061146d90614978565b9150506112bd565b507f3182b38841de065eded850f9e9fa30850bb37c3a57df9bef3841138a94b7295633836040516114a792919061450f565b60405180910390a16114b93383612279565b5050505b50505050505050565b60066020528060005260406000206000915090508060000160009054906101000a900473ffffffffffffffffffffffffffffffffffffffff16908060010160009054906101000a900473ffffffffffffffffffffffffffffffffffffffff16908060010160149054906101000a900460ff16905083565b6000600160008481526020019081526020016000206002806020026040519081016040528092919082600280156115bf576020028201915b8160009054906101000a900473ffffffffffffffffffffffffffffffffffffffff1673ffffffffffffffffffffffffffffffffffffffff1681526020019060010190808311611575575b5050505050905060006115e9826000600281106115df576115de614aae565b5b6020020151612e78565b9050600061160e8360016002811061160457611603614aae565b5b6020020151612e78565b90506040518060a001604052806000808660006002811061163257611631614aae565b5b602002015173ffffffffffffffffffffffffffffffffffffffff1673ffffffffffffffffffffffffffffffffffffffff1681526020019081526020016000206000015481526020018460006002811061168e5761168d614aae565b5b602002015173ffffffffffffffffffffffffffffffffffffffff168152602001600080866000600281106116c5576116c4614aae565b5b602002015173ffffffffffffffffffffffffffffffffffffffff1673ffffffffffffffffffffffffffffffffffffffff16815260200190815260200160002060020160038060200260405190810160405280929190826003801561173e576020028201915b81548152602001906001019080831161172a575b505050505081526020018460016002811061175c5761175b614aae565b5b602002015173ffffffffffffffffffffffffffffffffffffffff16815260200160038081111561178f5761178e614a50565b5b815250600080856000600281106117a9576117a8614aae565b5b602002015173ffffffffffffffffffffffffffffffffffffffff1673ffffffffffffffffffffffffffffffffffffffff1681526020019081526020016000206000820151816000015560208201518160010160006101000a81548173ffffffffffffffffffffffffffffffffffffffff021916908373ffffffffffffffffffffffffffffffffffffffff160217905550604082015181600201906003611850929190613daf565b5060608201518160050160006101000a81548173ffffffffffffffffffffffffffffffffffffffff021916908373ffffffffffffffffffffffffffffffffffffffff16021790555060808201518160050160146101000a81548160ff021916908360038111156118c3576118c2614a50565b5b02179055509050506040518060a00160405280600080866001600281106118ed576118ec614aae565b5b602002015173ffffffffffffffffffffffffffffffffffffffff1673ffffffffffffffffffffffffffffffffffffffff1681526020019081526020016000206000015481526020018460016002811061194957611948614aae565b5b602002015173ffffffffffffffffffffffffffffffffffffffff168152602001600080866001600281106119805761197f614aae565b5b602002015173ffffffffffffffffffffffffffffffffffffffff1673ffffffffffffffffffffffffffffffffffffffff1681526020019081526020016000206002016003806020026040519081016040528092919082600380156119f9576020028201915b8154815260200190600101908083116119e5575b5050505050815260200184600060028110611a1757611a16614aae565b5b602002015173ffffffffffffffffffffffffffffffffffffffff168152602001600380811115611a4a57611a49614a50565b5b81525060008085600160028110611a6457611a63614aae565b5b602002015173ffffffffffffffffffffffffffffffffffffffff1673ffffffffffffffffffffffffffffffffffffffff1681526020019081526020016000206000820151816000015560208201518160010160006101000a81548173ffffffffffffffffffffffffffffffffffffffff021916908373ffffffffffffffffffffffffffffffffffffffff160217905550604082015181600201906003611b0b929190613daf565b5060608201518160050160006101000a81548173ffffffffffffffffffffffffffffffffffffffff021916908373ffffffffffffffffffffffffffffffffffffffff16021790555060808201518160050160146101000a81548160ff02191690836003811115611b7e57611b7d614a50565b5b02179055509050506000600385600081518110611b9e57611b9d614aae565b5b6020026020010151611bb091906149c1565b90506000806000915060009050838360038110611bd057611bcf614aae565b5b602002015160200151858460038110611bec57611beb614aae565b5b6020020151602001511115611c0e578180611c0690614978565b925050611c7d565b838360038110611c2157611c20614aae565b5b602002015160200151858460038110611c3d57611c3c614aae565b5b6020020151602001511015611c5f578080611c5790614978565b915050611c7c565b8180611c6a90614978565b9250508080611c7890614978565b9150505b5b6000806000600160008c8152602001908152602001600020600060028110611ca857611ca7614aae565b5b0160009054906101000a900473ffffffffffffffffffffffffffffffffffffffff1673ffffffffffffffffffffffffffffffffffffffff1673ffffffffffffffffffffffffffffffffffffffff168152602001908152602001600020600001549050611d12613def565b611d1a613def565b60005b6003811015611e395786811415611d3357611e26565b86811015611da657888160038110611d4e57611d4d614aae565b5b6020020151838260028110611d6657611d65614aae565b5b6020020181905250878160038110611d8157611d80614aae565b5b6020020151828260028110611d9957611d98614aae565b5b6020020181905250611e25565b888160038110611db957611db8614aae565b5b602002015183600183611dcc91906147ef565b60028110611ddd57611ddc614aae565b5b6020020181905250878160038110611df857611df7614aae565b5b602002015182600183611e0b91906147ef565b60028110611e1c57611e1b614aae565b5b60200201819052505b5b8080611e3190614978565b915050611d1d565b508060028b600181518110611e5157611e50614aae565b5b6020026020010151611e6391906149c1565b60028110611e7457611e73614aae565b5b6020020151604001518260028c600181518110611e9457611e93614aae565b5b6020026020010151611ea691906149c1565b60028110611eb757611eb6614aae565b5b6020020151604001511115611ed9578480611ed190614978565b955050611f96565b8060028b600181518110611ef057611eef614aae565b5b6020026020010151611f0291906149c1565b60028110611f1357611f12614aae565b5b6020020151604001518260028c600181518110611f3357611f32614aae565b5b6020026020010151611f4591906149c1565b60028110611f5657611f55614aae565b5b6020020151604001511015611f78578380611f7090614978565b945050611f95565b8480611f8390614978565b9550508380611f9190614978565b9450505b5b611f9e613e1c565b611fa6613e1c565b60005b60028110156121135760028d600181518110611fc857611fc7614aae565b5b6020026020010151611fda91906149c1565b811415611fe657612100565b60028d600181518110611ffc57611ffb614aae565b5b602002602001015161200e91906149c1565b8110156120805784816002811061202857612027614aae565b5b60200201518382600181106120405761203f614aae565b5b602002018190525083816002811061205b5761205a614aae565b5b602002015182826001811061207357612072614aae565b5b60200201819052506120ff565b84816002811061209357612092614aae565b5b6020020151836001836120a691906147ef565b600181106120b7576120b6614aae565b5b60200201819052508381600281106120d2576120d1614aae565b5b6020020151826001836120e591906147ef565b600181106120f6576120f5614aae565b5b60200201819052505b5b808061210b90614978565b915050611fa9565b5060008b60006002811061212a57612129614aae565b5b6020020151905060008c60016002811061214757612146614aae565b5b602002015190508260006001811061216257612161614aae565b5b6020020151606001518460006001811061217f5761217e614aae565b5b60200201516060015111156121a157888061219990614978565b995050612212565b826000600181106121b5576121b4614aae565b5b602002015160600151846000600181106121d2576121d1614aae565b5b60200201516060015110156121f45787806121ec90614978565b985050612211565b88806121ff90614978565b995050878061220d90614978565b9850505b5b6000806000612224858d868e8e6131d0565b9250925092507f73755bcca91241f24d43f19dfd87dd6903d53f215f04fe1277e6a4d826ae8e6883838360405161225d93929190614538565b60405180910390a1505050505050505050505050505050505050565b600082828173ffffffffffffffffffffffffffffffffffffffff166000808473ffffffffffffffffffffffffffffffffffffffff1673ffffffffffffffffffffffffffffffffffffffff16815260200190815260200160002060010160009054906101000a900473ffffffffffffffffffffffffffffffffffffffff1673ffffffffffffffffffffffffffffffffffffffff161415806123a657508073ffffffffffffffffffffffffffffffffffffffff166000808373ffffffffffffffffffffffffffffffffffffffff1673ffffffffffffffffffffffffffffffffffffffff16815260200190815260200160002060010160009054906101000a900473ffffffffffffffffffffffffffffffffffffffff1673ffffffffffffffffffffffffffffffffffffffff1614155b156123dd576040517f77be31cd00000000000000000000000000000000000000000000000000000000815260040160405180910390fd5b600160038111156123f1576123f0614a50565b5b6000808473ffffffffffffffffffffffffffffffffffffffff1673ffffffffffffffffffffffffffffffffffffffff16815260200190815260200160002060050160149054906101000a900460ff16600381111561245257612451614a50565b5b1415806124d257506001600381111561246e5761246d614a50565b5b6000808373ffffffffffffffffffffffffffffffffffffffff1673ffffffffffffffffffffffffffffffffffffffff16815260200190815260200160002060050160149054906101000a900460ff1660038111156124cf576124ce614a50565b5b14155b15612509576040517f6e04f53700000000000000000000000000000000000000000000000000000000815260040160405180910390fd5b8073ffffffffffffffffffffffffffffffffffffffff166000808473ffffffffffffffffffffffffffffffffffffffff1673ffffffffffffffffffffffffffffffffffffffff16815260200190815260200160002060050160009054906101000a900473ffffffffffffffffffffffffffffffffffffffff1673ffffffffffffffffffffffffffffffffffffffff1614158061263257508173ffffffffffffffffffffffffffffffffffffffff166000808373ffffffffffffffffffffffffffffffffffffffff1673ffffffffffffffffffffffffffffffffffffffff16815260200190815260200160002060050160009054906101000a900473ffffffffffffffffffffffffffffffffffffffff1673ffffffffffffffffffffffffffffffffffffffff1614155b15612669576040517f1b907f6100000000000000000000000000000000000000000000000000000000815260040160405180910390fd5b60008060008773ffffffffffffffffffffffffffffffffffffffff1673ffffffffffffffffffffffffffffffffffffffff1681526020019081526020016000206040518060a0016040529081600082015481526020016001820160009054906101000a900473ffffffffffffffffffffffffffffffffffffffff1673ffffffffffffffffffffffffffffffffffffffff1673ffffffffffffffffffffffffffffffffffffffff16815260200160028201600380602002604051908101604052809291908260038015612750576020028201915b81548152602001906001019080831161273c575b505050505081526020016005820160009054906101000a900473ffffffffffffffffffffffffffffffffffffffff1673ffffffffffffffffffffffffffffffffffffffff1673ffffffffffffffffffffffffffffffffffffffff1681526020016005820160149054906101000a900460ff1660038111156127d4576127d3614a50565b5b60038111156127e6576127e5614a50565b5b81525050905060008060008773ffffffffffffffffffffffffffffffffffffffff1673ffffffffffffffffffffffffffffffffffffffff1681526020019081526020016000206040518060a0016040529081600082015481526020016001820160009054906101000a900473ffffffffffffffffffffffffffffffffffffffff1673ffffffffffffffffffffffffffffffffffffffff1673ffffffffffffffffffffffffffffffffffffffff168152602001600282016003806020026040519081016040528092919082600380156128d3576020028201915b8154815260200190600101908083116128bf575b505050505081526020016005820160009054906101000a900473ffffffffffffffffffffffffffffffffffffffff1673ffffffffffffffffffffffffffffffffffffffff1673ffffffffffffffffffffffffffffffffffffffff1681526020016005820160149054906101000a900460ff16600381111561295757612956614a50565b5b600381111561296957612968614a50565b5b8152505090506040518060a00160405280836000015181526020018873ffffffffffffffffffffffffffffffffffffffff168152602001836040015181526020018773ffffffffffffffffffffffffffffffffffffffff168152602001600260038111156129da576129d9614a50565b5b8152506000808973ffffffffffffffffffffffffffffffffffffffff1673ffffffffffffffffffffffffffffffffffffffff1681526020019081526020016000206000820151816000015560208201518160010160006101000a81548173ffffffffffffffffffffffffffffffffffffffff021916908373ffffffffffffffffffffffffffffffffffffffff160217905550604082015181600201906003612a83929190613daf565b5060608201518160050160006101000a81548173ffffffffffffffffffffffffffffffffffffffff021916908373ffffffffffffffffffffffffffffffffffffffff16021790555060808201518160050160146101000a81548160ff02191690836003811115612af657612af5614a50565b5b02179055509050506040518060a00160405280836000015181526020018773ffffffffffffffffffffffffffffffffffffffff168152602001826040015181526020018873ffffffffffffffffffffffffffffffffffffffff16815260200160026003811115612b6957612b68614a50565b5b8152506000808873ffffffffffffffffffffffffffffffffffffffff1673ffffffffffffffffffffffffffffffffffffffff1681526020019081526020016000206000820151816000015560208201518160010160006101000a81548173ffffffffffffffffffffffffffffffffffffffff021916908373ffffffffffffffffffffffffffffffffffffffff160217905550604082015181600201906003612c12929190613daf565b5060608201518160050160006101000a81548173ffffffffffffffffffffffffffffffffffffffff021916908373ffffffffffffffffffffffffffffffffffffffff16021790555060808201518160050160146101000a81548160ff02191690836003811115612c8557612c84614a50565b5b02179055509050507f000000000000000000000000000000000000000000000000000000000000000073ffffffffffffffffffffffffffffffffffffffff16635d3b1d307f00000000000000000000000000000000000000000000000000000000000000007f000000000000000000000000000000000000000000000000000000000000000060037f000000000000000000000000000000000000000000000000000000000000000060036040518663ffffffff1660e01b8152600401612d509594939291906145eb565b602060405180830381600087803b158015612d6a57600080fd5b505af1158015612d7e573d6000803e3d6000fd5b505050506040513d601f19601f82011682018060405250810190612da291906141f9565b945060405180604001604052808873ffffffffffffffffffffffffffffffffffffffff1673ffffffffffffffffffffffffffffffffffffffff1681526020018773ffffffffffffffffffffffffffffffffffffffff1673ffffffffffffffffffffffffffffffffffffffff1681525060016000878152602001908152602001600020906002612e32929190613e49565b507f3e817b1c20f032334f718d10f44d60d4f63e5807f8f8f4319cdf7f5f8a98e880878787604051612e669392919061456f565b60405180910390a15050505092915050565b612e80613ec6565b60008060008473ffffffffffffffffffffffffffffffffffffffff1673ffffffffffffffffffffffffffffffffffffffff168152602001908152602001600020600201600380602002604051908101604052809291908260038015612efa576020028201915b815481526020019060010190808311612ee6575b50505050509050600080600360009054906101000a900473ffffffffffffffffffffffffffffffffffffffff1673ffffffffffffffffffffffffffffffffffffffff1663bdc60bf984600060038110612f5657612f55614aae565b5b60200201516040518263ffffffff1660e01b8152600401612f779190614674565b60006040518083038186803b158015612f8f57600080fd5b505afa158015612fa3573d6000803e3d6000fd5b505050506040513d6000823e3d601f19601f82011682018060405250810190612fcc9190614282565b935050925050600080600360009054906101000a900473ffffffffffffffffffffffffffffffffffffffff1673ffffffffffffffffffffffffffffffffffffffff1663bdc60bf98660016003811061302757613026614aae565b5b60200201516040518263ffffffff1660e01b81526004016130489190614674565b60006040518083038186803b15801561306057600080fd5b505afa158015613074573d6000803e3d6000fd5b505050506040513d6000823e3d601f19601f8201168201806040525081019061309d9190614282565b935050925050600080600360009054906101000a900473ffffffffffffffffffffffffffffffffffffffff1673ffffffffffffffffffffffffffffffffffffffff1663bdc60bf9886002600381106130f8576130f7614aae565b5b60200201516040518263ffffffff1660e01b81526004016131199190614674565b60006040518083038186803b15801561313157600080fd5b505afa158015613145573d6000803e3d6000fd5b505050506040513d6000823e3d601f19601f8201168201806040525081019061316e9190614282565b93505092505060006131808688613544565b9050600061318e8587613544565b9050600061319c8486613544565b905060006040518060600160405280858152602001848152602001838152509050809b505050505050505050505050919050565b6000806000848711156132fa5760405180606001604052808973ffffffffffffffffffffffffffffffffffffffff1681526020018773ffffffffffffffffffffffffffffffffffffffff168152602001600015158152506006600086815260200190815260200160002060008201518160000160006101000a81548173ffffffffffffffffffffffffffffffffffffffff021916908373ffffffffffffffffffffffffffffffffffffffff16021790555060208201518160010160006101000a81548173ffffffffffffffffffffffffffffffffffffffff021916908373ffffffffffffffffffffffffffffffffffffffff16021790555060408201518160010160146101000a81548160ff02191690831515021790555090505087866000925092509250613539565b8685111561341f5760405180606001604052808773ffffffffffffffffffffffffffffffffffffffff1681526020018973ffffffffffffffffffffffffffffffffffffffff168152602001600015158152506006600086815260200190815260200160002060008201518160000160006101000a81548173ffffffffffffffffffffffffffffffffffffffff021916908373ffffffffffffffffffffffffffffffffffffffff16021790555060208201518160010160006101000a81548173ffffffffffffffffffffffffffffffffffffffff021916908373ffffffffffffffffffffffffffffffffffffffff16021790555060408201518160010160146101000a81548160ff02191690831515021790555090505085886000925092509250613539565b60405180606001604052808973ffffffffffffffffffffffffffffffffffffffff1681526020018773ffffffffffffffffffffffffffffffffffffffff168152602001600115158152506006600086815260200190815260200160002060008201518160000160006101000a81548173ffffffffffffffffffffffffffffffffffffffff021916908373ffffffffffffffffffffffffffffffffffffffff16021790555060208201518160010160006101000a81548173ffffffffffffffffffffffffffffffffffffffff021916908373ffffffffffffffffffffffffffffffffffffffff16021790555060408201518160010160146101000a81548160ff02191690831515021790555090505060008060019250925092505b955095509592505050565b61354c613ef3565b60008314156138165760005b600460009054906101000a900473ffffffffffffffffffffffffffffffffffffffff1673ffffffffffffffffffffffffffffffffffffffff166365c889db6040518163ffffffff1660e01b815260040160206040518083038186803b1580156135c057600080fd5b505afa1580156135d4573d6000803e3d6000fd5b505050506040513d601f19601f820116820180604052508101906135f891906141f9565b811015613810576000600460009054906101000a900473ffffffffffffffffffffffffffffffffffffffff1673ffffffffffffffffffffffffffffffffffffffff16634132607b836040518263ffffffff1660e01b815260040161365c9190614674565b60006040518083038186803b15801561367457600080fd5b505afa158015613688573d6000803e3d6000fd5b505050506040513d6000823e3d601f19601f820116820180604052508101906136b19190614149565b5050509050836040516020016136c791906144dd565b60405160208183030381529060405280519060200120816040516020016136ee91906144dd565b6040516020818303038152906040528051906020012014156137fc57600080600080600460009054906101000a900473ffffffffffffffffffffffffffffffffffffffff1673ffffffffffffffffffffffffffffffffffffffff16634132607b876040518263ffffffff1660e01b815260040161376b9190614674565b60006040518083038186803b15801561378357600080fd5b505afa158015613797573d6000803e3d6000fd5b505050506040513d6000823e3d601f19601f820116820180604052508101906137c09190614149565b93509350935093506000604051806080016040528086815260200185815260200184815260200183815250905080975050505050505050613da9565b50808061380890614978565b915050613558565b50613da8565b6001831415613ae05760005b600460009054906101000a900473ffffffffffffffffffffffffffffffffffffffff1673ffffffffffffffffffffffffffffffffffffffff16630a83de166040518163ffffffff1660e01b815260040160206040518083038186803b15801561388a57600080fd5b505afa15801561389e573d6000803e3d6000fd5b505050506040513d601f19601f820116820180604052508101906138c291906141f9565b811015613ada576000600460009054906101000a900473ffffffffffffffffffffffffffffffffffffffff1673ffffffffffffffffffffffffffffffffffffffff1663cff2c359836040518263ffffffff1660e01b81526004016139269190614674565b60006040518083038186803b15801561393e57600080fd5b505afa158015613952573d6000803e3d6000fd5b505050506040513d6000823e3d601f19601f8201168201806040525081019061397b9190614149565b50505090508360405160200161399191906144dd565b60405160208183030381529060405280519060200120816040516020016139b891906144dd565b604051602081830303815290604052805190602001201415613ac657600080600080600460009054906101000a900473ffffffffffffffffffffffffffffffffffffffff1673ffffffffffffffffffffffffffffffffffffffff1663cff2c359876040518263ffffffff1660e01b8152600401613a359190614674565b60006040518083038186803b158015613a4d57600080fd5b505afa158015613a61573d6000803e3d6000fd5b505050506040513d6000823e3d601f19601f82011682018060405250810190613a8a9190614149565b93509350935093506000604051806080016040528086815260200185815260200184815260200183815250905080975050505050505050613da9565b508080613ad290614978565b915050613822565b50613da7565b6002831415613da65760005b600460009054906101000a900473ffffffffffffffffffffffffffffffffffffffff1673ffffffffffffffffffffffffffffffffffffffff166371be70026040518163ffffffff1660e01b815260040160206040518083038186803b158015613b5457600080fd5b505afa158015613b68573d6000803e3d6000fd5b505050506040513d601f19601f82011682018060405250810190613b8c91906141f9565b811015613da4576000600460009054906101000a900473ffffffffffffffffffffffffffffffffffffffff1673ffffffffffffffffffffffffffffffffffffffff16639cfa7daa836040518263ffffffff1660e01b8152600401613bf09190614674565b60006040518083038186803b158015613c0857600080fd5b505afa158015613c1c573d6000803e3d6000fd5b505050506040513d6000823e3d601f19601f82011682018060405250810190613c459190614149565b505050905083604051602001613c5b91906144dd565b6040516020818303038152906040528051906020012081604051602001613c8291906144dd565b604051602081830303815290604052805190602001201415613d9057600080600080600460009054906101000a900473ffffffffffffffffffffffffffffffffffffffff1673ffffffffffffffffffffffffffffffffffffffff16639cfa7daa876040518263ffffffff1660e01b8152600401613cff9190614674565b60006040518083038186803b158015613d1757600080fd5b505afa158015613d2b573d6000803e3d6000fd5b505050506040513d6000823e3d601f19601f82011682018060405250810190613d549190614149565b93509350935093506000604051806080016040528086815260200185815260200184815260200183815250905080975050505050505050613da9565b508080613d9c90614978565b915050613aec565b505b5b5b5b92915050565b8260038101928215613dde579160200282015b82811115613ddd578251825591602001919060010190613dc2565b5b509050613deb9190613f1b565b5090565b60405180604001604052806002905b613e06613ef3565b815260200190600190039081613dfe5790505090565b60405180602001604052806001905b613e33613ef3565b815260200190600190039081613e2b5790505090565b8260028101928215613eb5579160200282015b82811115613eb45782518260006101000a81548173ffffffffffffffffffffffffffffffffffffffff021916908373ffffffffffffffffffffffffffffffffffffffff16021790555091602001919060010190613e5c565b5b509050613ec29190613f1b565b5090565b60405180606001604052806003905b613edd613ef3565b815260200190600190039081613ed55790505090565b6040518060800160405280606081526020016000815260200160008152602001600081525090565b5b80821115613f34576000816000905550600101613f1c565b5090565b6000613f4b613f46846146f9565b6146d4565b90508083825260208201905082856020860282011115613f6e57613f6d614b11565b5b60005b85811015613f9e5781613f848882614085565b845260208401935060208301925050600181019050613f71565b5050509392505050565b6000613fbb613fb684614725565b6146d4565b905082815260208101848484011115613fd757613fd6614b16565b5b613fe2848285614914565b509392505050565b600081359050613ff981614b4a565b92915050565b60008151905061400e81614b4a565b92915050565b600082601f83011261402957614028614b0c565b5b8135614039848260208601613f38565b91505092915050565b60008151905061405181614b61565b92915050565b600082601f83011261406c5761406b614b0c565b5b815161407c848260208601613fa8565b91505092915050565b60008135905061409481614b78565b92915050565b6000815190506140a981614b78565b92915050565b6000602082840312156140c5576140c4614b20565b5b60006140d384828501613fea565b91505092915050565b6000602082840312156140f2576140f1614b20565b5b600061410084828501613fff565b91505092915050565b600080604083850312156141205761411f614b20565b5b600061412e85828601613fea565b925050602061413f85828601614085565b9150509250929050565b6000806000806080858703121561416357614162614b20565b5b600085015167ffffffffffffffff81111561418157614180614b1b565b5b61418d87828801614057565b945050602061419e8782880161409a565b93505060406141af8782880161409a565b92505060606141c08782880161409a565b91505092959194509250565b6000602082840312156141e2576141e1614b20565b5b60006141f084828501614085565b91505092915050565b60006020828403121561420f5761420e614b20565b5b600061421d8482850161409a565b91505092915050565b6000806040838503121561423d5761423c614b20565b5b600061424b85828601614085565b925050602083013567ffffffffffffffff81111561426c5761426b614b1b565b5b61427885828601614014565b9150509250929050565b6000806000806080858703121561429c5761429b614b20565b5b60006142aa8782880161409a565b945050602085015167ffffffffffffffff8111156142cb576142ca614b1b565b5b6142d787828801614057565b93505060406142e887828801614042565b92505060606142f98782880161409a565b91505092959194509250565b6000806040838503121561431c5761431b614b20565b5b600061432a85828601614085565b925050602061433b85828601614085565b9150509250929050565b60008060006060848603121561435e5761435d614b20565b5b600061436c86828701614085565b935050602061437d86828701614085565b925050604061438e86828701614085565b9150509250925092565b60006143a483836144a1565b60208301905092915050565b6143b981614823565b82525050565b6143c881614760565b6143d28184614783565b92506143dd82614756565b8060005b8381101561440e5781516143f58782614398565b965061440083614776565b9250506001810190506143e1565b505050505050565b61441f81614835565b82525050565b61442e81614841565b82525050565b61443d816148ba565b82525050565b61444c816148cc565b82525050565b61445b816148de565b82525050565b600061446c8261476b565b614476818561478e565b9350614486818560208601614914565b80840191505092915050565b61449b8161485e565b82525050565b6144aa8161488c565b82525050565b6144b98161488c565b82525050565b6144c881614896565b82525050565b6144d7816148a6565b82525050565b60006144e98284614461565b915081905092915050565b600060208201905061450960008301846143b0565b92915050565b600060408201905061452460008301856143b0565b61453160208301846143b0565b9392505050565b600060608201905061454d60008301866143b0565b61455a60208301856143b0565b6145676040830184614416565b949350505050565b600060608201905061458460008301866143b0565b61459160208301856143b0565b61459e60408301846144b0565b949350505050565b600060c0820190506145bb60008301876143b0565b6145c860208301866143bf565b6145d560808301856143b0565b6145e260a0830184614452565b95945050505050565b600060a0820190506146006000830188614425565b61460d60208301876144ce565b61461a6040830186614492565b61462760608301856144bf565b61463460808301846144bf565b9695505050505050565b60006020820190506146536000830184614434565b92915050565b600060208201905061466e6000830184614443565b92915050565b600060208201905061468960008301846144b0565b92915050565b60006080820190506146a460008301876144b0565b6146b160208301866143b0565b6146be60408301856143b0565b6146cb6060830184614452565b95945050505050565b60006146de6146ef565b90506146ea8282614947565b919050565b6000604051905090565b600067ffffffffffffffff82111561471457614713614add565b5b602082029050602081019050919050565b600067ffffffffffffffff8211156147405761473f614add565b5b61474982614b25565b9050602081019050919050565b6000819050919050565b600060039050919050565b600081519050919050565b6000602082019050919050565b600081905092915050565b600081905092915050565b60006147a48261488c565b91506147af8361488c565b9250827fffffffffffffffffffffffffffffffffffffffffffffffffffffffffffffffff038211156147e4576147e36149f2565b5b828201905092915050565b60006147fa8261488c565b91506148058361488c565b925082821015614818576148176149f2565b5b828203905092915050565b600061482e8261486c565b9050919050565b60008115159050919050565b6000819050919050565b600081905061485982614b36565b919050565b600061ffff82169050919050565b600073ffffffffffffffffffffffffffffffffffffffff82169050919050565b6000819050919050565b600063ffffffff82169050919050565b600067ffffffffffffffff82169050919050565b60006148c5826148f0565b9050919050565b60006148d7826148f0565b9050919050565b60006148e98261484b565b9050919050565b60006148fb82614902565b9050919050565b600061490d8261486c565b9050919050565b60005b83811015614932578082015181840152602081019050614917565b83811115614941576000848401525b50505050565b61495082614b25565b810181811067ffffffffffffffff8211171561496f5761496e614add565b5b80604052505050565b60006149838261488c565b91507fffffffffffffffffffffffffffffffffffffffffffffffffffffffffffffffff8214156149b6576149b56149f2565b5b600182019050919050565b60006149cc8261488c565b91506149d78361488c565b9250826149e7576149e6614a21565b5b828206905092915050565b7f4e487b7100000000000000000000000000000000000000000000000000000000600052601160045260246000fd5b7f4e487b7100000000000000000000000000000000000000000000000000000000600052601260045260246000fd5b7f4e487b7100000000000000000000000000000000000000000000000000000000600052602160045260246000fd5b7f4e487b7100000000000000000000000000000000000000000000000000000000600052603160045260246000fd5b7f4e487b7100000000000000000000000000000000000000000000000000000000600052603260045260246000fd5b7f4e487b7100000000000000000000000000000000000000000000000000000000600052604160045260246000fd5b600080fd5b600080fd5b600080fd5b600080fd5b600080fd5b6000601f19601f8301169050919050565b60048110614b4757614b46614a50565b5b50565b614b5381614823565b8114614b5e57600080fd5b50565b614b6a81614835565b8114614b7557600080fd5b50565b614b818161488c565b8114614b8c57600080fd5b5056fea2646970667358221220e5c45367cfac1f720a0cfe36fcc89c2262b8fb5192bf8b047395c912e3e812ed64736f6c63430008070033",
  "linkReferences": {},
  "deployedLinkReferences": {}
}