{
  "_format": "hh-sol-artifact-1",
  "contractName": "Characters",
  "sourceName": "contracts/Characters.sol",
  "abi": [
    {
      "inputs": [
        {
          "internalType": "string[]",
          "name": "tokenUriNormal",
          "type": "string[]"
        },
        {
          "internalType": "uint256[][]",
          "name": "normalStats",
          "type": "uint256[][]"
        },
        {
          "internalType": "string[]",
          "name": "tokenUriRare",
          "type": "string[]"
        },
        {
          "internalType": "uint256[][]",
          "name": "statsRare",
          "type": "uint256[][]"
        },
        {
          "internalType": "string[]",
          "name": "tokenUriLegendary",
          "type": "string[]"
        },
        {
          "internalType": "uint256[][]",
          "name": "statsLegendary",
          "type": "uint256[][]"
        }
      ],
      "stateMutability": "nonpayable",
      "type": "constructor"
    },
    {
      "inputs": [
        {
          "internalType": "uint256",
          "name": "",
          "type": "uint256"
        }
      ],
      "name": "legendaryPersons",
      "outputs": [
        {
          "internalType": "string",
          "name": "tokenUri",
          "type": "string"
        },
        {
          "internalType": "uint256",
          "name": "attack",
          "type": "uint256"
        },
        {
          "internalType": "uint256",
          "name": "defence",
          "type": "uint256"
        },
        {
          "internalType": "uint256",
          "name": "tactics",
          "type": "uint256"
        }
      ],
      "stateMutability": "view",
      "type": "function"
    },
    {
      "inputs": [],
      "name": "legendaryPersonsLength",
      "outputs": [
        {
          "internalType": "uint256",
          "name": "",
          "type": "uint256"
        }
      ],
      "stateMutability": "view",
      "type": "function"
    },
    {
      "inputs": [
        {
          "internalType": "uint256",
          "name": "",
          "type": "uint256"
        }
      ],
      "name": "normalPersons",
      "outputs": [
        {
          "internalType": "string",
          "name": "tokenUri",
          "type": "string"
        },
        {
          "internalType": "uint256",
          "name": "attack",
          "type": "uint256"
        },
        {
          "internalType": "uint256",
          "name": "defence",
          "type": "uint256"
        },
        {
          "internalType": "uint256",
          "name": "tactics",
          "type": "uint256"
        }
      ],
      "stateMutability": "view",
      "type": "function"
    },
    {
      "inputs": [],
      "name": "normalPersonsLength",
      "outputs": [
        {
          "internalType": "uint256",
          "name": "",
          "type": "uint256"
        }
      ],
      "stateMutability": "view",
      "type": "function"
    },
    {
      "inputs": [
        {
          "internalType": "uint256",
          "name": "",
          "type": "uint256"
        }
      ],
      "name": "rarePersons",
      "outputs": [
        {
          "internalType": "string",
          "name": "tokenUri",
          "type": "string"
        },
        {
          "internalType": "uint256",
          "name": "attack",
          "type": "uint256"
        },
        {
          "internalType": "uint256",
          "name": "defence",
          "type": "uint256"
        },
        {
          "internalType": "uint256",
          "name": "tactics",
          "type": "uint256"
        }
      ],
      "stateMutability": "view",
      "type": "function"
    },
    {
      "inputs": [],
      "name": "rarePersonsLength",
      "outputs": [
        {
          "internalType": "uint256",
          "name": "",
          "type": "uint256"
        }
      ],
      "stateMutability": "view",
      "type": "function"
    }
  ],
  "bytecode": "0x60806040523480156200001157600080fd5b506040516200127d3803806200127d83398181016040528101906200003791906200084b565b60005b8651811015620001b3576000604051806080016040528089848151811062000067576200006662000be5565b5b602002602001015181526020018884815181106200008a576200008962000be5565b5b6020026020010151600081518110620000a857620000a762000be5565b5b60200260200101518152602001888481518110620000cb57620000ca62000be5565b5b6020026020010151600181518110620000e957620000e862000be5565b5b602002602001015181526020018884815181106200010c576200010b62000be5565b5b60200260200101516002815181106200012a576200012962000be5565b5b6020026020010151815250908060018154018082558091505060019003906000526020600020906004020160009091909190915060008201518160000190805190602001906200017c929190620004ba565b5060208201518160010155604082015181600201556060820151816003015550508080620001aa9062000b39565b9150506200003a565b5060005b8451811015620003305760016040518060800160405280878481518110620001e457620001e362000be5565b5b6020026020010151815260200186848151811062000207576200020662000be5565b5b602002602001015160008151811062000225576200022462000be5565b5b6020026020010151815260200186848151811062000248576200024762000be5565b5b602002602001015160018151811062000266576200026562000be5565b5b6020026020010151815260200186848151811062000289576200028862000be5565b5b6020026020010151600281518110620002a757620002a662000be5565b5b602002602001015181525090806001815401808255809150506001900390600052602060002090600402016000909190919091506000820151816000019080519060200190620002f9929190620004ba565b5060208201518160010155604082015181600201556060820151816003015550508080620003279062000b39565b915050620001b7565b5060005b8251811015620004ad576002604051806080016040528085848151811062000361576200036062000be5565b5b6020026020010151815260200184848151811062000384576200038362000be5565b5b6020026020010151600081518110620003a257620003a162000be5565b5b60200260200101518152602001848481518110620003c557620003c462000be5565b5b6020026020010151600181518110620003e357620003e262000be5565b5b6020026020010151815260200184848151811062000406576200040562000be5565b5b602002602001015160028151811062000424576200042362000be5565b5b60200260200101518152509080600181540180825580915050600190039060005260206000209060040201600090919091909150600082015181600001908051906020019062000476929190620004ba565b5060208201518160010155604082015181600201556060820151816003015550508080620004a49062000b39565b91505062000334565b5050505050505062000c87565b828054620004c89062000acd565b90600052602060002090601f016020900481019282620004ec576000855562000538565b82601f106200050757805160ff191683800117855562000538565b8280016001018555821562000538579182015b82811115620005375782518255916020019190600101906200051a565b5b5090506200054791906200054b565b5090565b5b80821115620005665760008160009055506001016200054c565b5090565b6000620005816200057b84620009ca565b620009a1565b90508083825260208201905082856020860282011115620005a757620005a662000c48565b5b60005b85811015620005fc57815167ffffffffffffffff811115620005d157620005d062000c43565b5b808601620005e08982620007ce565b85526020850194506020840193505050600181019050620005aa565b5050509392505050565b60006200061d6200061784620009f9565b620009a1565b9050808382526020820190508285602086028201111562000643576200064262000c48565b5b60005b858110156200069857815167ffffffffffffffff8111156200066d576200066c62000c43565b5b8086016200067c898262000801565b8552602085019450602084019350505060018101905062000646565b5050509392505050565b6000620006b9620006b38462000a28565b620009a1565b90508083825260208201905082856020860282011115620006df57620006de62000c48565b5b60005b85811015620007135781620006f8888262000834565b845260208401935060208301925050600181019050620006e2565b5050509392505050565b6000620007346200072e8462000a57565b620009a1565b90508281526020810184848401111562000753576200075262000c4d565b5b6200076084828562000a97565b509392505050565b600082601f83011262000780576200077f62000c43565b5b8151620007928482602086016200056a565b91505092915050565b600082601f830112620007b357620007b262000c43565b5b8151620007c584826020860162000606565b91505092915050565b600082601f830112620007e657620007e562000c43565b5b8151620007f8848260208601620006a2565b91505092915050565b600082601f83011262000819576200081862000c43565b5b81516200082b8482602086016200071d565b91505092915050565b600081519050620008458162000c6d565b92915050565b60008060008060008060c087890312156200086b576200086a62000c57565b5b600087015167ffffffffffffffff8111156200088c576200088b62000c52565b5b6200089a89828a016200079b565b965050602087015167ffffffffffffffff811115620008be57620008bd62000c52565b5b620008cc89828a0162000768565b955050604087015167ffffffffffffffff811115620008f057620008ef62000c52565b5b620008fe89828a016200079b565b945050606087015167ffffffffffffffff81111562000922576200092162000c52565b5b6200093089828a0162000768565b935050608087015167ffffffffffffffff81111562000954576200095362000c52565b5b6200096289828a016200079b565b92505060a087015167ffffffffffffffff81111562000986576200098562000c52565b5b6200099489828a0162000768565b9150509295509295509295565b6000620009ad620009c0565b9050620009bb828262000b03565b919050565b6000604051905090565b600067ffffffffffffffff821115620009e857620009e762000c14565b5b602082029050602081019050919050565b600067ffffffffffffffff82111562000a175762000a1662000c14565b5b602082029050602081019050919050565b600067ffffffffffffffff82111562000a465762000a4562000c14565b5b602082029050602081019050919050565b600067ffffffffffffffff82111562000a755762000a7462000c14565b5b62000a808262000c5c565b9050602081019050919050565b6000819050919050565b60005b8381101562000ab757808201518184015260208101905062000a9a565b8381111562000ac7576000848401525b50505050565b6000600282049050600182168062000ae657607f821691505b6020821081141562000afd5762000afc62000bb6565b5b50919050565b62000b0e8262000c5c565b810181811067ffffffffffffffff8211171562000b305762000b2f62000c14565b5b80604052505050565b600062000b468262000a8d565b91507fffffffffffffffffffffffffffffffffffffffffffffffffffffffffffffffff82141562000b7c5762000b7b62000b87565b5b600182019050919050565b7f4e487b7100000000000000000000000000000000000000000000000000000000600052601160045260246000fd5b7f4e487b7100000000000000000000000000000000000000000000000000000000600052602260045260246000fd5b7f4e487b7100000000000000000000000000000000000000000000000000000000600052603260045260246000fd5b7f4e487b7100000000000000000000000000000000000000000000000000000000600052604160045260246000fd5b600080fd5b600080fd5b600080fd5b600080fd5b600080fd5b6000601f19601f8301169050919050565b62000c788162000a8d565b811462000c8457600080fd5b50565b6105e68062000c976000396000f3fe608060405234801561001057600080fd5b50600436106100625760003560e01c80630a83de16146100675780634132607b1461008557806365c889db146100b857806371be7002146100d65780639cfa7daa146100f4578063cff2c35914610127575b600080fd5b61006f61015a565b60405161007c91906104ae565b60405180910390f35b61009f600480360381019061009a91906103ed565b610167565b6040516100af9493929190610462565b60405180910390f35b6100c061022f565b6040516100cd91906104ae565b60405180910390f35b6100de61023b565b6040516100eb91906104ae565b60405180910390f35b61010e600480360381019061010991906103ed565b610248565b60405161011e9493929190610462565b60405180910390f35b610141600480360381019061013c91906103ed565b610310565b6040516101519493929190610462565b60405180910390f35b6000600180549050905090565b6000818154811061017757600080fd5b906000526020600020906004020160009150905080600001805461019a90610522565b80601f01602080910402602001604051908101604052809291908181526020018280546101c690610522565b80156102135780601f106101e857610100808354040283529160200191610213565b820191906000526020600020905b8154815290600101906020018083116101f657829003601f168201915b5050505050908060010154908060020154908060030154905084565b60008080549050905090565b6000600280549050905090565b6002818154811061025857600080fd5b906000526020600020906004020160009150905080600001805461027b90610522565b80601f01602080910402602001604051908101604052809291908181526020018280546102a790610522565b80156102f45780601f106102c9576101008083540402835291602001916102f4565b820191906000526020600020905b8154815290600101906020018083116102d757829003601f168201915b5050505050908060010154908060020154908060030154905084565b6001818154811061032057600080fd5b906000526020600020906004020160009150905080600001805461034390610522565b80601f016020809104026020016040519081016040528092919081815260200182805461036f90610522565b80156103bc5780601f10610391576101008083540402835291602001916103bc565b820191906000526020600020905b81548152906001019060200180831161039f57829003601f168201915b5050505050908060010154908060020154908060030154905084565b6000813590506103e781610599565b92915050565b60006020828403121561040357610402610583565b5b6000610411848285016103d8565b91505092915050565b6000610425826104c9565b61042f81856104d4565b935061043f8185602086016104ef565b61044881610588565b840191505092915050565b61045c816104e5565b82525050565b6000608082019050818103600083015261047c818761041a565b905061048b6020830186610453565b6104986040830185610453565b6104a56060830184610453565b95945050505050565b60006020820190506104c36000830184610453565b92915050565b600081519050919050565b600082825260208201905092915050565b6000819050919050565b60005b8381101561050d5780820151818401526020810190506104f2565b8381111561051c576000848401525b50505050565b6000600282049050600182168061053a57607f821691505b6020821081141561054e5761054d610554565b5b50919050565b7f4e487b7100000000000000000000000000000000000000000000000000000000600052602260045260246000fd5b600080fd5b6000601f19601f8301169050919050565b6105a2816104e5565b81146105ad57600080fd5b5056fea26469706673582212208ceb9f3e0dfcda2a888728e05fc37f40d65d8befa7f329de4211654ae0f4716064736f6c63430008070033",
  "linkReferences": {},
  "deployedLinkReferences": {}
}