{
  "_format": "hh-sol-artifact-1",
  "contractName": "TradeNft",
  "sourceName": "contracts/TradeNft.sol",
  "abi": [
    {
      "inputs": [
        {
          "internalType": "address",
          "name": "nftAddress",
          "type": "address"
        }
      ],
      "stateMutability": "nonpayable",
      "type": "constructor"
    },
    {
      "inputs": [],
      "name": "TradeNft__AlreadyOnSale",
      "type": "error"
    },
    {
      "inputs": [],
      "name": "TradeNft__AlreadyOwner",
      "type": "error"
    },
    {
      "inputs": [],
      "name": "TradeNft__IsNotListed",
      "type": "error"
    },
    {
      "inputs": [],
      "name": "TradeNft__NoProceeds",
      "type": "error"
    },
    {
      "inputs": [],
      "name": "TradeNft__NotApproved",
      "type": "error"
    },
    {
      "inputs": [],
      "name": "TradeNft__NotOwner",
      "type": "error"
    },
    {
      "inputs": [],
      "name": "TradeNft__PriceMustBeAboveZero",
      "type": "error"
    },
    {
      "inputs": [],
      "name": "TradeNft__PriceNotMet",
      "type": "error"
    },
    {
      "inputs": [],
      "name": "TradeNft__TransferFailed",
      "type": "error"
    },
    {
      "anonymous": false,
      "inputs": [
        {
          "indexed": false,
          "internalType": "address",
          "name": "newOwner",
          "type": "address"
        },
        {
          "indexed": false,
          "internalType": "address",
          "name": "seller",
          "type": "address"
        },
        {
          "indexed": false,
          "internalType": "uint256",
          "name": "tokenId",
          "type": "uint256"
        },
        {
          "indexed": false,
          "internalType": "uint256",
          "name": "price",
          "type": "uint256"
        },
        {
          "indexed": false,
          "internalType": "bool",
          "name": "sell",
          "type": "bool"
        }
      ],
      "name": "BuyNft",
      "type": "event"
    },
    {
      "anonymous": false,
      "inputs": [
        {
          "indexed": false,
          "internalType": "address",
          "name": "owner",
          "type": "address"
        },
        {
          "indexed": false,
          "internalType": "uint256",
          "name": "proceeds",
          "type": "uint256"
        }
      ],
      "name": "ProceedsSent",
      "type": "event"
    },
    {
      "anonymous": false,
      "inputs": [
        {
          "indexed": false,
          "internalType": "address",
          "name": "owner",
          "type": "address"
        },
        {
          "indexed": false,
          "internalType": "uint256",
          "name": "tokenId",
          "type": "uint256"
        },
        {
          "indexed": false,
          "internalType": "uint256",
          "name": "price",
          "type": "uint256"
        },
        {
          "indexed": false,
          "internalType": "bool",
          "name": "sell",
          "type": "bool"
        }
      ],
      "name": "SellNft",
      "type": "event"
    },
    {
      "anonymous": false,
      "inputs": [
        {
          "indexed": false,
          "internalType": "address",
          "name": "owner",
          "type": "address"
        },
        {
          "indexed": false,
          "internalType": "uint256",
          "name": "tokenId",
          "type": "uint256"
        },
        {
          "indexed": false,
          "internalType": "uint256",
          "name": "price",
          "type": "uint256"
        },
        {
          "indexed": false,
          "internalType": "bool",
          "name": "sell",
          "type": "bool"
        }
      ],
      "name": "TakeDownNft",
      "type": "event"
    },
    {
      "anonymous": false,
      "inputs": [
        {
          "indexed": false,
          "internalType": "address",
          "name": "owner",
          "type": "address"
        },
        {
          "indexed": false,
          "internalType": "uint256",
          "name": "tokenId",
          "type": "uint256"
        },
        {
          "indexed": false,
          "internalType": "uint256",
          "name": "price",
          "type": "uint256"
        },
        {
          "indexed": false,
          "internalType": "bool",
          "name": "sell",
          "type": "bool"
        }
      ],
      "name": "UpdateNftPrice",
      "type": "event"
    },
    {
      "inputs": [
        {
          "internalType": "uint256",
          "name": "tokenId",
          "type": "uint256"
        }
      ],
      "name": "buyNft",
      "outputs": [],
      "stateMutability": "payable",
      "type": "function"
    },
    {
      "inputs": [],
      "name": "getNftAddress",
      "outputs": [
        {
          "internalType": "address",
          "name": "",
          "type": "address"
        }
      ],
      "stateMutability": "view",
      "type": "function"
    },
    {
      "inputs": [
        {
          "internalType": "address",
          "name": "user",
          "type": "address"
        }
      ],
      "name": "getProceeds",
      "outputs": [
        {
          "internalType": "uint256",
          "name": "",
          "type": "uint256"
        }
      ],
      "stateMutability": "view",
      "type": "function"
    },
    {
      "inputs": [],
      "name": "i_nftContract",
      "outputs": [
        {
          "internalType": "contract NftBox",
          "name": "",
          "type": "address"
        }
      ],
      "stateMutability": "view",
      "type": "function"
    },
    {
      "inputs": [
        {
          "internalType": "uint256",
          "name": "tokenId",
          "type": "uint256"
        },
        {
          "internalType": "uint256",
          "name": "price",
          "type": "uint256"
        }
      ],
      "name": "sellNft",
      "outputs": [],
      "stateMutability": "nonpayable",
      "type": "function"
    },
    {
      "inputs": [
        {
          "internalType": "uint256",
          "name": "tokenId",
          "type": "uint256"
        }
      ],
      "name": "takeDownNft",
      "outputs": [],
      "stateMutability": "nonpayable",
      "type": "function"
    },
    {
      "inputs": [
        {
          "internalType": "uint256",
          "name": "",
          "type": "uint256"
        }
      ],
      "name": "tokenIdToNft",
      "outputs": [
        {
          "internalType": "uint256",
          "name": "tokenId",
          "type": "uint256"
        },
        {
          "internalType": "address",
          "name": "owner",
          "type": "address"
        },
        {
          "internalType": "uint256",
          "name": "price",
          "type": "uint256"
        },
        {
          "internalType": "bool",
          "name": "sell",
          "type": "bool"
        }
      ],
      "stateMutability": "view",
      "type": "function"
    },
    {
      "inputs": [
        {
          "internalType": "uint256",
          "name": "tokenId",
          "type": "uint256"
        },
        {
          "internalType": "uint256",
          "name": "price",
          "type": "uint256"
        }
      ],
      "name": "updateNftPrice",
      "outputs": [],
      "stateMutability": "nonpayable",
      "type": "function"
    },
    {
      "inputs": [],
      "name": "withdrawProceeds",
      "outputs": [],
      "stateMutability": "nonpayable",
      "type": "function"
    }
  ],
  "bytecode": "0x60c06040523480156200001157600080fd5b5060405162001dd138038062001dd183398181016040528101906200003791906200010c565b60016000819055508073ffffffffffffffffffffffffffffffffffffffff1660808173ffffffffffffffffffffffffffffffffffffffff1660601b815250508073ffffffffffffffffffffffffffffffffffffffff1660a08173ffffffffffffffffffffffffffffffffffffffff1660601b8152505080600260006101000a81548173ffffffffffffffffffffffffffffffffffffffff021916908373ffffffffffffffffffffffffffffffffffffffff1602179055505062000191565b600081519050620001068162000177565b92915050565b60006020828403121562000125576200012462000172565b5b60006200013584828501620000f5565b91505092915050565b60006200014b8262000152565b9050919050565b600073ffffffffffffffffffffffffffffffffffffffff82169050919050565b600080fd5b62000182816200013e565b81146200018e57600080fd5b50565b60805160601c60a05160601c611bf1620001e06000396000610a250152600081816103c8015281816105bb015281816107b401528181610e3601528181610e6001526112690152611bf16000f3fe6080604052600436106100865760003560e01c80639038e693116100595780639038e69314610138578063a0b58ed31461014f578063be9a71bd1461018f578063e52ed82e146101ba578063fde1b8fe146101e357610086565b80631fc8b71d1461008b578063243adbdd146100b657806330cfeda9146100d25780635208eb091461010f575b600080fd5b34801561009757600080fd5b506100a061020c565b6040516100ad9190611990565b60405180910390f35b6100d060048036038101906100cb9190611725565b610232565b005b3480156100de57600080fd5b506100f960048036038101906100f491906116cb565b610765565b60405161010691906119cb565b60405180910390f35b34801561011b57600080fd5b5061013660048036038101906101319190611752565b6107ae565b005b34801561014457600080fd5b5061014d610c32565b005b34801561015b57600080fd5b5061017660048036038101906101719190611725565b610dd5565b60405161018694939291906119e6565b60405180910390f35b34801561019b57600080fd5b506101a4610e32565b6040516101b19190611838565b60405180910390f35b3480156101c657600080fd5b506101e160048036038101906101dc9190611752565b610e5a565b005b3480156101ef57600080fd5b5061020a60048036038101906102059190611725565b611263565b005b600260009054906101000a900473ffffffffffffffffffffffffffffffffffffffff1681565b61023a611632565b80600060016000838152602001908152602001600020604051806080016040529081600082015481526020016001820160009054906101000a900473ffffffffffffffffffffffffffffffffffffffff1673ffffffffffffffffffffffffffffffffffffffff1673ffffffffffffffffffffffffffffffffffffffff168152602001600282015481526020016003820160009054906101000a900460ff1615151515815250509050806060015161031d576040517f48f33cb500000000000000000000000000000000000000000000000000000000815260040160405180910390fd5b600060016000858152602001908152602001600020604051806080016040529081600082015481526020016001820160009054906101000a900473ffffffffffffffffffffffffffffffffffffffff1673ffffffffffffffffffffffffffffffffffffffff1673ffffffffffffffffffffffffffffffffffffffff168152602001600282015481526020016003820160009054906101000a900460ff161515151581525050905060007f0000000000000000000000000000000000000000000000000000000000000000905060008173ffffffffffffffffffffffffffffffffffffffff16636352211e876040518263ffffffff1660e01b815260040161042491906119cb565b60206040518083038186803b15801561043c57600080fd5b505afa158015610450573d6000803e3d6000fd5b505050506040513d601f19601f8201168201806040525081019061047491906116f8565b90503373ffffffffffffffffffffffffffffffffffffffff168173ffffffffffffffffffffffffffffffffffffffff1614156104dc576040517fecfd4d1b00000000000000000000000000000000000000000000000000000000815260040160405180910390fd5b826040015134101561051a576040517ff4de789200000000000000000000000000000000000000000000000000000000815260040160405180910390fd5b3460036000856020015173ffffffffffffffffffffffffffffffffffffffff1673ffffffffffffffffffffffffffffffffffffffff168152602001908152602001600020546105699190611a47565b60036000856020015173ffffffffffffffffffffffffffffffffffffffff1673ffffffffffffffffffffffffffffffffffffffff168152602001908152602001600020819055506000836020015190507f000000000000000000000000000000000000000000000000000000000000000073ffffffffffffffffffffffffffffffffffffffff166342842e0e82338a6040518463ffffffff1660e01b815260040161061693929190611853565b600060405180830381600087803b15801561063057600080fd5b505af1158015610644573d6000803e3d6000fd5b5050505060405180608001604052808881526020013373ffffffffffffffffffffffffffffffffffffffff1681526020016000815260200160001515815250600160008981526020019081526020016000206000820151816000015560208201518160010160006101000a81548173ffffffffffffffffffffffffffffffffffffffff021916908373ffffffffffffffffffffffffffffffffffffffff1602179055506040820151816002015560608201518160030160006101000a81548160ff0219169083151502179055509050507fb5d9f7393107ab5fb77d4c92249d3c396d3273098e93fb71dce500c510ab865f33828960008060405161074c95949392919061188a565b60405180910390a1505050505050610762611682565b50565b6000600360008373ffffffffffffffffffffffffffffffffffffffff1673ffffffffffffffffffffffffffffffffffffffff168152602001908152602001600020549050919050565b813360007f0000000000000000000000000000000000000000000000000000000000000000905060008173ffffffffffffffffffffffffffffffffffffffff16636352211e856040518263ffffffff1660e01b815260040161081091906119cb565b60206040518083038186803b15801561082857600080fd5b505afa15801561083c573d6000803e3d6000fd5b505050506040513d601f19601f8201168201806040525081019061086091906116f8565b90508073ffffffffffffffffffffffffffffffffffffffff168373ffffffffffffffffffffffffffffffffffffffff16146108c7576040517ff525ef9a00000000000000000000000000000000000000000000000000000000815260040160405180910390fd5b6108cf611632565b85600160008881526020019081526020016000206000015414156109d257600060016000888152602001908152602001600020604051806080016040529081600082015481526020016001820160009054906101000a900473ffffffffffffffffffffffffffffffffffffffff1673ffffffffffffffffffffffffffffffffffffffff1673ffffffffffffffffffffffffffffffffffffffff168152602001600282015481526020016003820160009054906101000a900460ff16151515158152505090508060600151156109d0576040517f19e3f10b00000000000000000000000000000000000000000000000000000000815260040160405180910390fd5b505b60008511610a0c576040517f8d10819a00000000000000000000000000000000000000000000000000000000815260040160405180910390fd5b3073ffffffffffffffffffffffffffffffffffffffff167f000000000000000000000000000000000000000000000000000000000000000073ffffffffffffffffffffffffffffffffffffffff1663081812fc886040518263ffffffff1660e01b8152600401610a7c91906119cb565b60206040518083038186803b158015610a9457600080fd5b505afa158015610aa8573d6000803e3d6000fd5b505050506040513d601f19601f82011682018060405250810190610acc91906116f8565b73ffffffffffffffffffffffffffffffffffffffff1614610b19576040517fe3eb6e9e00000000000000000000000000000000000000000000000000000000815260040160405180910390fd5b60405180608001604052808781526020013373ffffffffffffffffffffffffffffffffffffffff16815260200186815260200160011515815250600160008881526020019081526020016000206000820151816000015560208201518160010160006101000a81548173ffffffffffffffffffffffffffffffffffffffff021916908373ffffffffffffffffffffffffffffffffffffffff1602179055506040820151816002015560608201518160030160006101000a81548160ff0219169083151502179055509050507f7496f9fb69150bf8c4f6611049f5fc1a1b7ba87701c3999794c064bf37b06cc43387876001604051610c1a949392919061194b565b60405180910390a1610c2a611682565b505050505050565b6000600360003373ffffffffffffffffffffffffffffffffffffffff1673ffffffffffffffffffffffffffffffffffffffff16815260200190815260200160002054905060008111610cb0576040517fcf62924400000000000000000000000000000000000000000000000000000000815260040160405180910390fd5b6000600360003373ffffffffffffffffffffffffffffffffffffffff1673ffffffffffffffffffffffffffffffffffffffff1681526020019081526020016000208190555060003373ffffffffffffffffffffffffffffffffffffffff1682604051610d1b90611823565b60006040518083038185875af1925050503d8060008114610d58576040519150601f19603f3d011682016040523d82523d6000602084013e610d5d565b606091505b5050905080610d98576040517f7829c3c500000000000000000000000000000000000000000000000000000000815260040160405180910390fd5b7fafb92f5cd57e2484b0d726f4116a51613f234caa8672dba91a020b121c59f44c3383604051610dc99291906118dd565b60405180910390a15050565b60016020528060005260406000206000915090508060000154908060010160009054906101000a900473ffffffffffffffffffffffffffffffffffffffff16908060020154908060030160009054906101000a900460ff16905084565b60007f0000000000000000000000000000000000000000000000000000000000000000905090565b813360007f0000000000000000000000000000000000000000000000000000000000000000905060008173ffffffffffffffffffffffffffffffffffffffff16636352211e856040518263ffffffff1660e01b8152600401610ebc91906119cb565b60206040518083038186803b158015610ed457600080fd5b505afa158015610ee8573d6000803e3d6000fd5b505050506040513d601f19601f82011682018060405250810190610f0c91906116f8565b90508073ffffffffffffffffffffffffffffffffffffffff168373ffffffffffffffffffffffffffffffffffffffff1614610f73576040517ff525ef9a00000000000000000000000000000000000000000000000000000000815260040160405180910390fd5b85600060016000838152602001908152602001600020604051806080016040529081600082015481526020016001820160009054906101000a900473ffffffffffffffffffffffffffffffffffffffff1673ffffffffffffffffffffffffffffffffffffffff1673ffffffffffffffffffffffffffffffffffffffff168152602001600282015481526020016003820160009054906101000a900460ff16151515158152505090508060600151611056576040517f48f33cb500000000000000000000000000000000000000000000000000000000815260040160405180910390fd5b61105e611632565b60008711611098576040517f8d10819a00000000000000000000000000000000000000000000000000000000815260040160405180910390fd5b6000600160008a8152602001908152602001600020604051806080016040529081600082015481526020016001820160009054906101000a900473ffffffffffffffffffffffffffffffffffffffff1673ffffffffffffffffffffffffffffffffffffffff1673ffffffffffffffffffffffffffffffffffffffff168152602001600282015481526020016003820160009054906101000a900460ff161515151581525050905060405180608001604052808a81526020013373ffffffffffffffffffffffffffffffffffffffff16815260200189815260200160011515815250600160008b81526020019081526020016000206000820151816000015560208201518160010160006101000a81548173ffffffffffffffffffffffffffffffffffffffff021916908373ffffffffffffffffffffffffffffffffffffffff1602179055506040820151816002015560608201518160030160006101000a81548160ff0219169083151502179055509050507fc1d774e8d2556b416f69449524b9d37fd0342e8135a25dc82a90dee03e37d04c816020015182600001518a6001604051611248949392919061194b565b60405180910390a150611259611682565b5050505050505050565b803360007f0000000000000000000000000000000000000000000000000000000000000000905060008173ffffffffffffffffffffffffffffffffffffffff16636352211e856040518263ffffffff1660e01b81526004016112c591906119cb565b60206040518083038186803b1580156112dd57600080fd5b505afa1580156112f1573d6000803e3d6000fd5b505050506040513d601f19601f8201168201806040525081019061131591906116f8565b90508073ffffffffffffffffffffffffffffffffffffffff168373ffffffffffffffffffffffffffffffffffffffff161461137c576040517ff525ef9a00000000000000000000000000000000000000000000000000000000815260040160405180910390fd5b84600060016000838152602001908152602001600020604051806080016040529081600082015481526020016001820160009054906101000a900473ffffffffffffffffffffffffffffffffffffffff1673ffffffffffffffffffffffffffffffffffffffff1673ffffffffffffffffffffffffffffffffffffffff168152602001600282015481526020016003820160009054906101000a900460ff1615151515815250509050806060015161145f576040517f48f33cb500000000000000000000000000000000000000000000000000000000815260040160405180910390fd5b611467611632565b600060016000898152602001908152602001600020604051806080016040529081600082015481526020016001820160009054906101000a900473ffffffffffffffffffffffffffffffffffffffff1673ffffffffffffffffffffffffffffffffffffffff1673ffffffffffffffffffffffffffffffffffffffff168152602001600282015481526020016003820160009054906101000a900460ff161515151581525050905060405180608001604052808981526020013373ffffffffffffffffffffffffffffffffffffffff1681526020016000815260200160001515815250600160008a81526020019081526020016000206000820151816000015560208201518160010160006101000a81548173ffffffffffffffffffffffffffffffffffffffff021916908373ffffffffffffffffffffffffffffffffffffffff1602179055506040820151816002015560608201518160030160006101000a81548160ff0219169083151502179055509050507ffe69d0a00de2e804f70422bda55048a75d2bb59a8b0d71172511b485dbeba6ab816020015182600001516000806040516116189493929190611906565b60405180910390a150611629611682565b50505050505050565b60026000541415611678576040517f08c379a000000000000000000000000000000000000000000000000000000000815260040161166f906119ab565b60405180910390fd5b6002600081905550565b6001600081905550565b60008135905061169b81611b8d565b92915050565b6000815190506116b081611b8d565b92915050565b6000813590506116c581611ba4565b92915050565b6000602082840312156116e1576116e0611b5c565b5b60006116ef8482850161168c565b91505092915050565b60006020828403121561170e5761170d611b5c565b5b600061171c848285016116a1565b91505092915050565b60006020828403121561173b5761173a611b5c565b5b6000611749848285016116b6565b91505092915050565b6000806040838503121561176957611768611b5c565b5b6000611777858286016116b6565b9250506020611788858286016116b6565b9150509250929050565b61179b81611a9d565b82525050565b6117aa81611aaf565b82525050565b6117b981611ae5565b82525050565b6117c881611af7565b82525050565b60006117db600083611a2b565b91506117e682611b61565b600082019050919050565b60006117fe601f83611a36565b915061180982611b64565b602082019050919050565b61181d81611adb565b82525050565b600061182e826117ce565b9150819050919050565b600060208201905061184d6000830184611792565b92915050565b60006060820190506118686000830186611792565b6118756020830185611792565b6118826040830184611814565b949350505050565b600060a08201905061189f6000830188611792565b6118ac6020830187611792565b6118b96040830186611814565b6118c660608301856117bf565b6118d360808301846117a1565b9695505050505050565b60006040820190506118f26000830185611792565b6118ff6020830184611814565b9392505050565b600060808201905061191b6000830187611792565b6119286020830186611814565b61193560408301856117bf565b61194260608301846117a1565b95945050505050565b60006080820190506119606000830187611792565b61196d6020830186611814565b61197a6040830185611814565b61198760608301846117a1565b95945050505050565b60006020820190506119a560008301846117b0565b92915050565b600060208201905081810360008301526119c4816117f1565b9050919050565b60006020820190506119e06000830184611814565b92915050565b60006080820190506119fb6000830187611814565b611a086020830186611792565b611a156040830185611814565b611a2260608301846117a1565b95945050505050565b600081905092915050565b600082825260208201905092915050565b6000611a5282611adb565b9150611a5d83611adb565b9250827fffffffffffffffffffffffffffffffffffffffffffffffffffffffffffffffff03821115611a9257611a91611b2d565b5b828201905092915050565b6000611aa882611abb565b9050919050565b60008115159050919050565b600073ffffffffffffffffffffffffffffffffffffffff82169050919050565b6000819050919050565b6000611af082611b09565b9050919050565b6000611b0282611adb565b9050919050565b6000611b1482611b1b565b9050919050565b6000611b2682611abb565b9050919050565b7f4e487b7100000000000000000000000000000000000000000000000000000000600052601160045260246000fd5b600080fd5b50565b7f5265656e7472616e637947756172643a207265656e7472616e742063616c6c00600082015250565b611b9681611a9d565b8114611ba157600080fd5b50565b611bad81611adb565b8114611bb857600080fd5b5056fea264697066735822122081ea9a1a7f93622ad347d543a2208a7ef9be3452caf5fc8d3c7efdd547403dbf64736f6c63430008070033",
  "linkReferences": {},
  "deployedLinkReferences": {}
}