{
  "_format": "hh-sol-artifact-1",
  "contractName": "NftBox",
  "sourceName": "contracts/NftBox.sol",
  "abi": [
    {
      "inputs": [
        {
          "internalType": "address",
          "name": "vrfCoordinatorV2",
          "type": "address"
        },
        {
          "internalType": "uint64",
          "name": "subscriptionId",
          "type": "uint64"
        },
        {
          "internalType": "bytes32",
          "name": "gasLane",
          "type": "bytes32"
        },
        {
          "internalType": "uint32",
          "name": "callbackGasLimit",
          "type": "uint32"
        },
        {
          "internalType": "string[3]",
          "name": "boxesUri",
          "type": "string[3]"
        },
        {
          "internalType": "address",
          "name": "priceFeedAddress",
          "type": "address"
        },
        {
          "internalType": "address",
          "name": "charactersAddress",
          "type": "address"
        }
      ],
      "stateMutability": "nonpayable",
      "type": "constructor"
    },
    {
      "inputs": [],
      "name": "NftBox__AlreadyOpened",
      "type": "error"
    },
    {
      "inputs": [],
      "name": "NftBox__NeedMoreETHSent",
      "type": "error"
    },
    {
      "inputs": [],
      "name": "NftBox__NotOwner",
      "type": "error"
    },
    {
      "inputs": [],
      "name": "NftBox__TokenIdNotExist",
      "type": "error"
    },
    {
      "inputs": [],
      "name": "NftBox__TransferFailed",
      "type": "error"
    },
    {
      "inputs": [
        {
          "internalType": "address",
          "name": "have",
          "type": "address"
        },
        {
          "internalType": "address",
          "name": "want",
          "type": "address"
        }
      ],
      "name": "OnlyCoordinatorCanFulfill",
      "type": "error"
    },
    {
      "anonymous": false,
      "inputs": [
        {
          "indexed": true,
          "internalType": "address",
          "name": "owner",
          "type": "address"
        },
        {
          "indexed": true,
          "internalType": "address",
          "name": "approved",
          "type": "address"
        },
        {
          "indexed": true,
          "internalType": "uint256",
          "name": "tokenId",
          "type": "uint256"
        }
      ],
      "name": "Approval",
      "type": "event"
    },
    {
      "anonymous": false,
      "inputs": [
        {
          "indexed": true,
          "internalType": "address",
          "name": "owner",
          "type": "address"
        },
        {
          "indexed": true,
          "internalType": "address",
          "name": "operator",
          "type": "address"
        },
        {
          "indexed": false,
          "internalType": "bool",
          "name": "approved",
          "type": "bool"
        }
      ],
      "name": "ApprovalForAll",
      "type": "event"
    },
    {
      "anonymous": false,
      "inputs": [
        {
          "indexed": false,
          "internalType": "address",
          "name": "owner",
          "type": "address"
        },
        {
          "indexed": false,
          "internalType": "uint256",
          "name": "tokenId",
          "type": "uint256"
        },
        {
          "indexed": false,
          "internalType": "string",
          "name": "tokenUri",
          "type": "string"
        }
      ],
      "name": "BoxOpened",
      "type": "event"
    },
    {
      "anonymous": false,
      "inputs": [
        {
          "indexed": false,
          "internalType": "address",
          "name": "owner",
          "type": "address"
        },
        {
          "indexed": false,
          "internalType": "uint256",
          "name": "tokenId",
          "type": "uint256"
        },
        {
          "indexed": false,
          "internalType": "string",
          "name": "tokenUri",
          "type": "string"
        },
        {
          "indexed": false,
          "internalType": "uint256",
          "name": "price",
          "type": "uint256"
        }
      ],
      "name": "LegendaryBoxMinted",
      "type": "event"
    },
    {
      "anonymous": false,
      "inputs": [
        {
          "indexed": false,
          "internalType": "address",
          "name": "owner",
          "type": "address"
        },
        {
          "indexed": false,
          "internalType": "uint256",
          "name": "tokenId",
          "type": "uint256"
        },
        {
          "indexed": false,
          "internalType": "string",
          "name": "tokenUri",
          "type": "string"
        },
        {
          "indexed": false,
          "internalType": "uint256",
          "name": "price",
          "type": "uint256"
        }
      ],
      "name": "NormalBoxMinted",
      "type": "event"
    },
    {
      "anonymous": false,
      "inputs": [
        {
          "indexed": false,
          "internalType": "uint256",
          "name": "requestId",
          "type": "uint256"
        },
        {
          "indexed": false,
          "internalType": "address",
          "name": "sender",
          "type": "address"
        }
      ],
      "name": "OpenBoxRandomRequested",
      "type": "event"
    },
    {
      "anonymous": false,
      "inputs": [
        {
          "indexed": true,
          "internalType": "address",
          "name": "previousOwner",
          "type": "address"
        },
        {
          "indexed": true,
          "internalType": "address",
          "name": "newOwner",
          "type": "address"
        }
      ],
      "name": "OwnershipTransferred",
      "type": "event"
    },
    {
      "anonymous": false,
      "inputs": [
        {
          "indexed": false,
          "internalType": "address",
          "name": "owner",
          "type": "address"
        },
        {
          "indexed": false,
          "internalType": "uint256",
          "name": "tokenId",
          "type": "uint256"
        },
        {
          "indexed": false,
          "internalType": "string",
          "name": "tokenUri",
          "type": "string"
        },
        {
          "indexed": false,
          "internalType": "uint256",
          "name": "price",
          "type": "uint256"
        }
      ],
      "name": "RareBoxMinted",
      "type": "event"
    },
    {
      "anonymous": false,
      "inputs": [
        {
          "indexed": true,
          "internalType": "address",
          "name": "from",
          "type": "address"
        },
        {
          "indexed": true,
          "internalType": "address",
          "name": "to",
          "type": "address"
        },
        {
          "indexed": true,
          "internalType": "uint256",
          "name": "tokenId",
          "type": "uint256"
        }
      ],
      "name": "Transfer",
      "type": "event"
    },
    {
      "inputs": [],
      "name": "PRICE_LEGENDARY_BOX_USD",
      "outputs": [
        {
          "internalType": "uint256",
          "name": "",
          "type": "uint256"
        }
      ],
      "stateMutability": "view",
      "type": "function"
    },
    {
      "inputs": [],
      "name": "PRICE_NORMAL_BOX_USD",
      "outputs": [
        {
          "internalType": "uint256",
          "name": "",
          "type": "uint256"
        }
      ],
      "stateMutability": "view",
      "type": "function"
    },
    {
      "inputs": [],
      "name": "PRICE_RARE_BOX_USD",
      "outputs": [
        {
          "internalType": "uint256",
          "name": "",
          "type": "uint256"
        }
      ],
      "stateMutability": "view",
      "type": "function"
    },
    {
      "inputs": [
        {
          "internalType": "address",
          "name": "to",
          "type": "address"
        },
        {
          "internalType": "uint256",
          "name": "tokenId",
          "type": "uint256"
        }
      ],
      "name": "approve",
      "outputs": [],
      "stateMutability": "nonpayable",
      "type": "function"
    },
    {
      "inputs": [
        {
          "internalType": "address",
          "name": "owner",
          "type": "address"
        }
      ],
      "name": "balanceOf",
      "outputs": [
        {
          "internalType": "uint256",
          "name": "",
          "type": "uint256"
        }
      ],
      "stateMutability": "view",
      "type": "function"
    },
    {
      "inputs": [],
      "name": "buyLegendaryBox",
      "outputs": [],
      "stateMutability": "payable",
      "type": "function"
    },
    {
      "inputs": [],
      "name": "buyNormalBox",
      "outputs": [],
      "stateMutability": "payable",
      "type": "function"
    },
    {
      "inputs": [],
      "name": "buyRareBox",
      "outputs": [],
      "stateMutability": "payable",
      "type": "function"
    },
    {
      "inputs": [
        {
          "internalType": "uint256",
          "name": "tokenId",
          "type": "uint256"
        }
      ],
      "name": "getApproved",
      "outputs": [
        {
          "internalType": "address",
          "name": "",
          "type": "address"
        }
      ],
      "stateMutability": "view",
      "type": "function"
    },
    {
      "inputs": [
        {
          "internalType": "uint256",
          "name": "index",
          "type": "uint256"
        }
      ],
      "name": "getLegendaryCard",
      "outputs": [
        {
          "internalType": "string",
          "name": "",
          "type": "string"
        }
      ],
      "stateMutability": "view",
      "type": "function"
    },
    {
      "inputs": [],
      "name": "getLegendaryCardUrisLength",
      "outputs": [
        {
          "internalType": "uint256",
          "name": "",
          "type": "uint256"
        }
      ],
      "stateMutability": "view",
      "type": "function"
    },
    {
      "inputs": [
        {
          "internalType": "uint256",
          "name": "tokenId",
          "type": "uint256"
        }
      ],
      "name": "getNft",
      "outputs": [
        {
          "components": [
            {
              "internalType": "uint256",
              "name": "tokenId",
              "type": "uint256"
            },
            {
              "internalType": "string",
              "name": "tokenUri",
              "type": "string"
            },
            {
              "internalType": "bool",
              "name": "Boxopened",
              "type": "bool"
            },
            {
              "internalType": "uint256",
              "name": "boxType",
              "type": "uint256"
            }
          ],
          "internalType": "struct NftBox.Nft",
          "name": "",
          "type": "tuple"
        }
      ],
      "stateMutability": "view",
      "type": "function"
    },
    {
      "inputs": [
        {
          "internalType": "uint256",
          "name": "index",
          "type": "uint256"
        }
      ],
      "name": "getNftBoxesUri",
      "outputs": [
        {
          "internalType": "string",
          "name": "",
          "type": "string"
        }
      ],
      "stateMutability": "view",
      "type": "function"
    },
    {
      "inputs": [
        {
          "internalType": "uint256",
          "name": "index",
          "type": "uint256"
        }
      ],
      "name": "getNormalCard",
      "outputs": [
        {
          "internalType": "string",
          "name": "",
          "type": "string"
        }
      ],
      "stateMutability": "view",
      "type": "function"
    },
    {
      "inputs": [],
      "name": "getNormalCardUrisLength",
      "outputs": [
        {
          "internalType": "uint256",
          "name": "",
          "type": "uint256"
        }
      ],
      "stateMutability": "view",
      "type": "function"
    },
    {
      "inputs": [],
      "name": "getPriceFeed",
      "outputs": [
        {
          "internalType": "contract AggregatorV3Interface",
          "name": "",
          "type": "address"
        }
      ],
      "stateMutability": "view",
      "type": "function"
    },
    {
      "inputs": [
        {
          "internalType": "uint256",
          "name": "index",
          "type": "uint256"
        }
      ],
      "name": "getRareCard",
      "outputs": [
        {
          "internalType": "string",
          "name": "",
          "type": "string"
        }
      ],
      "stateMutability": "view",
      "type": "function"
    },
    {
      "inputs": [],
      "name": "getRareCardUrisLength",
      "outputs": [
        {
          "internalType": "uint256",
          "name": "",
          "type": "uint256"
        }
      ],
      "stateMutability": "view",
      "type": "function"
    },
    {
      "inputs": [],
      "name": "getTokenCounter",
      "outputs": [
        {
          "internalType": "uint256",
          "name": "",
          "type": "uint256"
        }
      ],
      "stateMutability": "view",
      "type": "function"
    },
    {
      "inputs": [
        {
          "internalType": "address",
          "name": "owner",
          "type": "address"
        }
      ],
      "name": "getTokenIds",
      "outputs": [
        {
          "internalType": "uint256[]",
          "name": "",
          "type": "uint256[]"
        }
      ],
      "stateMutability": "view",
      "type": "function"
    },
    {
      "inputs": [],
      "name": "i_charactersContract",
      "outputs": [
        {
          "internalType": "contract Characters",
          "name": "",
          "type": "address"
        }
      ],
      "stateMutability": "view",
      "type": "function"
    },
    {
      "inputs": [
        {
          "internalType": "address",
          "name": "owner",
          "type": "address"
        },
        {
          "internalType": "address",
          "name": "operator",
          "type": "address"
        }
      ],
      "name": "isApprovedForAll",
      "outputs": [
        {
          "internalType": "bool",
          "name": "",
          "type": "bool"
        }
      ],
      "stateMutability": "view",
      "type": "function"
    },
    {
      "inputs": [
        {
          "internalType": "uint256",
          "name": "",
          "type": "uint256"
        }
      ],
      "name": "mappingNfts",
      "outputs": [
        {
          "internalType": "uint256",
          "name": "tokenId",
          "type": "uint256"
        },
        {
          "internalType": "string",
          "name": "tokenUri",
          "type": "string"
        },
        {
          "internalType": "bool",
          "name": "Boxopened",
          "type": "bool"
        },
        {
          "internalType": "uint256",
          "name": "boxType",
          "type": "uint256"
        }
      ],
      "stateMutability": "view",
      "type": "function"
    },
    {
      "inputs": [
        {
          "internalType": "uint256",
          "name": "",
          "type": "uint256"
        }
      ],
      "name": "mappingRequestToToken",
      "outputs": [
        {
          "internalType": "uint256",
          "name": "",
          "type": "uint256"
        }
      ],
      "stateMutability": "view",
      "type": "function"
    },
    {
      "inputs": [],
      "name": "name",
      "outputs": [
        {
          "internalType": "string",
          "name": "",
          "type": "string"
        }
      ],
      "stateMutability": "view",
      "type": "function"
    },
    {
      "inputs": [
        {
          "internalType": "uint256",
          "name": "tokenId",
          "type": "uint256"
        }
      ],
      "name": "openBox",
      "outputs": [
        {
          "internalType": "uint256",
          "name": "requestId",
          "type": "uint256"
        }
      ],
      "stateMutability": "nonpayable",
      "type": "function"
    },
    {
      "inputs": [],
      "name": "owner",
      "outputs": [
        {
          "internalType": "address",
          "name": "",
          "type": "address"
        }
      ],
      "stateMutability": "view",
      "type": "function"
    },
    {
      "inputs": [
        {
          "internalType": "uint256",
          "name": "tokenId",
          "type": "uint256"
        }
      ],
      "name": "ownerOf",
      "outputs": [
        {
          "internalType": "address",
          "name": "",
          "type": "address"
        }
      ],
      "stateMutability": "view",
      "type": "function"
    },
    {
      "inputs": [
        {
          "internalType": "uint256",
          "name": "usd",
          "type": "uint256"
        }
      ],
      "name": "priceFeedUsdToEth",
      "outputs": [
        {
          "internalType": "uint256",
          "name": "",
          "type": "uint256"
        }
      ],
      "stateMutability": "view",
      "type": "function"
    },
    {
      "inputs": [
        {
          "internalType": "uint256",
          "name": "requestId",
          "type": "uint256"
        },
        {
          "internalType": "uint256[]",
          "name": "randomWords",
          "type": "uint256[]"
        }
      ],
      "name": "rawFulfillRandomWords",
      "outputs": [],
      "stateMutability": "nonpayable",
      "type": "function"
    },
    {
      "inputs": [],
      "name": "renounceOwnership",
      "outputs": [],
      "stateMutability": "nonpayable",
      "type": "function"
    },
    {
      "inputs": [
        {
          "internalType": "address",
          "name": "from",
          "type": "address"
        },
        {
          "internalType": "address",
          "name": "to",
          "type": "address"
        },
        {
          "internalType": "uint256",
          "name": "tokenId",
          "type": "uint256"
        }
      ],
      "name": "safeTransferFrom",
      "outputs": [],
      "stateMutability": "nonpayable",
      "type": "function"
    },
    {
      "inputs": [
        {
          "internalType": "address",
          "name": "from",
          "type": "address"
        },
        {
          "internalType": "address",
          "name": "to",
          "type": "address"
        },
        {
          "internalType": "uint256",
          "name": "tokenId",
          "type": "uint256"
        },
        {
          "internalType": "bytes",
          "name": "data",
          "type": "bytes"
        }
      ],
      "name": "safeTransferFrom",
      "outputs": [],
      "stateMutability": "nonpayable",
      "type": "function"
    },
    {
      "inputs": [
        {
          "internalType": "address",
          "name": "operator",
          "type": "address"
        },
        {
          "internalType": "bool",
          "name": "approved",
          "type": "bool"
        }
      ],
      "name": "setApprovalForAll",
      "outputs": [],
      "stateMutability": "nonpayable",
      "type": "function"
    },
    {
      "inputs": [
        {
          "internalType": "bytes4",
          "name": "interfaceId",
          "type": "bytes4"
        }
      ],
      "name": "supportsInterface",
      "outputs": [
        {
          "internalType": "bool",
          "name": "",
          "type": "bool"
        }
      ],
      "stateMutability": "view",
      "type": "function"
    },
    {
      "inputs": [],
      "name": "symbol",
      "outputs": [
        {
          "internalType": "string",
          "name": "",
          "type": "string"
        }
      ],
      "stateMutability": "view",
      "type": "function"
    },
    {
      "inputs": [
        {
          "internalType": "uint256",
          "name": "tokenId",
          "type": "uint256"
        }
      ],
      "name": "tokenURI",
      "outputs": [
        {
          "internalType": "string",
          "name": "",
          "type": "string"
        }
      ],
      "stateMutability": "view",
      "type": "function"
    },
    {
      "inputs": [],
      "name": "tradeNftAddress",
      "outputs": [
        {
          "internalType": "address",
          "name": "",
          "type": "address"
        }
      ],
      "stateMutability": "view",
      "type": "function"
    },
    {
      "inputs": [
        {
          "internalType": "address",
          "name": "from",
          "type": "address"
        },
        {
          "internalType": "address",
          "name": "to",
          "type": "address"
        },
        {
          "internalType": "uint256",
          "name": "tokenId",
          "type": "uint256"
        }
      ],
      "name": "transferFrom",
      "outputs": [],
      "stateMutability": "nonpayable",
      "type": "function"
    },
    {
      "inputs": [
        {
          "internalType": "address",
          "name": "newOwner",
          "type": "address"
        }
      ],
      "name": "transferOwnership",
      "outputs": [],
      "stateMutability": "nonpayable",
      "type": "function"
    },
    {
      "inputs": [],
      "name": "withdraw",
      "outputs": [],
      "stateMutability": "nonpayable",
      "type": "function"
    }
  ],
  "bytecode": "0x6101406040523480156200001257600080fd5b50604051620060cd380380620060cd833981810160405281019062000038919062000639565b6040518060400160405280600981526020017f43617264426f78657300000000000000000000000000000000000000000000008152506040518060400160405280600481526020017f4341424f00000000000000000000000000000000000000000000000000000000815250888073ffffffffffffffffffffffffffffffffffffffff1660808173ffffffffffffffffffffffffffffffffffffffff1660601b81525050508160009080519060200190620000f592919062000317565b5080600190805190602001906200010e92919062000317565b50505062000131620001256200024960201b60201c565b6200025160201b60201c565b8673ffffffffffffffffffffffffffffffffffffffff1660a08173ffffffffffffffffffffffffffffffffffffffff1660601b815250508567ffffffffffffffff1660c08167ffffffffffffffff1660c01b815250508460e081815250508363ffffffff166101008163ffffffff1660e01b8152505082600b906003620001ba929190620003a8565b508173ffffffffffffffffffffffffffffffffffffffff166101208173ffffffffffffffffffffffffffffffffffffffff1660601b815250506000600a8190555080600860006101000a81548173ffffffffffffffffffffffffffffffffffffffff021916908373ffffffffffffffffffffffffffffffffffffffff1602179055505050505050505062000987565b600033905090565b6000600760009054906101000a900473ffffffffffffffffffffffffffffffffffffffff16905081600760006101000a81548173ffffffffffffffffffffffffffffffffffffffff021916908373ffffffffffffffffffffffffffffffffffffffff1602179055508173ffffffffffffffffffffffffffffffffffffffff168173ffffffffffffffffffffffffffffffffffffffff167f8be0079c531659141344cd1fd0a4f28419497f9722a3daafe3b4186f6b6457e060405160405180910390a35050565b82805462000325906200082b565b90600052602060002090601f01602090048101928262000349576000855562000395565b82601f106200036457805160ff191683800117855562000395565b8280016001018555821562000395579182015b828111156200039457825182559160200191906001019062000377565b5b509050620003a491906200040f565b5090565b828054828255906000526020600020908101928215620003fc579160200282015b82811115620003fb578251829080519060200190620003ea92919062000317565b5091602001919060010190620003c9565b5b5090506200040b91906200042e565b5090565b5b808211156200042a57600081600090555060010162000410565b5090565b5b8082111562000452576000818162000448919062000456565b506001016200042f565b5090565b50805462000464906200082b565b6000825580601f1062000478575062000499565b601f0160209004906000526020600020908101906200049891906200040f565b5b50565b6000620004b3620004ad8462000734565b6200070b565b90508082856020860282011115620004d057620004cf620008fa565b5b60005b858110156200052557815167ffffffffffffffff811115620004fa57620004f9620008f5565b5b808601620005098982620005d8565b85526020850194506020840193505050600181019050620004d3565b5050509392505050565b60006200054662000540846200075d565b6200070b565b905082815260208101848484011115620005655762000564620008ff565b5b62000572848285620007f5565b509392505050565b6000815190506200058b816200091f565b92915050565b600082601f830112620005a957620005a8620008f5565b5b6003620005b88482856200049c565b91505092915050565b600081519050620005d28162000939565b92915050565b600082601f830112620005f057620005ef620008f5565b5b8151620006028482602086016200052f565b91505092915050565b6000815190506200061c8162000953565b92915050565b60008151905062000633816200096d565b92915050565b600080600080600080600060e0888a0312156200065b576200065a62000909565b5b60006200066b8a828b016200057a565b97505060206200067e8a828b0162000622565b9650506040620006918a828b01620005c1565b9550506060620006a48a828b016200060b565b945050608088015167ffffffffffffffff811115620006c857620006c762000904565b5b620006d68a828b0162000591565b93505060a0620006e98a828b016200057a565b92505060c0620006fc8a828b016200057a565b91505092959891949750929550565b6000620007176200072a565b905062000725828262000861565b919050565b6000604051905090565b600067ffffffffffffffff821115620007525762000751620008c6565b5b602082029050919050565b600067ffffffffffffffff8211156200077b576200077a620008c6565b5b62000786826200090e565b9050602081019050919050565b6000620007a082620007b1565b9050919050565b6000819050919050565b600073ffffffffffffffffffffffffffffffffffffffff82169050919050565b600063ffffffff82169050919050565b600067ffffffffffffffff82169050919050565b60005b8381101562000815578082015181840152602081019050620007f8565b8381111562000825576000848401525b50505050565b600060028204905060018216806200084457607f821691505b602082108114156200085b576200085a62000897565b5b50919050565b6200086c826200090e565b810181811067ffffffffffffffff821117156200088e576200088d620008c6565b5b80604052505050565b7f4e487b7100000000000000000000000000000000000000000000000000000000600052602260045260246000fd5b7f4e487b7100000000000000000000000000000000000000000000000000000000600052604160045260246000fd5b600080fd5b600080fd5b600080fd5b600080fd5b600080fd5b6000601f19601f8301169050919050565b6200092a8162000793565b81146200093657600080fd5b50565b6200094481620007a7565b81146200095057600080fd5b50565b6200095e81620007d1565b81146200096a57600080fd5b50565b6200097881620007e1565b81146200098457600080fd5b50565b60805160601c60a05160601c60c05160c01c60e0516101005160e01c6101205160601c6156d9620009f4600039600081816113a301526118fc01526000611c5501526000611c1101526000611c3201526000611bd5015260008181610cc90152610d1d01526156d96000f3fe6080604052600436106102455760003560e01c806370a0823111610139578063a2e18eb7116100b6578063d004b0361161007a578063d004b036146108d5578063d1a6bc8714610912578063e6a4ee151461091c578063e985e9c514610926578063f2fde38b14610963578063f5cb797c1461098c57610245565b8063a2e18eb7146107b5578063b1e5e2b7146107f2578063b88d4fde1461082f578063bdc60bf914610858578063c87b56dd1461089857610245565b80638da5cb5b116100fd5780638da5cb5b146106ce578063919fb5bb146106f957806395d89b41146107365780639e87a5cd14610761578063a22cb4651461078c57610245565b806370a08231146105e7578063715018a6146106245780637c3b18291461063b5780638607d5c91461067857806388916b9a146106a357610245565b80633ccfd60b116101c75780634deea57e1161018b5780634deea57e1461050d578063506805da146105175780635ea83561146105545780636352211e1461057f5780636e02007d146105bc57610245565b80633ccfd60b146104285780633d9ccde01461043f57806341f63bfd1461046a57806342842e0e146104a75780634cf5db48146104d057610245565b8063095ea7b31161020e578063095ea7b3146103575780631fe543e31461038057806323b872dd146103a95780632ce9e693146103d25780632e566b70146103fd57610245565b80627bb9681461024a57806301ffc9a71461028757806305114490146102c457806306fdde03146102ef578063081812fc1461031a575b600080fd5b34801561025657600080fd5b50610271600480360381019061026c91906142c5565b6109b7565b60405161027e9190614c7a565b60405180910390f35b34801561029357600080fd5b506102ae60048036038101906102a991906141e8565b6109cf565b6040516102bb91906149d2565b60405180910390f35b3480156102d057600080fd5b506102d9610ab1565b6040516102e69190614896565b60405180910390f35b3480156102fb57600080fd5b50610304610ad7565b6040516103119190614a76565b60405180910390f35b34801561032657600080fd5b50610341600480360381019061033c91906142c5565b610b69565b60405161034e9190614896565b60405180910390f35b34801561036357600080fd5b5061037e600480360381019061037991906141a8565b610baf565b005b34801561038c57600080fd5b506103a760048036038101906103a2919061431f565b610cc7565b005b3480156103b557600080fd5b506103d060048036038101906103cb9190614092565b610d87565b005b3480156103de57600080fd5b506103e7610de7565b6040516103f49190614c7a565b60405180910390f35b34801561040957600080fd5b50610412610dec565b60405161041f9190614c7a565b60405180910390f35b34801561043457600080fd5b5061043d610e93565b005b34801561044b57600080fd5b50610454610f47565b6040516104619190614c7a565b60405180910390f35b34801561047657600080fd5b50610491600480360381019061048c91906142c5565b610fee565b60405161049e9190614c58565b60405180910390f35b3480156104b357600080fd5b506104ce60048036038101906104c99190614092565b6110dc565b005b3480156104dc57600080fd5b506104f760048036038101906104f291906142c5565b6110fc565b6040516105049190614a76565b60405180910390f35b6105156111ac565b005b34801561052357600080fd5b5061053e600480360381019061053991906142c5565b61139e565b60405161054b9190614c7a565b60405180910390f35b34801561056057600080fd5b50610569611489565b6040516105769190614c7a565b60405180910390f35b34801561058b57600080fd5b506105a660048036038101906105a191906142c5565b61148e565b6040516105b39190614896565b60405180910390f35b3480156105c857600080fd5b506105d1611515565b6040516105de9190614c7a565b60405180910390f35b3480156105f357600080fd5b5061060e60048036038101906106099190614025565b61151f565b60405161061b9190614c7a565b60405180910390f35b34801561063057600080fd5b506106396115d7565b005b34801561064757600080fd5b50610662600480360381019061065d91906142c5565b6115eb565b60405161066f9190614a76565b60405180910390f35b34801561068457600080fd5b5061068d6116ad565b60405161069a9190614a5b565b60405180910390f35b3480156106af57600080fd5b506106b86116d3565b6040516106c59190614c7a565b60405180910390f35b3480156106da57600080fd5b506106e361177a565b6040516106f09190614896565b60405180910390f35b34801561070557600080fd5b50610720600480360381019061071b91906142c5565b6117a4565b60405161072d9190614a76565b60405180910390f35b34801561074257600080fd5b5061074b611866565b6040516107589190614a76565b60405180910390f35b34801561076d57600080fd5b506107766118f8565b6040516107839190614a40565b60405180910390f35b34801561079857600080fd5b506107b360048036038101906107ae9190614168565b611920565b005b3480156107c157600080fd5b506107dc60048036038101906107d791906142c5565b611936565b6040516107e99190614a76565b60405180910390f35b3480156107fe57600080fd5b50610819600480360381019061081491906142c5565b6119f8565b6040516108269190614c7a565b60405180910390f35b34801561083b57600080fd5b50610856600480360381019061085191906140e5565b611d47565b005b34801561086457600080fd5b5061087f600480360381019061087a91906142c5565b611da9565b60405161088f9493929190614cbe565b60405180910390f35b3480156108a457600080fd5b506108bf60048036038101906108ba91906142c5565b611e6e565b6040516108cc9190614a76565b60405180910390f35b3480156108e157600080fd5b506108fc60048036038101906108f79190614025565b611f81565b60405161090991906149b0565b60405180910390f35b61091a612116565b005b610924612308565b005b34801561093257600080fd5b5061094d60048036038101906109489190614052565b6124fa565b60405161095a91906149d2565b60405180910390f35b34801561096f57600080fd5b5061098a60048036038101906109859190614025565b61258e565b005b34801561099857600080fd5b506109a1612612565b6040516109ae9190614c7a565b60405180910390f35b600d6020528060005260406000206000915090505481565b60007f80ac58cd000000000000000000000000000000000000000000000000000000007bffffffffffffffffffffffffffffffffffffffffffffffffffffffff1916827bffffffffffffffffffffffffffffffffffffffffffffffffffffffff19161480610a9a57507f5b5e139f000000000000000000000000000000000000000000000000000000007bffffffffffffffffffffffffffffffffffffffffffffffffffffffff1916827bffffffffffffffffffffffffffffffffffffffffffffffffffffffff1916145b80610aaa5750610aa982612617565b5b9050919050565b600960009054906101000a900473ffffffffffffffffffffffffffffffffffffffff1681565b606060008054610ae690615090565b80601f0160208091040260200160405190810160405280929190818152602001828054610b1290615090565b8015610b5f5780601f10610b3457610100808354040283529160200191610b5f565b820191906000526020600020905b815481529060010190602001808311610b4257829003601f168201915b5050505050905090565b6000610b7482612681565b6004600083815260200190815260200160002060009054906101000a900473ffffffffffffffffffffffffffffffffffffffff169050919050565b6000610bba8261148e565b90508073ffffffffffffffffffffffffffffffffffffffff168373ffffffffffffffffffffffffffffffffffffffff161415610c2b576040517f08c379a0000000000000000000000000000000000000000000000000000000008152600401610c2290614c18565b60405180910390fd5b8073ffffffffffffffffffffffffffffffffffffffff16610c4a6126cc565b73ffffffffffffffffffffffffffffffffffffffff161480610c795750610c7881610c736126cc565b6124fa565b5b610cb8576040517f08c379a0000000000000000000000000000000000000000000000000000000008152600401610caf90614c38565b60405180910390fd5b610cc283836126d4565b505050565b7f000000000000000000000000000000000000000000000000000000000000000073ffffffffffffffffffffffffffffffffffffffff163373ffffffffffffffffffffffffffffffffffffffff1614610d7957337f00000000000000000000000000000000000000000000000000000000000000006040517f1cf993f4000000000000000000000000000000000000000000000000000000008152600401610d709291906148b1565b60405180910390fd5b610d83828261278d565b5050565b610d98610d926126cc565b82612e9d565b610dd7576040517f08c379a0000000000000000000000000000000000000000000000000000000008152600401610dce90614a98565b60405180910390fd5b610de2838383612f32565b505050565b603281565b6000600860009054906101000a900473ffffffffffffffffffffffffffffffffffffffff1673ffffffffffffffffffffffffffffffffffffffff166365c889db6040518163ffffffff1660e01b815260040160206040518083038186803b158015610e5657600080fd5b505afa158015610e6a573d6000803e3d6000fd5b505050506040513d601f19601f82011682018060405250810190610e8e91906142f2565b905090565b610e9b61322c565b600047905060003373ffffffffffffffffffffffffffffffffffffffff1682604051610ec690614881565b60006040518083038185875af1925050503d8060008114610f03576040519150601f19603f3d011682016040523d82523d6000602084013e610f08565b606091505b5050905080610f43576040517f794e4b8400000000000000000000000000000000000000000000000000000000815260040160405180910390fd5b5050565b6000600860009054906101000a900473ffffffffffffffffffffffffffffffffffffffff1673ffffffffffffffffffffffffffffffffffffffff166371be70026040518163ffffffff1660e01b815260040160206040518083038186803b158015610fb157600080fd5b505afa158015610fc5573d6000803e3d6000fd5b505050506040513d601f19601f82011682018060405250810190610fe991906142f2565b905090565b610ff6613d32565b600c60008381526020019081526020016000206040518060800160405290816000820154815260200160018201805461102e90615090565b80601f016020809104026020016040519081016040528092919081815260200182805461105a90615090565b80156110a75780601f1061107c576101008083540402835291602001916110a7565b820191906000526020600020905b81548152906001019060200180831161108a57829003601f168201915b505050505081526020016002820160009054906101000a900460ff161515151581526020016003820154815250509050919050565b6110f783838360405180602001604052806000815250611d47565b505050565b6060600b8281548110611112576111116151fa565b5b90600052602060002001805461112790615090565b80601f016020809104026020016040519081016040528092919081815260200182805461115390615090565b80156111a05780601f10611175576101008083540402835291602001916111a0565b820191906000526020600020905b81548152906001019060200180831161118357829003601f168201915b50505050509050919050565b60006111b8606461139e565b9050803410156111f4576040517fc5f39e8700000000000000000000000000000000000000000000000000000000815260040160405180910390fd5b6000600a5490506001600a5461120a9190614e55565b600a8190555061121a33826132aa565b6000600b600281548110611231576112306151fa565b5b90600052602060002001805461124690615090565b80601f016020809104026020016040519081016040528092919081815260200182805461127290615090565b80156112bf5780601f10611294576101008083540402835291602001916112bf565b820191906000526020600020905b8154815290600101906020018083116112a257829003601f168201915b505050505090506112d082826132c8565b60405180608001604052808381526020018281526020016000151581526020016002815250600c600084815260200190815260200160002060008201518160000155602082015181600101908051906020019061132e929190613d5c565b5060408201518160020160006101000a81548160ff021916908315150217905550606082015181600301559050507fe513c5910a384615e43cb8685907bf71b6085f60bc3ee2647ba3b09780f609c8338383866040516113919493929190614964565b60405180910390a1505050565b6000807f000000000000000000000000000000000000000000000000000000000000000073ffffffffffffffffffffffffffffffffffffffff1663feaf968c6040518163ffffffff1660e01b815260040160a06040518083038186803b15801561140757600080fd5b505afa15801561141b573d6000803e3d6000fd5b505050506040513d601f19601f8201168201806040525081019061143f919061437b565b50505091505060006402540be400826114589190614edc565b6ec097ce7bc90715b34b9f1000000000856114739190614edc565b61147d9190614eab565b90508092505050919050565b600a81565b60008061149a8361333c565b9050600073ffffffffffffffffffffffffffffffffffffffff168173ffffffffffffffffffffffffffffffffffffffff16141561150c576040517f08c379a000000000000000000000000000000000000000000000000000000000815260040161150390614bf8565b60405180910390fd5b80915050919050565b6000600a54905090565b60008073ffffffffffffffffffffffffffffffffffffffff168273ffffffffffffffffffffffffffffffffffffffff161415611590576040517f08c379a000000000000000000000000000000000000000000000000000000000815260040161158790614b78565b60405180910390fd5b600360008373ffffffffffffffffffffffffffffffffffffffff1673ffffffffffffffffffffffffffffffffffffffff168152602001908152602001600020549050919050565b6115df61322c565b6115e96000613379565b565b60606000600860009054906101000a900473ffffffffffffffffffffffffffffffffffffffff1673ffffffffffffffffffffffffffffffffffffffff1663cff2c359846040518263ffffffff1660e01b815260040161164a9190614c7a565b60006040518083038186803b15801561166257600080fd5b505afa158015611676573d6000803e3d6000fd5b505050506040513d6000823e3d601f19601f8201168201806040525081019061169f9190614242565b505050905080915050919050565b600860009054906101000a900473ffffffffffffffffffffffffffffffffffffffff1681565b6000600860009054906101000a900473ffffffffffffffffffffffffffffffffffffffff1673ffffffffffffffffffffffffffffffffffffffff16630a83de166040518163ffffffff1660e01b815260040160206040518083038186803b15801561173d57600080fd5b505afa158015611751573d6000803e3d6000fd5b505050506040513d601f19601f8201168201806040525081019061177591906142f2565b905090565b6000600760009054906101000a900473ffffffffffffffffffffffffffffffffffffffff16905090565b60606000600860009054906101000a900473ffffffffffffffffffffffffffffffffffffffff1673ffffffffffffffffffffffffffffffffffffffff16634132607b846040518263ffffffff1660e01b81526004016118039190614c7a565b60006040518083038186803b15801561181b57600080fd5b505afa15801561182f573d6000803e3d6000fd5b505050506040513d6000823e3d601f19601f820116820180604052508101906118589190614242565b505050905080915050919050565b60606001805461187590615090565b80601f01602080910402602001604051908101604052809291908181526020018280546118a190615090565b80156118ee5780601f106118c3576101008083540402835291602001916118ee565b820191906000526020600020905b8154815290600101906020018083116118d157829003601f168201915b5050505050905090565b60007f0000000000000000000000000000000000000000000000000000000000000000905090565b61193261192b6126cc565b838361343f565b5050565b60606000600860009054906101000a900473ffffffffffffffffffffffffffffffffffffffff1673ffffffffffffffffffffffffffffffffffffffff16639cfa7daa846040518263ffffffff1660e01b81526004016119959190614c7a565b60006040518083038186803b1580156119ad57600080fd5b505afa1580156119c1573d6000803e3d6000fd5b505050506040513d6000823e3d601f19601f820116820180604052508101906119ea9190614242565b505050905080915050919050565b600033826000611a07826135ac565b905080611a40576040517f12f49e5300000000000000000000000000000000000000000000000000000000815260040160405180910390fd5b84336000611a4d8361148e565b90508073ffffffffffffffffffffffffffffffffffffffff168273ffffffffffffffffffffffffffffffffffffffff1614611ab4576040517fa73ec3bd00000000000000000000000000000000000000000000000000000000815260040160405180910390fd5b6000600c60008a815260200190815260200160002060405180608001604052908160008201548152602001600182018054611aee90615090565b80601f0160208091040260200160405190810160405280929190818152602001828054611b1a90615090565b8015611b675780601f10611b3c57610100808354040283529160200191611b67565b820191906000526020600020905b815481529060010190602001808311611b4a57829003601f168201915b505050505081526020016002820160009054906101000a900460ff161515151581526020016003820154815250509050806040015115611bd3576040517f3da741a900000000000000000000000000000000000000000000000000000000815260040160405180910390fd5b7f000000000000000000000000000000000000000000000000000000000000000073ffffffffffffffffffffffffffffffffffffffff16635d3b1d307f00000000000000000000000000000000000000000000000000000000000000007f000000000000000000000000000000000000000000000000000000000000000060037f000000000000000000000000000000000000000000000000000000000000000060016040518663ffffffff1660e01b8152600401611c969594939291906149ed565b602060405180830381600087803b158015611cb057600080fd5b505af1158015611cc4573d6000803e3d6000fd5b505050506040513d601f19601f82011682018060405250810190611ce891906142f2565b975088600d60008a8152602001908152602001600020819055507f39e3d8a7823bfbcd1ff6aae964c13271c920ce4daa29adbe83ebe7753dd027d98833604051611d33929190614c95565b60405180910390a150505050505050919050565b611d58611d526126cc565b83612e9d565b611d97576040517f08c379a0000000000000000000000000000000000000000000000000000000008152600401611d8e90614a98565b60405180910390fd5b611da3848484846135ed565b50505050565b600c602052806000526040600020600091509050806000015490806001018054611dd290615090565b80601f0160208091040260200160405190810160405280929190818152602001828054611dfe90615090565b8015611e4b5780601f10611e2057610100808354040283529160200191611e4b565b820191906000526020600020905b815481529060010190602001808311611e2e57829003601f168201915b5050505050908060020160009054906101000a900460ff16908060030154905084565b6060611e7982612681565b6000600660008481526020019081526020016000208054611e9990615090565b80601f0160208091040260200160405190810160405280929190818152602001828054611ec590615090565b8015611f125780601f10611ee757610100808354040283529160200191611f12565b820191906000526020600020905b815481529060010190602001808311611ef557829003601f168201915b505050505090506000611f23613649565b9050600081511415611f39578192505050611f7c565b600082511115611f6e578082604051602001611f5692919061485d565b60405160208183030381529060405292505050611f7c565b611f7784613660565b925050505b919050565b60606000600a5467ffffffffffffffff811115611fa157611fa0615229565b5b604051908082528060200260200182016040528015611fcf5781602001602082028036833780820191505090505b5090506000805b600a54811015612064576000611feb8261148e565b90508573ffffffffffffffffffffffffffffffffffffffff168173ffffffffffffffffffffffffffffffffffffffff1614156120505781848481518110612035576120346151fa565b5b602002602001018181525050828061204c906150f3565b9350505b50808061205c906150f3565b915050611fd6565b5060008167ffffffffffffffff81111561208157612080615229565b5b6040519080825280602002602001820160405280156120af5781602001602082028036833780820191505090505b50905060005b8281101561210a578381815181106120d0576120cf6151fa565b5b60200260200101518282815181106120eb576120ea6151fa565b5b6020026020010181815250508080612102906150f3565b9150506120b5565b50809350505050919050565b6000612122603261139e565b90508034101561215e576040517fc5f39e8700000000000000000000000000000000000000000000000000000000815260040160405180910390fd5b6000600a5490506001600a546121749190614e55565b600a8190555061218433826132aa565b6000600b60018154811061219b5761219a6151fa565b5b9060005260206000200180546121b090615090565b80601f01602080910402602001604051908101604052809291908181526020018280546121dc90615090565b80156122295780601f106121fe57610100808354040283529160200191612229565b820191906000526020600020905b81548152906001019060200180831161220c57829003601f168201915b5050505050905061223a82826132c8565b60405180608001604052808381526020018281526020016000151581526020016001815250600c6000848152602001908152602001600020600082015181600001556020820151816001019080519060200190612298929190613d5c565b5060408201518160020160006101000a81548160ff021916908315150217905550606082015181600301559050507f43affea23111096b9eb47b0e4411d29149f6004e1b65322b46eeb358794e289f338383866040516122fb9493929190614964565b60405180910390a1505050565b6000612314600a61139e565b905080341015612350576040517fc5f39e8700000000000000000000000000000000000000000000000000000000815260040160405180910390fd5b6000600a5490506001600a546123669190614e55565b600a8190555061237633826132aa565b6000600b60008154811061238d5761238c6151fa565b5b9060005260206000200180546123a290615090565b80601f01602080910402602001604051908101604052809291908181526020018280546123ce90615090565b801561241b5780601f106123f05761010080835404028352916020019161241b565b820191906000526020600020905b8154815290600101906020018083116123fe57829003601f168201915b5050505050905061242c82826132c8565b60405180608001604052808381526020018281526020016000151581526020016000815250600c600084815260200190815260200160002060008201518160000155602082015181600101908051906020019061248a929190613d5c565b5060408201518160020160006101000a81548160ff021916908315150217905550606082015181600301559050507f3ddbe03baaaad5c81cfd7b4a1b40247d916ea64e64b4b697c1343586ccc8d3c8338383866040516124ed9493929190614964565b60405180910390a1505050565b6000600560008473ffffffffffffffffffffffffffffffffffffffff1673ffffffffffffffffffffffffffffffffffffffff16815260200190815260200160002060008373ffffffffffffffffffffffffffffffffffffffff1673ffffffffffffffffffffffffffffffffffffffff16815260200190815260200160002060009054906101000a900460ff16905092915050565b61259661322c565b600073ffffffffffffffffffffffffffffffffffffffff168173ffffffffffffffffffffffffffffffffffffffff161415612606576040517f08c379a00000000000000000000000000000000000000000000000000000000081526004016125fd90614ad8565b60405180910390fd5b61260f81613379565b50565b606481565b60007f01ffc9a7000000000000000000000000000000000000000000000000000000007bffffffffffffffffffffffffffffffffffffffffffffffffffffffff1916827bffffffffffffffffffffffffffffffffffffffffffffffffffffffff1916149050919050565b61268a816135ac565b6126c9576040517f08c379a00000000000000000000000000000000000000000000000000000000081526004016126c090614bf8565b60405180910390fd5b50565b600033905090565b816004600083815260200190815260200160002060006101000a81548173ffffffffffffffffffffffffffffffffffffffff021916908373ffffffffffffffffffffffffffffffffffffffff160217905550808273ffffffffffffffffffffffffffffffffffffffff166127478361148e565b73ffffffffffffffffffffffffffffffffffffffff167f8c5be1e5ebec7d5bd14f71427d1e84f3dd0314c0f7b2291e5b200ac8c7c3b92560405160405180910390a45050565b6000600d60008481526020019081526020016000205490506000600c6000838152602001908152602001600020604051806080016040529081600082015481526020016001820180546127df90615090565b80601f016020809104026020016040519081016040528092919081815260200182805461280b90615090565b80156128585780601f1061282d57610100808354040283529160200191612858565b820191906000526020600020905b81548152906001019060200180831161283b57829003601f168201915b505050505081526020016002820160009054906101000a900460ff1615151515815260200160038201548152505090508060400151156128c4576040517f3da741a900000000000000000000000000000000000000000000000000000000815260040160405180910390fd5b6060600082606001511415612a5e576000600860009054906101000a900473ffffffffffffffffffffffffffffffffffffffff1673ffffffffffffffffffffffffffffffffffffffff166365c889db6040518163ffffffff1660e01b815260040160206040518083038186803b15801561293d57600080fd5b505afa158015612951573d6000803e3d6000fd5b505050506040513d601f19601f8201168201806040525081019061297591906142f2565b85600081518110612989576129886151fa565b5b602002602001015161299b919061513c565b90506000600860009054906101000a900473ffffffffffffffffffffffffffffffffffffffff1673ffffffffffffffffffffffffffffffffffffffff16634132607b836040518263ffffffff1660e01b81526004016129fa9190614c7a565b60006040518083038186803b158015612a1257600080fd5b505afa158015612a26573d6000803e3d6000fd5b505050506040513d6000823e3d601f19601f82011682018060405250810190612a4f9190614242565b50505090508092505050612dc2565b600182606001511415612bf6576000600860009054906101000a900473ffffffffffffffffffffffffffffffffffffffff1673ffffffffffffffffffffffffffffffffffffffff16630a83de166040518163ffffffff1660e01b815260040160206040518083038186803b158015612ad557600080fd5b505afa158015612ae9573d6000803e3d6000fd5b505050506040513d601f19601f82011682018060405250810190612b0d91906142f2565b85600081518110612b2157612b206151fa565b5b6020026020010151612b33919061513c565b90506000600860009054906101000a900473ffffffffffffffffffffffffffffffffffffffff1673ffffffffffffffffffffffffffffffffffffffff1663cff2c359836040518263ffffffff1660e01b8152600401612b929190614c7a565b60006040518083038186803b158015612baa57600080fd5b505afa158015612bbe573d6000803e3d6000fd5b505050506040513d6000823e3d601f19601f82011682018060405250810190612be79190614242565b50505090508092505050612dc1565b600282606001511415612d8e576000600860009054906101000a900473ffffffffffffffffffffffffffffffffffffffff1673ffffffffffffffffffffffffffffffffffffffff166371be70026040518163ffffffff1660e01b815260040160206040518083038186803b158015612c6d57600080fd5b505afa158015612c81573d6000803e3d6000fd5b505050506040513d601f19601f82011682018060405250810190612ca591906142f2565b85600081518110612cb957612cb86151fa565b5b6020026020010151612ccb919061513c565b90506000600860009054906101000a900473ffffffffffffffffffffffffffffffffffffffff1673ffffffffffffffffffffffffffffffffffffffff16639cfa7daa836040518263ffffffff1660e01b8152600401612d2a9190614c7a565b60006040518083038186803b158015612d4257600080fd5b505afa158015612d56573d6000803e3d6000fd5b505050506040513d6000823e3d601f19601f82011682018060405250810190612d7f9190614242565b50505090508092505050612dc0565b6040517f3da741a900000000000000000000000000000000000000000000000000000000815260040160405180910390fd5b5b5b60405180608001604052808481526020018281526020016001151581526020018360600151815250600c6000858152602001908152602001600020600082015181600001556020820151816001019080519060200190612e23929190613d5c565b5060408201518160020160006101000a81548160ff02191690831515021790555060608201518160030155905050612e5b83826132c8565b7fb6ca0e5b4bb519e8867fd94662ddbd0f8ca710a53df4328fcbfa257e1e9630a0338483604051612e8e93929190614926565b60405180910390a15050505050565b600080612ea98361148e565b90508073ffffffffffffffffffffffffffffffffffffffff168473ffffffffffffffffffffffffffffffffffffffff161480612eeb5750612eea81856124fa565b5b80612f2957508373ffffffffffffffffffffffffffffffffffffffff16612f1184610b69565b73ffffffffffffffffffffffffffffffffffffffff16145b91505092915050565b8273ffffffffffffffffffffffffffffffffffffffff16612f528261148e565b73ffffffffffffffffffffffffffffffffffffffff1614612fa8576040517f08c379a0000000000000000000000000000000000000000000000000000000008152600401612f9f90614af8565b60405180910390fd5b600073ffffffffffffffffffffffffffffffffffffffff168273ffffffffffffffffffffffffffffffffffffffff161415613018576040517f08c379a000000000000000000000000000000000000000000000000000000000815260040161300f90614b38565b60405180910390fd5b61302583838360016136c8565b8273ffffffffffffffffffffffffffffffffffffffff166130458261148e565b73ffffffffffffffffffffffffffffffffffffffff161461309b576040517f08c379a000000000000000000000000000000000000000000000000000000000815260040161309290614af8565b60405180910390fd5b6004600082815260200190815260200160002060006101000a81549073ffffffffffffffffffffffffffffffffffffffff02191690556001600360008573ffffffffffffffffffffffffffffffffffffffff1673ffffffffffffffffffffffffffffffffffffffff168152602001908152602001600020600082825403925050819055506001600360008473ffffffffffffffffffffffffffffffffffffffff1673ffffffffffffffffffffffffffffffffffffffff16815260200190815260200160002060008282540192505081905550816002600083815260200190815260200160002060006101000a81548173ffffffffffffffffffffffffffffffffffffffff021916908373ffffffffffffffffffffffffffffffffffffffff160217905550808273ffffffffffffffffffffffffffffffffffffffff168473ffffffffffffffffffffffffffffffffffffffff167fddf252ad1be2c89b69c2b068fc378daa952ba7f163c4a11628f55a4df523b3ef60405160405180910390a461322783838360016136ce565b505050565b6132346126cc565b73ffffffffffffffffffffffffffffffffffffffff1661325261177a565b73ffffffffffffffffffffffffffffffffffffffff16146132a8576040517f08c379a000000000000000000000000000000000000000000000000000000000815260040161329f90614bd8565b60405180910390fd5b565b6132c48282604051806020016040528060008152506136d4565b5050565b6132d1826135ac565b613310576040517f08c379a000000000000000000000000000000000000000000000000000000000815260040161330790614b98565b60405180910390fd5b80600660008481526020019081526020016000209080519060200190613337929190613d5c565b505050565b60006002600083815260200190815260200160002060009054906101000a900473ffffffffffffffffffffffffffffffffffffffff169050919050565b6000600760009054906101000a900473ffffffffffffffffffffffffffffffffffffffff16905081600760006101000a81548173ffffffffffffffffffffffffffffffffffffffff021916908373ffffffffffffffffffffffffffffffffffffffff1602179055508173ffffffffffffffffffffffffffffffffffffffff168173ffffffffffffffffffffffffffffffffffffffff167f8be0079c531659141344cd1fd0a4f28419497f9722a3daafe3b4186f6b6457e060405160405180910390a35050565b8173ffffffffffffffffffffffffffffffffffffffff168373ffffffffffffffffffffffffffffffffffffffff1614156134ae576040517f08c379a00000000000000000000000000000000000000000000000000000000081526004016134a590614b58565b60405180910390fd5b80600560008573ffffffffffffffffffffffffffffffffffffffff1673ffffffffffffffffffffffffffffffffffffffff16815260200190815260200160002060008473ffffffffffffffffffffffffffffffffffffffff1673ffffffffffffffffffffffffffffffffffffffff16815260200190815260200160002060006101000a81548160ff0219169083151502179055508173ffffffffffffffffffffffffffffffffffffffff168373ffffffffffffffffffffffffffffffffffffffff167f17307eab39ab6107e8899845ad3d59bd9653f200f220920489ca2b5937696c318360405161359f91906149d2565b60405180910390a3505050565b60008073ffffffffffffffffffffffffffffffffffffffff166135ce8361333c565b73ffffffffffffffffffffffffffffffffffffffff1614159050919050565b6135f8848484612f32565b6136048484848461372f565b613643576040517f08c379a000000000000000000000000000000000000000000000000000000000815260040161363a90614ab8565b60405180910390fd5b50505050565b606060405180602001604052806000815250905090565b606061366b82612681565b6000613675613649565b9050600081511161369557604051806020016040528060008152506136c0565b8061369f846138c6565b6040516020016136b092919061485d565b6040516020818303038152906040525b915050919050565b50505050565b50505050565b6136de838361399e565b6136eb600084848461372f565b61372a576040517f08c379a000000000000000000000000000000000000000000000000000000000815260040161372190614ab8565b60405180910390fd5b505050565b60006137508473ffffffffffffffffffffffffffffffffffffffff16613bbc565b156138b9578373ffffffffffffffffffffffffffffffffffffffff1663150b7a026137796126cc565b8786866040518563ffffffff1660e01b815260040161379b94939291906148da565b602060405180830381600087803b1580156137b557600080fd5b505af19250505080156137e657506040513d601f19601f820116820180604052508101906137e39190614215565b60015b613869573d8060008114613816576040519150601f19603f3d011682016040523d82523d6000602084013e61381b565b606091505b50600081511415613861576040517f08c379a000000000000000000000000000000000000000000000000000000000815260040161385890614ab8565b60405180910390fd5b805181602001fd5b63150b7a0260e01b7bffffffffffffffffffffffffffffffffffffffffffffffffffffffff1916817bffffffffffffffffffffffffffffffffffffffffffffffffffffffff1916149150506138be565b600190505b949350505050565b6060600060016138d584613bdf565b01905060008167ffffffffffffffff8111156138f4576138f3615229565b5b6040519080825280601f01601f1916602001820160405280156139265781602001600182028036833780820191505090505b509050600082602001820190505b600115613993578080600190039150507f3031323334353637383961626364656600000000000000000000000000000000600a86061a8153600a858161397d5761397c61519c565b5b049450600085141561398e57613993565b613934565b819350505050919050565b600073ffffffffffffffffffffffffffffffffffffffff168273ffffffffffffffffffffffffffffffffffffffff161415613a0e576040517f08c379a0000000000000000000000000000000000000000000000000000000008152600401613a0590614bb8565b60405180910390fd5b613a17816135ac565b15613a57576040517f08c379a0000000000000000000000000000000000000000000000000000000008152600401613a4e90614b18565b60405180910390fd5b613a656000838360016136c8565b613a6e816135ac565b15613aae576040517f08c379a0000000000000000000000000000000000000000000000000000000008152600401613aa590614b18565b60405180910390fd5b6001600360008473ffffffffffffffffffffffffffffffffffffffff1673ffffffffffffffffffffffffffffffffffffffff16815260200190815260200160002060008282540192505081905550816002600083815260200190815260200160002060006101000a81548173ffffffffffffffffffffffffffffffffffffffff021916908373ffffffffffffffffffffffffffffffffffffffff160217905550808273ffffffffffffffffffffffffffffffffffffffff16600073ffffffffffffffffffffffffffffffffffffffff167fddf252ad1be2c89b69c2b068fc378daa952ba7f163c4a11628f55a4df523b3ef60405160405180910390a4613bb86000838360016136ce565b5050565b6000808273ffffffffffffffffffffffffffffffffffffffff163b119050919050565b600080600090507a184f03e93ff9f4daa797ed6e38ed64bf6a1f0100000000000000008310613c3d577a184f03e93ff9f4daa797ed6e38ed64bf6a1f0100000000000000008381613c3357613c3261519c565b5b0492506040810190505b6d04ee2d6d415b85acef81000000008310613c7a576d04ee2d6d415b85acef81000000008381613c7057613c6f61519c565b5b0492506020810190505b662386f26fc100008310613ca957662386f26fc100008381613c9f57613c9e61519c565b5b0492506010810190505b6305f5e1008310613cd2576305f5e1008381613cc857613cc761519c565b5b0492506008810190505b6127108310613cf7576127108381613ced57613cec61519c565b5b0492506004810190505b60648310613d1a5760648381613d1057613d0f61519c565b5b0492506002810190505b600a8310613d29576001810190505b80915050919050565b60405180608001604052806000815260200160608152602001600015158152602001600081525090565b828054613d6890615090565b90600052602060002090601f016020900481019282613d8a5760008555613dd1565b82601f10613da357805160ff1916838001178555613dd1565b82800160010185558215613dd1579182015b82811115613dd0578251825591602001919060010190613db5565b5b509050613dde9190613de2565b5090565b5b80821115613dfb576000816000905550600101613de3565b5090565b6000613e12613e0d84614d2f565b614d0a565b90508083825260208201905082856020860282011115613e3557613e3461525d565b5b60005b85811015613e655781613e4b8882613fe6565b845260208401935060208301925050600181019050613e38565b5050509392505050565b6000613e82613e7d84614d5b565b614d0a565b905082815260208101848484011115613e9e57613e9d615262565b5b613ea984828561504e565b509392505050565b6000613ec4613ebf84614d8c565b614d0a565b905082815260208101848484011115613ee057613edf615262565b5b613eeb84828561505d565b509392505050565b600081359050613f0281615619565b92915050565b600082601f830112613f1d57613f1c615258565b5b8135613f2d848260208601613dff565b91505092915050565b600081359050613f4581615630565b92915050565b600081359050613f5a81615647565b92915050565b600081519050613f6f81615647565b92915050565b600082601f830112613f8a57613f89615258565b5b8135613f9a848260208601613e6f565b91505092915050565b600081519050613fb28161565e565b92915050565b600082601f830112613fcd57613fcc615258565b5b8151613fdd848260208601613eb1565b91505092915050565b600081359050613ff581615675565b92915050565b60008151905061400a81615675565b92915050565b60008151905061401f8161568c565b92915050565b60006020828403121561403b5761403a61526c565b5b600061404984828501613ef3565b91505092915050565b600080604083850312156140695761406861526c565b5b600061407785828601613ef3565b925050602061408885828601613ef3565b9150509250929050565b6000806000606084860312156140ab576140aa61526c565b5b60006140b986828701613ef3565b93505060206140ca86828701613ef3565b92505060406140db86828701613fe6565b9150509250925092565b600080600080608085870312156140ff576140fe61526c565b5b600061410d87828801613ef3565b945050602061411e87828801613ef3565b935050604061412f87828801613fe6565b925050606085013567ffffffffffffffff8111156141505761414f615267565b5b61415c87828801613f75565b91505092959194509250565b6000806040838503121561417f5761417e61526c565b5b600061418d85828601613ef3565b925050602061419e85828601613f36565b9150509250929050565b600080604083850312156141bf576141be61526c565b5b60006141cd85828601613ef3565b92505060206141de85828601613fe6565b9150509250929050565b6000602082840312156141fe576141fd61526c565b5b600061420c84828501613f4b565b91505092915050565b60006020828403121561422b5761422a61526c565b5b600061423984828501613f60565b91505092915050565b6000806000806080858703121561425c5761425b61526c565b5b600085015167ffffffffffffffff81111561427a57614279615267565b5b61428687828801613fb8565b945050602061429787828801613ffb565b93505060406142a887828801613ffb565b92505060606142b987828801613ffb565b91505092959194509250565b6000602082840312156142db576142da61526c565b5b60006142e984828501613fe6565b91505092915050565b6000602082840312156143085761430761526c565b5b600061431684828501613ffb565b91505092915050565b600080604083850312156143365761433561526c565b5b600061434485828601613fe6565b925050602083013567ffffffffffffffff81111561436557614364615267565b5b61437185828601613f08565b9150509250929050565b600080600080600060a086880312156143975761439661526c565b5b60006143a588828901614010565b95505060206143b688828901613fa3565b94505060406143c788828901613ffb565b93505060606143d888828901613ffb565b92505060806143e988828901614010565b9150509295509295909350565b60006144028383614821565b60208301905092915050565b61441781614f36565b82525050565b600061442882614dcd565b6144328185614dfb565b935061443d83614dbd565b8060005b8381101561446e57815161445588826143f6565b975061446083614dee565b925050600181019050614441565b5085935050505092915050565b61448481614f48565b82525050565b61449381614f48565b82525050565b6144a281614f54565b82525050565b60006144b382614dd8565b6144bd8185614e0c565b93506144cd81856020860161505d565b6144d681615271565b840191505092915050565b6144ea81615006565b82525050565b6144f981615018565b82525050565b600061450a82614de3565b6145148185614e28565b935061452481856020860161505d565b61452d81615271565b840191505092915050565b600061454382614de3565b61454d8185614e39565b935061455d81856020860161505d565b61456681615271565b840191505092915050565b600061457c82614de3565b6145868185614e4a565b935061459681856020860161505d565b80840191505092915050565b60006145af602d83614e39565b91506145ba82615282565b604082019050919050565b60006145d2603283614e39565b91506145dd826152d1565b604082019050919050565b60006145f5602683614e39565b915061460082615320565b604082019050919050565b6000614618602583614e39565b91506146238261536f565b604082019050919050565b600061463b601c83614e39565b9150614646826153be565b602082019050919050565b600061465e602483614e39565b9150614669826153e7565b604082019050919050565b6000614681601983614e39565b915061468c82615436565b602082019050919050565b60006146a4602983614e39565b91506146af8261545f565b604082019050919050565b60006146c7602e83614e39565b91506146d2826154ae565b604082019050919050565b60006146ea602083614e39565b91506146f5826154fd565b602082019050919050565b600061470d602083614e39565b915061471882615526565b602082019050919050565b6000614730601883614e39565b915061473b8261554f565b602082019050919050565b6000614753602183614e39565b915061475e82615578565b604082019050919050565b6000614776600083614e1d565b9150614781826155c7565b600082019050919050565b6000614799603d83614e39565b91506147a4826155ca565b604082019050919050565b60006080830160008301516147c76000860182614821565b50602083015184820360208601526147df82826144ff565b91505060408301516147f4604086018261447b565b5060608301516148076060860182614821565b508091505092915050565b61481b81614f94565b82525050565b61482a81614fc2565b82525050565b61483981614fc2565b82525050565b61484881614fcc565b82525050565b61485781614fdc565b82525050565b60006148698285614571565b91506148758284614571565b91508190509392505050565b600061488c82614769565b9150819050919050565b60006020820190506148ab600083018461440e565b92915050565b60006040820190506148c6600083018561440e565b6148d3602083018461440e565b9392505050565b60006080820190506148ef600083018761440e565b6148fc602083018661440e565b6149096040830185614830565b818103606083015261491b81846144a8565b905095945050505050565b600060608201905061493b600083018661440e565b6149486020830185614830565b818103604083015261495a8184614538565b9050949350505050565b6000608082019050614979600083018761440e565b6149866020830186614830565b81810360408301526149988185614538565b90506149a76060830184614830565b95945050505050565b600060208201905081810360008301526149ca818461441d565b905092915050565b60006020820190506149e7600083018461448a565b92915050565b600060a082019050614a026000830188614499565b614a0f602083018761484e565b614a1c6040830186614812565b614a29606083018561483f565b614a36608083018461483f565b9695505050505050565b6000602082019050614a5560008301846144e1565b92915050565b6000602082019050614a7060008301846144f0565b92915050565b60006020820190508181036000830152614a908184614538565b905092915050565b60006020820190508181036000830152614ab1816145a2565b9050919050565b60006020820190508181036000830152614ad1816145c5565b9050919050565b60006020820190508181036000830152614af1816145e8565b9050919050565b60006020820190508181036000830152614b118161460b565b9050919050565b60006020820190508181036000830152614b318161462e565b9050919050565b60006020820190508181036000830152614b5181614651565b9050919050565b60006020820190508181036000830152614b7181614674565b9050919050565b60006020820190508181036000830152614b9181614697565b9050919050565b60006020820190508181036000830152614bb1816146ba565b9050919050565b60006020820190508181036000830152614bd1816146dd565b9050919050565b60006020820190508181036000830152614bf181614700565b9050919050565b60006020820190508181036000830152614c1181614723565b9050919050565b60006020820190508181036000830152614c3181614746565b9050919050565b60006020820190508181036000830152614c518161478c565b9050919050565b60006020820190508181036000830152614c7281846147af565b905092915050565b6000602082019050614c8f6000830184614830565b92915050565b6000604082019050614caa6000830185614830565b614cb7602083018461440e565b9392505050565b6000608082019050614cd36000830187614830565b8181036020830152614ce58186614538565b9050614cf4604083018561448a565b614d016060830184614830565b95945050505050565b6000614d14614d25565b9050614d2082826150c2565b919050565b6000604051905090565b600067ffffffffffffffff821115614d4a57614d49615229565b5b602082029050602081019050919050565b600067ffffffffffffffff821115614d7657614d75615229565b5b614d7f82615271565b9050602081019050919050565b600067ffffffffffffffff821115614da757614da6615229565b5b614db082615271565b9050602081019050919050565b6000819050602082019050919050565b600081519050919050565b600081519050919050565b600081519050919050565b6000602082019050919050565b600082825260208201905092915050565b600082825260208201905092915050565b600081905092915050565b600082825260208201905092915050565b600082825260208201905092915050565b600081905092915050565b6000614e6082614fc2565b9150614e6b83614fc2565b9250827fffffffffffffffffffffffffffffffffffffffffffffffffffffffffffffffff03821115614ea057614e9f61516d565b5b828201905092915050565b6000614eb682614fc2565b9150614ec183614fc2565b925082614ed157614ed061519c565b5b828204905092915050565b6000614ee782614fc2565b9150614ef283614fc2565b9250817fffffffffffffffffffffffffffffffffffffffffffffffffffffffffffffffff0483118215151615614f2b57614f2a61516d565b5b828202905092915050565b6000614f4182614fa2565b9050919050565b60008115159050919050565b6000819050919050565b60007fffffffff0000000000000000000000000000000000000000000000000000000082169050919050565b6000819050919050565b600061ffff82169050919050565b600073ffffffffffffffffffffffffffffffffffffffff82169050919050565b6000819050919050565b600063ffffffff82169050919050565b600067ffffffffffffffff82169050919050565b600069ffffffffffffffffffff82169050919050565b60006150118261502a565b9050919050565b60006150238261502a565b9050919050565b60006150358261503c565b9050919050565b600061504782614fa2565b9050919050565b82818337600083830152505050565b60005b8381101561507b578082015181840152602081019050615060565b8381111561508a576000848401525b50505050565b600060028204905060018216806150a857607f821691505b602082108114156150bc576150bb6151cb565b5b50919050565b6150cb82615271565b810181811067ffffffffffffffff821117156150ea576150e9615229565b5b80604052505050565b60006150fe82614fc2565b91507fffffffffffffffffffffffffffffffffffffffffffffffffffffffffffffffff8214156151315761513061516d565b5b600182019050919050565b600061514782614fc2565b915061515283614fc2565b9250826151625761516161519c565b5b828206905092915050565b7f4e487b7100000000000000000000000000000000000000000000000000000000600052601160045260246000fd5b7f4e487b7100000000000000000000000000000000000000000000000000000000600052601260045260246000fd5b7f4e487b7100000000000000000000000000000000000000000000000000000000600052602260045260246000fd5b7f4e487b7100000000000000000000000000000000000000000000000000000000600052603260045260246000fd5b7f4e487b7100000000000000000000000000000000000000000000000000000000600052604160045260246000fd5b600080fd5b600080fd5b600080fd5b600080fd5b600080fd5b6000601f19601f8301169050919050565b7f4552433732313a2063616c6c6572206973206e6f7420746f6b656e206f776e6560008201527f72206f7220617070726f76656400000000000000000000000000000000000000602082015250565b7f4552433732313a207472616e7366657220746f206e6f6e20455243373231526560008201527f63656976657220696d706c656d656e7465720000000000000000000000000000602082015250565b7f4f776e61626c653a206e6577206f776e657220697320746865207a65726f206160008201527f6464726573730000000000000000000000000000000000000000000000000000602082015250565b7f4552433732313a207472616e736665722066726f6d20696e636f72726563742060008201527f6f776e6572000000000000000000000000000000000000000000000000000000602082015250565b7f4552433732313a20746f6b656e20616c7265616479206d696e74656400000000600082015250565b7f4552433732313a207472616e7366657220746f20746865207a65726f2061646460008201527f7265737300000000000000000000000000000000000000000000000000000000602082015250565b7f4552433732313a20617070726f766520746f2063616c6c657200000000000000600082015250565b7f4552433732313a2061646472657373207a65726f206973206e6f74206120766160008201527f6c6964206f776e65720000000000000000000000000000000000000000000000602082015250565b7f45524337323155524953746f726167653a2055524920736574206f66206e6f6e60008201527f6578697374656e7420746f6b656e000000000000000000000000000000000000602082015250565b7f4552433732313a206d696e7420746f20746865207a65726f2061646472657373600082015250565b7f4f776e61626c653a2063616c6c6572206973206e6f7420746865206f776e6572600082015250565b7f4552433732313a20696e76616c696420746f6b656e2049440000000000000000600082015250565b7f4552433732313a20617070726f76616c20746f2063757272656e74206f776e6560008201527f7200000000000000000000000000000000000000000000000000000000000000602082015250565b50565b7f4552433732313a20617070726f76652063616c6c6572206973206e6f7420746f60008201527f6b656e206f776e6572206f7220617070726f76656420666f7220616c6c000000602082015250565b61562281614f36565b811461562d57600080fd5b50565b61563981614f48565b811461564457600080fd5b50565b61565081614f5e565b811461565b57600080fd5b50565b61566781614f8a565b811461567257600080fd5b50565b61567e81614fc2565b811461568957600080fd5b50565b61569581614ff0565b81146156a057600080fd5b5056fea26469706673582212209a4f397b26548b123133624be961d002c44bdae2e00ab4a2c438df43964e2dbe64736f6c63430008070033",
  "linkReferences": {},
  "deployedLinkReferences": {}
}