{"contracts/Characters.sol":{"Characters":{"abi":[{"inputs":[{"internalType":"string[]","name":"tokenUriNormal","type":"string[]"},{"internalType":"uint256[][]","name":"normalStats","type":"uint256[][]"},{"internalType":"string[]","name":"tokenUriRare","type":"string[]"},{"internalType":"uint256[][]","name":"statsRare","type":"uint256[][]"},{"internalType":"string[]","name":"tokenUriLegendary","type":"string[]"},{"internalType":"uint256[][]","name":"statsLegendary","type":"uint256[][]"}],"stateMutability":"nonpayable","type":"constructor"},{"inputs":[{"internalType":"uint256","name":"","type":"uint256"}],"name":"legendaryPersons","outputs":[{"internalType":"string","name":"tokenUri","type":"string"},{"internalType":"uint256","name":"attack","type":"uint256"},{"internalType":"uint256","name":"defence","type":"uint256"},{"internalType":"uint256","name":"tactics","type":"uint256"}],"stateMutability":"view","type":"function"},{"inputs":[],"name":"legendaryPersonsLength","outputs":[{"internalType":"uint256","name":"","type":"uint256"}],"stateMutability":"view","type":"function"},{"inputs":[{"internalType":"uint256","name":"","type":"uint256"}],"name":"normalPersons","outputs":[{"internalType":"string","name":"tokenUri","type":"string"},{"internalType":"uint256","name":"attack","type":"uint256"},{"internalType":"uint256","name":"defence","type":"uint256"},{"internalType":"uint256","name":"tactics","type":"uint256"}],"stateMutability":"view","type":"function"},{"inputs":[],"name":"normalPersonsLength","outputs":[{"internalType":"uint256","name":"","type":"uint256"}],"stateMutability":"view","type":"function"},{"inputs":[{"internalType":"uint256","name":"","type":"uint256"}],"name":"rarePersons","outputs":[{"internalType":"string","name":"tokenUri","type":"string"},{"internalType":"uint256","name":"attack","type":"uint256"},{"internalType":"uint256","name":"defence","type":"uint256"},{"internalType":"uint256","name":"tactics","type":"uint256"}],"stateMutability":"view","type":"function"},{"inputs":[],"name":"rarePersonsLength","outputs":[{"internalType":"uint256","name":"","type":"uint256"}],"stateMutability":"view","type":"function"}],"devdoc":{"kind":"dev","methods":{},"version":1},"evm":{"bytecode":{"linkReferences":{},"object":"60806040523480156200001157600080fd5b506040516200127d3803806200127d83398181016040528101906200003791906200084b565b60005b8651811015620001b3576000604051806080016040528089848151811062000067576200006662000be5565b5b602002602001015181526020018884815181106200008a576200008962000be5565b5b6020026020010151600081518110620000a857620000a762000be5565b5b60200260200101518152602001888481518110620000cb57620000ca62000be5565b5b6020026020010151600181518110620000e957620000e862000be5565b5b602002602001015181526020018884815181106200010c576200010b62000be5565b5b60200260200101516002815181106200012a576200012962000be5565b5b6020026020010151815250908060018154018082558091505060019003906000526020600020906004020160009091909190915060008201518160000190805190602001906200017c929190620004ba565b5060208201518160010155604082015181600201556060820151816003015550508080620001aa9062000b39565b9150506200003a565b5060005b8451811015620003305760016040518060800160405280878481518110620001e457620001e362000be5565b5b6020026020010151815260200186848151811062000207576200020662000be5565b5b602002602001015160008151811062000225576200022462000be5565b5b6020026020010151815260200186848151811062000248576200024762000be5565b5b602002602001015160018151811062000266576200026562000be5565b5b6020026020010151815260200186848151811062000289576200028862000be5565b5b6020026020010151600281518110620002a757620002a662000be5565b5b602002602001015181525090806001815401808255809150506001900390600052602060002090600402016000909190919091506000820151816000019080519060200190620002f9929190620004ba565b5060208201518160010155604082015181600201556060820151816003015550508080620003279062000b39565b915050620001b7565b5060005b8251811015620004ad576002604051806080016040528085848151811062000361576200036062000be5565b5b6020026020010151815260200184848151811062000384576200038362000be5565b5b6020026020010151600081518110620003a257620003a162000be5565b5b60200260200101518152602001848481518110620003c557620003c462000be5565b5b6020026020010151600181518110620003e357620003e262000be5565b5b6020026020010151815260200184848151811062000406576200040562000be5565b5b602002602001015160028151811062000424576200042362000be5565b5b60200260200101518152509080600181540180825580915050600190039060005260206000209060040201600090919091909150600082015181600001908051906020019062000476929190620004ba565b5060208201518160010155604082015181600201556060820151816003015550508080620004a49062000b39565b91505062000334565b5050505050505062000c87565b828054620004c89062000acd565b90600052602060002090601f016020900481019282620004ec576000855562000538565b82601f106200050757805160ff191683800117855562000538565b8280016001018555821562000538579182015b82811115620005375782518255916020019190600101906200051a565b5b5090506200054791906200054b565b5090565b5b80821115620005665760008160009055506001016200054c565b5090565b6000620005816200057b84620009ca565b620009a1565b90508083825260208201905082856020860282011115620005a757620005a662000c48565b5b60005b85811015620005fc57815167ffffffffffffffff811115620005d157620005d062000c43565b5b808601620005e08982620007ce565b85526020850194506020840193505050600181019050620005aa565b5050509392505050565b60006200061d6200061784620009f9565b620009a1565b9050808382526020820190508285602086028201111562000643576200064262000c48565b5b60005b858110156200069857815167ffffffffffffffff8111156200066d576200066c62000c43565b5b8086016200067c898262000801565b8552602085019450602084019350505060018101905062000646565b5050509392505050565b6000620006b9620006b38462000a28565b620009a1565b90508083825260208201905082856020860282011115620006df57620006de62000c48565b5b60005b85811015620007135781620006f8888262000834565b845260208401935060208301925050600181019050620006e2565b5050509392505050565b6000620007346200072e8462000a57565b620009a1565b90508281526020810184848401111562000753576200075262000c4d565b5b6200076084828562000a97565b509392505050565b600082601f83011262000780576200077f62000c43565b5b8151620007928482602086016200056a565b91505092915050565b600082601f830112620007b357620007b262000c43565b5b8151620007c584826020860162000606565b91505092915050565b600082601f830112620007e657620007e562000c43565b5b8151620007f8848260208601620006a2565b91505092915050565b600082601f83011262000819576200081862000c43565b5b81516200082b8482602086016200071d565b91505092915050565b600081519050620008458162000c6d565b92915050565b60008060008060008060c087890312156200086b576200086a62000c57565b5b600087015167ffffffffffffffff8111156200088c576200088b62000c52565b5b6200089a89828a016200079b565b965050602087015167ffffffffffffffff811115620008be57620008bd62000c52565b5b620008cc89828a0162000768565b955050604087015167ffffffffffffffff811115620008f057620008ef62000c52565b5b620008fe89828a016200079b565b945050606087015167ffffffffffffffff81111562000922576200092162000c52565b5b6200093089828a0162000768565b935050608087015167ffffffffffffffff81111562000954576200095362000c52565b5b6200096289828a016200079b565b92505060a087015167ffffffffffffffff81111562000986576200098562000c52565b5b6200099489828a0162000768565b9150509295509295509295565b6000620009ad620009c0565b9050620009bb828262000b03565b919050565b6000604051905090565b600067ffffffffffffffff821115620009e857620009e762000c14565b5b602082029050602081019050919050565b600067ffffffffffffffff82111562000a175762000a1662000c14565b5b602082029050602081019050919050565b600067ffffffffffffffff82111562000a465762000a4562000c14565b5b602082029050602081019050919050565b600067ffffffffffffffff82111562000a755762000a7462000c14565b5b62000a808262000c5c565b9050602081019050919050565b6000819050919050565b60005b8381101562000ab757808201518184015260208101905062000a9a565b8381111562000ac7576000848401525b50505050565b6000600282049050600182168062000ae657607f821691505b6020821081141562000afd5762000afc62000bb6565b5b50919050565b62000b0e8262000c5c565b810181811067ffffffffffffffff8211171562000b305762000b2f62000c14565b5b80604052505050565b600062000b468262000a8d565b91507fffffffffffffffffffffffffffffffffffffffffffffffffffffffffffffffff82141562000b7c5762000b7b62000b87565b5b600182019050919050565b7f4e487b7100000000000000000000000000000000000000000000000000000000600052601160045260246000fd5b7f4e487b7100000000000000000000000000000000000000000000000000000000600052602260045260246000fd5b7f4e487b7100000000000000000000000000000000000000000000000000000000600052603260045260246000fd5b7f4e487b7100000000000000000000000000000000000000000000000000000000600052604160045260246000fd5b600080fd5b600080fd5b600080fd5b600080fd5b600080fd5b6000601f19601f8301169050919050565b62000c788162000a8d565b811462000c8457600080fd5b50565b6105e68062000c976000396000f3fe608060405234801561001057600080fd5b50600436106100625760003560e01c80630a83de16146100675780634132607b1461008557806365c889db146100b857806371be7002146100d65780639cfa7daa146100f4578063cff2c35914610127575b600080fd5b61006f61015a565b60405161007c91906104ae565b60405180910390f35b61009f600480360381019061009a91906103ed565b610167565b6040516100af9493929190610462565b60405180910390f35b6100c061022f565b6040516100cd91906104ae565b60405180910390f35b6100de61023b565b6040516100eb91906104ae565b60405180910390f35b61010e600480360381019061010991906103ed565b610248565b60405161011e9493929190610462565b60405180910390f35b610141600480360381019061013c91906103ed565b610310565b6040516101519493929190610462565b60405180910390f35b6000600180549050905090565b6000818154811061017757600080fd5b906000526020600020906004020160009150905080600001805461019a90610522565b80601f01602080910402602001604051908101604052809291908181526020018280546101c690610522565b80156102135780601f106101e857610100808354040283529160200191610213565b820191906000526020600020905b8154815290600101906020018083116101f657829003601f168201915b5050505050908060010154908060020154908060030154905084565b60008080549050905090565b6000600280549050905090565b6002818154811061025857600080fd5b906000526020600020906004020160009150905080600001805461027b90610522565b80601f01602080910402602001604051908101604052809291908181526020018280546102a790610522565b80156102f45780601f106102c9576101008083540402835291602001916102f4565b820191906000526020600020905b8154815290600101906020018083116102d757829003601f168201915b5050505050908060010154908060020154908060030154905084565b6001818154811061032057600080fd5b906000526020600020906004020160009150905080600001805461034390610522565b80601f016020809104026020016040519081016040528092919081815260200182805461036f90610522565b80156103bc5780601f10610391576101008083540402835291602001916103bc565b820191906000526020600020905b81548152906001019060200180831161039f57829003601f168201915b5050505050908060010154908060020154908060030154905084565b6000813590506103e781610599565b92915050565b60006020828403121561040357610402610583565b5b6000610411848285016103d8565b91505092915050565b6000610425826104c9565b61042f81856104d4565b935061043f8185602086016104ef565b61044881610588565b840191505092915050565b61045c816104e5565b82525050565b6000608082019050818103600083015261047c818761041a565b905061048b6020830186610453565b6104986040830185610453565b6104a56060830184610453565b95945050505050565b60006020820190506104c36000830184610453565b92915050565b600081519050919050565b600082825260208201905092915050565b6000819050919050565b60005b8381101561050d5780820151818401526020810190506104f2565b8381111561051c576000848401525b50505050565b6000600282049050600182168061053a57607f821691505b6020821081141561054e5761054d610554565b5b50919050565b7f4e487b7100000000000000000000000000000000000000000000000000000000600052602260045260246000fd5b600080fd5b6000601f19601f8301169050919050565b6105a2816104e5565b81146105ad57600080fd5b5056fea26469706673582212208ceb9f3e0dfcda2a888728e05fc37f40d65d8befa7f329de4211654ae0f4716064736f6c63430008070033","opcodes":"PUSH1 0x80 PUSH1 0x40 MSTORE CALLVALUE DUP1 ISZERO PUSH3 0x11 JUMPI PUSH1 0x0 DUP1 REVERT JUMPDEST POP PUSH1 0x40 MLOAD PUSH3 0x127D CODESIZE SUB DUP1 PUSH3 0x127D DUP4 CODECOPY DUP2 DUP2 ADD PUSH1 0x40 MSTORE DUP2 ADD SWAP1 PUSH3 0x37 SWAP2 SWAP1 PUSH3 0x84B JUMP JUMPDEST PUSH1 0x0 JUMPDEST DUP7 MLOAD DUP2 LT ISZERO PUSH3 0x1B3 JUMPI PUSH1 0x0 PUSH1 0x40 MLOAD DUP1 PUSH1 0x80 ADD PUSH1 0x40 MSTORE DUP1 DUP10 DUP5 DUP2 MLOAD DUP2 LT PUSH3 0x67 JUMPI PUSH3 0x66 PUSH3 0xBE5 JUMP JUMPDEST JUMPDEST PUSH1 0x20 MUL PUSH1 0x20 ADD ADD MLOAD DUP2 MSTORE PUSH1 0x20 ADD DUP9 DUP5 DUP2 MLOAD DUP2 LT PUSH3 0x8A JUMPI PUSH3 0x89 PUSH3 0xBE5 JUMP JUMPDEST JUMPDEST PUSH1 0x20 MUL PUSH1 0x20 ADD ADD MLOAD PUSH1 0x0 DUP2 MLOAD DUP2 LT PUSH3 0xA8 JUMPI PUSH3 0xA7 PUSH3 0xBE5 JUMP JUMPDEST JUMPDEST PUSH1 0x20 MUL PUSH1 0x20 ADD ADD MLOAD DUP2 MSTORE PUSH1 0x20 ADD DUP9 DUP5 DUP2 MLOAD DUP2 LT PUSH3 0xCB JUMPI PUSH3 0xCA PUSH3 0xBE5 JUMP JUMPDEST JUMPDEST PUSH1 0x20 MUL PUSH1 0x20 ADD ADD MLOAD PUSH1 0x1 DUP2 MLOAD DUP2 LT PUSH3 0xE9 JUMPI PUSH3 0xE8 PUSH3 0xBE5 JUMP JUMPDEST JUMPDEST PUSH1 0x20 MUL PUSH1 0x20 ADD ADD MLOAD DUP2 MSTORE PUSH1 0x20 ADD DUP9 DUP5 DUP2 MLOAD DUP2 LT PUSH3 0x10C JUMPI PUSH3 0x10B PUSH3 0xBE5 JUMP JUMPDEST JUMPDEST PUSH1 0x20 MUL PUSH1 0x20 ADD ADD MLOAD PUSH1 0x2 DUP2 MLOAD DUP2 LT PUSH3 0x12A JUMPI PUSH3 0x129 PUSH3 0xBE5 JUMP JUMPDEST JUMPDEST PUSH1 0x20 MUL PUSH1 0x20 ADD ADD MLOAD DUP2 MSTORE POP SWAP1 DUP1 PUSH1 0x1 DUP2 SLOAD ADD DUP1 DUP3 SSTORE DUP1 SWAP2 POP POP PUSH1 0x1 SWAP1 SUB SWAP1 PUSH1 0x0 MSTORE PUSH1 0x20 PUSH1 0x0 KECCAK256 SWAP1 PUSH1 0x4 MUL ADD PUSH1 0x0 SWAP1 SWAP2 SWAP1 SWAP2 SWAP1 SWAP2 POP PUSH1 0x0 DUP3 ADD MLOAD DUP2 PUSH1 0x0 ADD SWAP1 DUP1 MLOAD SWAP1 PUSH1 0x20 ADD SWAP1 PUSH3 0x17C SWAP3 SWAP2 SWAP1 PUSH3 0x4BA JUMP JUMPDEST POP PUSH1 0x20 DUP3 ADD MLOAD DUP2 PUSH1 0x1 ADD SSTORE PUSH1 0x40 DUP3 ADD MLOAD DUP2 PUSH1 0x2 ADD SSTORE PUSH1 0x60 DUP3 ADD MLOAD DUP2 PUSH1 0x3 ADD SSTORE POP POP DUP1 DUP1 PUSH3 0x1AA SWAP1 PUSH3 0xB39 JUMP JUMPDEST SWAP2 POP POP PUSH3 0x3A JUMP JUMPDEST POP PUSH1 0x0 JUMPDEST DUP5 MLOAD DUP2 LT ISZERO PUSH3 0x330 JUMPI PUSH1 0x1 PUSH1 0x40 MLOAD DUP1 PUSH1 0x80 ADD PUSH1 0x40 MSTORE DUP1 DUP8 DUP5 DUP2 MLOAD DUP2 LT PUSH3 0x1E4 JUMPI PUSH3 0x1E3 PUSH3 0xBE5 JUMP JUMPDEST JUMPDEST PUSH1 0x20 MUL PUSH1 0x20 ADD ADD MLOAD DUP2 MSTORE PUSH1 0x20 ADD DUP7 DUP5 DUP2 MLOAD DUP2 LT PUSH3 0x207 JUMPI PUSH3 0x206 PUSH3 0xBE5 JUMP JUMPDEST JUMPDEST PUSH1 0x20 MUL PUSH1 0x20 ADD ADD MLOAD PUSH1 0x0 DUP2 MLOAD DUP2 LT PUSH3 0x225 JUMPI PUSH3 0x224 PUSH3 0xBE5 JUMP JUMPDEST JUMPDEST PUSH1 0x20 MUL PUSH1 0x20 ADD ADD MLOAD DUP2 MSTORE PUSH1 0x20 ADD DUP7 DUP5 DUP2 MLOAD DUP2 LT PUSH3 0x248 JUMPI PUSH3 0x247 PUSH3 0xBE5 JUMP JUMPDEST JUMPDEST PUSH1 0x20 MUL PUSH1 0x20 ADD ADD MLOAD PUSH1 0x1 DUP2 MLOAD DUP2 LT PUSH3 0x266 JUMPI PUSH3 0x265 PUSH3 0xBE5 JUMP JUMPDEST JUMPDEST PUSH1 0x20 MUL PUSH1 0x20 ADD ADD MLOAD DUP2 MSTORE PUSH1 0x20 ADD DUP7 DUP5 DUP2 MLOAD DUP2 LT PUSH3 0x289 JUMPI PUSH3 0x288 PUSH3 0xBE5 JUMP JUMPDEST JUMPDEST PUSH1 0x20 MUL PUSH1 0x20 ADD ADD MLOAD PUSH1 0x2 DUP2 MLOAD DUP2 LT PUSH3 0x2A7 JUMPI PUSH3 0x2A6 PUSH3 0xBE5 JUMP JUMPDEST JUMPDEST PUSH1 0x20 MUL PUSH1 0x20 ADD ADD MLOAD DUP2 MSTORE POP SWAP1 DUP1 PUSH1 0x1 DUP2 SLOAD ADD DUP1 DUP3 SSTORE DUP1 SWAP2 POP POP PUSH1 0x1 SWAP1 SUB SWAP1 PUSH1 0x0 MSTORE PUSH1 0x20 PUSH1 0x0 KECCAK256 SWAP1 PUSH1 0x4 MUL ADD PUSH1 0x0 SWAP1 SWAP2 SWAP1 SWAP2 SWAP1 SWAP2 POP PUSH1 0x0 DUP3 ADD MLOAD DUP2 PUSH1 0x0 ADD SWAP1 DUP1 MLOAD SWAP1 PUSH1 0x20 ADD SWAP1 PUSH3 0x2F9 SWAP3 SWAP2 SWAP1 PUSH3 0x4BA JUMP JUMPDEST POP PUSH1 0x20 DUP3 ADD MLOAD DUP2 PUSH1 0x1 ADD SSTORE PUSH1 0x40 DUP3 ADD MLOAD DUP2 PUSH1 0x2 ADD SSTORE PUSH1 0x60 DUP3 ADD MLOAD DUP2 PUSH1 0x3 ADD SSTORE POP POP DUP1 DUP1 PUSH3 0x327 SWAP1 PUSH3 0xB39 JUMP JUMPDEST SWAP2 POP POP PUSH3 0x1B7 JUMP JUMPDEST POP PUSH1 0x0 JUMPDEST DUP3 MLOAD DUP2 LT ISZERO PUSH3 0x4AD JUMPI PUSH1 0x2 PUSH1 0x40 MLOAD DUP1 PUSH1 0x80 ADD PUSH1 0x40 MSTORE DUP1 DUP6 DUP5 DUP2 MLOAD DUP2 LT PUSH3 0x361 JUMPI PUSH3 0x360 PUSH3 0xBE5 JUMP JUMPDEST JUMPDEST PUSH1 0x20 MUL PUSH1 0x20 ADD ADD MLOAD DUP2 MSTORE PUSH1 0x20 ADD DUP5 DUP5 DUP2 MLOAD DUP2 LT PUSH3 0x384 JUMPI PUSH3 0x383 PUSH3 0xBE5 JUMP JUMPDEST JUMPDEST PUSH1 0x20 MUL PUSH1 0x20 ADD ADD MLOAD PUSH1 0x0 DUP2 MLOAD DUP2 LT PUSH3 0x3A2 JUMPI PUSH3 0x3A1 PUSH3 0xBE5 JUMP JUMPDEST JUMPDEST PUSH1 0x20 MUL PUSH1 0x20 ADD ADD MLOAD DUP2 MSTORE PUSH1 0x20 ADD DUP5 DUP5 DUP2 MLOAD DUP2 LT PUSH3 0x3C5 JUMPI PUSH3 0x3C4 PUSH3 0xBE5 JUMP JUMPDEST JUMPDEST PUSH1 0x20 MUL PUSH1 0x20 ADD ADD MLOAD PUSH1 0x1 DUP2 MLOAD DUP2 LT PUSH3 0x3E3 JUMPI PUSH3 0x3E2 PUSH3 0xBE5 JUMP JUMPDEST JUMPDEST PUSH1 0x20 MUL PUSH1 0x20 ADD ADD MLOAD DUP2 MSTORE PUSH1 0x20 ADD DUP5 DUP5 DUP2 MLOAD DUP2 LT PUSH3 0x406 JUMPI PUSH3 0x405 PUSH3 0xBE5 JUMP JUMPDEST JUMPDEST PUSH1 0x20 MUL PUSH1 0x20 ADD ADD MLOAD PUSH1 0x2 DUP2 MLOAD DUP2 LT PUSH3 0x424 JUMPI PUSH3 0x423 PUSH3 0xBE5 JUMP JUMPDEST JUMPDEST PUSH1 0x20 MUL PUSH1 0x20 ADD ADD MLOAD DUP2 MSTORE POP SWAP1 DUP1 PUSH1 0x1 DUP2 SLOAD ADD DUP1 DUP3 SSTORE DUP1 SWAP2 POP POP PUSH1 0x1 SWAP1 SUB SWAP1 PUSH1 0x0 MSTORE PUSH1 0x20 PUSH1 0x0 KECCAK256 SWAP1 PUSH1 0x4 MUL ADD PUSH1 0x0 SWAP1 SWAP2 SWAP1 SWAP2 SWAP1 SWAP2 POP PUSH1 0x0 DUP3 ADD MLOAD DUP2 PUSH1 0x0 ADD SWAP1 DUP1 MLOAD SWAP1 PUSH1 0x20 ADD SWAP1 PUSH3 0x476 SWAP3 SWAP2 SWAP1 PUSH3 0x4BA JUMP JUMPDEST POP PUSH1 0x20 DUP3 ADD MLOAD DUP2 PUSH1 0x1 ADD SSTORE PUSH1 0x40 DUP3 ADD MLOAD DUP2 PUSH1 0x2 ADD SSTORE PUSH1 0x60 DUP3 ADD MLOAD DUP2 PUSH1 0x3 ADD SSTORE POP POP DUP1 DUP1 PUSH3 0x4A4 SWAP1 PUSH3 0xB39 JUMP JUMPDEST SWAP2 POP POP PUSH3 0x334 JUMP JUMPDEST POP POP POP POP POP POP POP PUSH3 0xC87 JUMP JUMPDEST DUP3 DUP1 SLOAD PUSH3 0x4C8 SWAP1 PUSH3 0xACD JUMP JUMPDEST SWAP1 PUSH1 0x0 MSTORE PUSH1 0x20 PUSH1 0x0 KECCAK256 SWAP1 PUSH1 0x1F ADD PUSH1 0x20 SWAP1 DIV DUP2 ADD SWAP3 DUP3 PUSH3 0x4EC JUMPI PUSH1 0x0 DUP6 SSTORE PUSH3 0x538 JUMP JUMPDEST DUP3 PUSH1 0x1F LT PUSH3 0x507 JUMPI DUP1 MLOAD PUSH1 0xFF NOT AND DUP4 DUP1 ADD OR DUP6 SSTORE PUSH3 0x538 JUMP JUMPDEST DUP3 DUP1 ADD PUSH1 0x1 ADD DUP6 SSTORE DUP3 ISZERO PUSH3 0x538 JUMPI SWAP2 DUP3 ADD JUMPDEST DUP3 DUP2 GT ISZERO PUSH3 0x537 JUMPI DUP3 MLOAD DUP3 SSTORE SWAP2 PUSH1 0x20 ADD SWAP2 SWAP1 PUSH1 0x1 ADD SWAP1 PUSH3 0x51A JUMP JUMPDEST JUMPDEST POP SWAP1 POP PUSH3 0x547 SWAP2 SWAP1 PUSH3 0x54B JUMP JUMPDEST POP SWAP1 JUMP JUMPDEST JUMPDEST DUP1 DUP3 GT ISZERO PUSH3 0x566 JUMPI PUSH1 0x0 DUP2 PUSH1 0x0 SWAP1 SSTORE POP PUSH1 0x1 ADD PUSH3 0x54C JUMP JUMPDEST POP SWAP1 JUMP JUMPDEST PUSH1 0x0 PUSH3 0x581 PUSH3 0x57B DUP5 PUSH3 0x9CA JUMP JUMPDEST PUSH3 0x9A1 JUMP JUMPDEST SWAP1 POP DUP1 DUP4 DUP3 MSTORE PUSH1 0x20 DUP3 ADD SWAP1 POP DUP3 DUP6 PUSH1 0x20 DUP7 MUL DUP3 ADD GT ISZERO PUSH3 0x5A7 JUMPI PUSH3 0x5A6 PUSH3 0xC48 JUMP JUMPDEST JUMPDEST PUSH1 0x0 JUMPDEST DUP6 DUP2 LT ISZERO PUSH3 0x5FC JUMPI DUP2 MLOAD PUSH8 0xFFFFFFFFFFFFFFFF DUP2 GT ISZERO PUSH3 0x5D1 JUMPI PUSH3 0x5D0 PUSH3 0xC43 JUMP JUMPDEST JUMPDEST DUP1 DUP7 ADD PUSH3 0x5E0 DUP10 DUP3 PUSH3 0x7CE JUMP JUMPDEST DUP6 MSTORE PUSH1 0x20 DUP6 ADD SWAP5 POP PUSH1 0x20 DUP5 ADD SWAP4 POP POP POP PUSH1 0x1 DUP2 ADD SWAP1 POP PUSH3 0x5AA JUMP JUMPDEST POP POP POP SWAP4 SWAP3 POP POP POP JUMP JUMPDEST PUSH1 0x0 PUSH3 0x61D PUSH3 0x617 DUP5 PUSH3 0x9F9 JUMP JUMPDEST PUSH3 0x9A1 JUMP JUMPDEST SWAP1 POP DUP1 DUP4 DUP3 MSTORE PUSH1 0x20 DUP3 ADD SWAP1 POP DUP3 DUP6 PUSH1 0x20 DUP7 MUL DUP3 ADD GT ISZERO PUSH3 0x643 JUMPI PUSH3 0x642 PUSH3 0xC48 JUMP JUMPDEST JUMPDEST PUSH1 0x0 JUMPDEST DUP6 DUP2 LT ISZERO PUSH3 0x698 JUMPI DUP2 MLOAD PUSH8 0xFFFFFFFFFFFFFFFF DUP2 GT ISZERO PUSH3 0x66D JUMPI PUSH3 0x66C PUSH3 0xC43 JUMP JUMPDEST JUMPDEST DUP1 DUP7 ADD PUSH3 0x67C DUP10 DUP3 PUSH3 0x801 JUMP JUMPDEST DUP6 MSTORE PUSH1 0x20 DUP6 ADD SWAP5 POP PUSH1 0x20 DUP5 ADD SWAP4 POP POP POP PUSH1 0x1 DUP2 ADD SWAP1 POP PUSH3 0x646 JUMP JUMPDEST POP POP POP SWAP4 SWAP3 POP POP POP JUMP JUMPDEST PUSH1 0x0 PUSH3 0x6B9 PUSH3 0x6B3 DUP5 PUSH3 0xA28 JUMP JUMPDEST PUSH3 0x9A1 JUMP JUMPDEST SWAP1 POP DUP1 DUP4 DUP3 MSTORE PUSH1 0x20 DUP3 ADD SWAP1 POP DUP3 DUP6 PUSH1 0x20 DUP7 MUL DUP3 ADD GT ISZERO PUSH3 0x6DF JUMPI PUSH3 0x6DE PUSH3 0xC48 JUMP JUMPDEST JUMPDEST PUSH1 0x0 JUMPDEST DUP6 DUP2 LT ISZERO PUSH3 0x713 JUMPI DUP2 PUSH3 0x6F8 DUP9 DUP3 PUSH3 0x834 JUMP JUMPDEST DUP5 MSTORE PUSH1 0x20 DUP5 ADD SWAP4 POP PUSH1 0x20 DUP4 ADD SWAP3 POP POP PUSH1 0x1 DUP2 ADD SWAP1 POP PUSH3 0x6E2 JUMP JUMPDEST POP POP POP SWAP4 SWAP3 POP POP POP JUMP JUMPDEST PUSH1 0x0 PUSH3 0x734 PUSH3 0x72E DUP5 PUSH3 0xA57 JUMP JUMPDEST PUSH3 0x9A1 JUMP JUMPDEST SWAP1 POP DUP3 DUP2 MSTORE PUSH1 0x20 DUP2 ADD DUP5 DUP5 DUP5 ADD GT ISZERO PUSH3 0x753 JUMPI PUSH3 0x752 PUSH3 0xC4D JUMP JUMPDEST JUMPDEST PUSH3 0x760 DUP5 DUP3 DUP6 PUSH3 0xA97 JUMP JUMPDEST POP SWAP4 SWAP3 POP POP POP JUMP JUMPDEST PUSH1 0x0 DUP3 PUSH1 0x1F DUP4 ADD SLT PUSH3 0x780 JUMPI PUSH3 0x77F PUSH3 0xC43 JUMP JUMPDEST JUMPDEST DUP2 MLOAD PUSH3 0x792 DUP5 DUP3 PUSH1 0x20 DUP7 ADD PUSH3 0x56A JUMP JUMPDEST SWAP2 POP POP SWAP3 SWAP2 POP POP JUMP JUMPDEST PUSH1 0x0 DUP3 PUSH1 0x1F DUP4 ADD SLT PUSH3 0x7B3 JUMPI PUSH3 0x7B2 PUSH3 0xC43 JUMP JUMPDEST JUMPDEST DUP2 MLOAD PUSH3 0x7C5 DUP5 DUP3 PUSH1 0x20 DUP7 ADD PUSH3 0x606 JUMP JUMPDEST SWAP2 POP POP SWAP3 SWAP2 POP POP JUMP JUMPDEST PUSH1 0x0 DUP3 PUSH1 0x1F DUP4 ADD SLT PUSH3 0x7E6 JUMPI PUSH3 0x7E5 PUSH3 0xC43 JUMP JUMPDEST JUMPDEST DUP2 MLOAD PUSH3 0x7F8 DUP5 DUP3 PUSH1 0x20 DUP7 ADD PUSH3 0x6A2 JUMP JUMPDEST SWAP2 POP POP SWAP3 SWAP2 POP POP JUMP JUMPDEST PUSH1 0x0 DUP3 PUSH1 0x1F DUP4 ADD SLT PUSH3 0x819 JUMPI PUSH3 0x818 PUSH3 0xC43 JUMP JUMPDEST JUMPDEST DUP2 MLOAD PUSH3 0x82B DUP5 DUP3 PUSH1 0x20 DUP7 ADD PUSH3 0x71D JUMP JUMPDEST SWAP2 POP POP SWAP3 SWAP2 POP POP JUMP JUMPDEST PUSH1 0x0 DUP2 MLOAD SWAP1 POP PUSH3 0x845 DUP2 PUSH3 0xC6D JUMP JUMPDEST SWAP3 SWAP2 POP POP JUMP JUMPDEST PUSH1 0x0 DUP1 PUSH1 0x0 DUP1 PUSH1 0x0 DUP1 PUSH1 0xC0 DUP8 DUP10 SUB SLT ISZERO PUSH3 0x86B JUMPI PUSH3 0x86A PUSH3 0xC57 JUMP JUMPDEST JUMPDEST PUSH1 0x0 DUP8 ADD MLOAD PUSH8 0xFFFFFFFFFFFFFFFF DUP2 GT ISZERO PUSH3 0x88C JUMPI PUSH3 0x88B PUSH3 0xC52 JUMP JUMPDEST JUMPDEST PUSH3 0x89A DUP10 DUP3 DUP11 ADD PUSH3 0x79B JUMP JUMPDEST SWAP7 POP POP PUSH1 0x20 DUP8 ADD MLOAD PUSH8 0xFFFFFFFFFFFFFFFF DUP2 GT ISZERO PUSH3 0x8BE JUMPI PUSH3 0x8BD PUSH3 0xC52 JUMP JUMPDEST JUMPDEST PUSH3 0x8CC DUP10 DUP3 DUP11 ADD PUSH3 0x768 JUMP JUMPDEST SWAP6 POP POP PUSH1 0x40 DUP8 ADD MLOAD PUSH8 0xFFFFFFFFFFFFFFFF DUP2 GT ISZERO PUSH3 0x8F0 JUMPI PUSH3 0x8EF PUSH3 0xC52 JUMP JUMPDEST JUMPDEST PUSH3 0x8FE DUP10 DUP3 DUP11 ADD PUSH3 0x79B JUMP JUMPDEST SWAP5 POP POP PUSH1 0x60 DUP8 ADD MLOAD PUSH8 0xFFFFFFFFFFFFFFFF DUP2 GT ISZERO PUSH3 0x922 JUMPI PUSH3 0x921 PUSH3 0xC52 JUMP JUMPDEST JUMPDEST PUSH3 0x930 DUP10 DUP3 DUP11 ADD PUSH3 0x768 JUMP JUMPDEST SWAP4 POP POP PUSH1 0x80 DUP8 ADD MLOAD PUSH8 0xFFFFFFFFFFFFFFFF DUP2 GT ISZERO PUSH3 0x954 JUMPI PUSH3 0x953 PUSH3 0xC52 JUMP JUMPDEST JUMPDEST PUSH3 0x962 DUP10 DUP3 DUP11 ADD PUSH3 0x79B JUMP JUMPDEST SWAP3 POP POP PUSH1 0xA0 DUP8 ADD MLOAD PUSH8 0xFFFFFFFFFFFFFFFF DUP2 GT ISZERO PUSH3 0x986 JUMPI PUSH3 0x985 PUSH3 0xC52 JUMP JUMPDEST JUMPDEST PUSH3 0x994 DUP10 DUP3 DUP11 ADD PUSH3 0x768 JUMP JUMPDEST SWAP2 POP POP SWAP3 SWAP6 POP SWAP3 SWAP6 POP SWAP3 SWAP6 JUMP JUMPDEST PUSH1 0x0 PUSH3 0x9AD PUSH3 0x9C0 JUMP JUMPDEST SWAP1 POP PUSH3 0x9BB DUP3 DUP3 PUSH3 0xB03 JUMP JUMPDEST SWAP2 SWAP1 POP JUMP JUMPDEST PUSH1 0x0 PUSH1 0x40 MLOAD SWAP1 POP SWAP1 JUMP JUMPDEST PUSH1 0x0 PUSH8 0xFFFFFFFFFFFFFFFF DUP3 GT ISZERO PUSH3 0x9E8 JUMPI PUSH3 0x9E7 PUSH3 0xC14 JUMP JUMPDEST JUMPDEST PUSH1 0x20 DUP3 MUL SWAP1 POP PUSH1 0x20 DUP2 ADD SWAP1 POP SWAP2 SWAP1 POP JUMP JUMPDEST PUSH1 0x0 PUSH8 0xFFFFFFFFFFFFFFFF DUP3 GT ISZERO PUSH3 0xA17 JUMPI PUSH3 0xA16 PUSH3 0xC14 JUMP JUMPDEST JUMPDEST PUSH1 0x20 DUP3 MUL SWAP1 POP PUSH1 0x20 DUP2 ADD SWAP1 POP SWAP2 SWAP1 POP JUMP JUMPDEST PUSH1 0x0 PUSH8 0xFFFFFFFFFFFFFFFF DUP3 GT ISZERO PUSH3 0xA46 JUMPI PUSH3 0xA45 PUSH3 0xC14 JUMP JUMPDEST JUMPDEST PUSH1 0x20 DUP3 MUL SWAP1 POP PUSH1 0x20 DUP2 ADD SWAP1 POP SWAP2 SWAP1 POP JUMP JUMPDEST PUSH1 0x0 PUSH8 0xFFFFFFFFFFFFFFFF DUP3 GT ISZERO PUSH3 0xA75 JUMPI PUSH3 0xA74 PUSH3 0xC14 JUMP JUMPDEST JUMPDEST PUSH3 0xA80 DUP3 PUSH3 0xC5C JUMP JUMPDEST SWAP1 POP PUSH1 0x20 DUP2 ADD SWAP1 POP SWAP2 SWAP1 POP JUMP JUMPDEST PUSH1 0x0 DUP2 SWAP1 POP SWAP2 SWAP1 POP JUMP JUMPDEST PUSH1 0x0 JUMPDEST DUP4 DUP2 LT ISZERO PUSH3 0xAB7 JUMPI DUP1 DUP3 ADD MLOAD DUP2 DUP5 ADD MSTORE PUSH1 0x20 DUP2 ADD SWAP1 POP PUSH3 0xA9A JUMP JUMPDEST DUP4 DUP2 GT ISZERO PUSH3 0xAC7 JUMPI PUSH1 0x0 DUP5 DUP5 ADD MSTORE JUMPDEST POP POP POP POP JUMP JUMPDEST PUSH1 0x0 PUSH1 0x2 DUP3 DIV SWAP1 POP PUSH1 0x1 DUP3 AND DUP1 PUSH3 0xAE6 JUMPI PUSH1 0x7F DUP3 AND SWAP2 POP JUMPDEST PUSH1 0x20 DUP3 LT DUP2 EQ ISZERO PUSH3 0xAFD JUMPI PUSH3 0xAFC PUSH3 0xBB6 JUMP JUMPDEST JUMPDEST POP SWAP2 SWAP1 POP JUMP JUMPDEST PUSH3 0xB0E DUP3 PUSH3 0xC5C JUMP JUMPDEST DUP2 ADD DUP2 DUP2 LT PUSH8 0xFFFFFFFFFFFFFFFF DUP3 GT OR ISZERO PUSH3 0xB30 JUMPI PUSH3 0xB2F PUSH3 0xC14 JUMP JUMPDEST JUMPDEST DUP1 PUSH1 0x40 MSTORE POP POP POP JUMP JUMPDEST PUSH1 0x0 PUSH3 0xB46 DUP3 PUSH3 0xA8D JUMP JUMPDEST SWAP2 POP PUSH32 0xFFFFFFFFFFFFFFFFFFFFFFFFFFFFFFFFFFFFFFFFFFFFFFFFFFFFFFFFFFFFFFFF DUP3 EQ ISZERO PUSH3 0xB7C JUMPI PUSH3 0xB7B PUSH3 0xB87 JUMP JUMPDEST JUMPDEST PUSH1 0x1 DUP3 ADD SWAP1 POP SWAP2 SWAP1 POP JUMP JUMPDEST PUSH32 0x4E487B7100000000000000000000000000000000000000000000000000000000 PUSH1 0x0 MSTORE PUSH1 0x11 PUSH1 0x4 MSTORE PUSH1 0x24 PUSH1 0x0 REVERT JUMPDEST PUSH32 0x4E487B7100000000000000000000000000000000000000000000000000000000 PUSH1 0x0 MSTORE PUSH1 0x22 PUSH1 0x4 MSTORE PUSH1 0x24 PUSH1 0x0 REVERT JUMPDEST PUSH32 0x4E487B7100000000000000000000000000000000000000000000000000000000 PUSH1 0x0 MSTORE PUSH1 0x32 PUSH1 0x4 MSTORE PUSH1 0x24 PUSH1 0x0 REVERT JUMPDEST PUSH32 0x4E487B7100000000000000000000000000000000000000000000000000000000 PUSH1 0x0 MSTORE PUSH1 0x41 PUSH1 0x4 MSTORE PUSH1 0x24 PUSH1 0x0 REVERT JUMPDEST PUSH1 0x0 DUP1 REVERT JUMPDEST PUSH1 0x0 DUP1 REVERT JUMPDEST PUSH1 0x0 DUP1 REVERT JUMPDEST PUSH1 0x0 DUP1 REVERT JUMPDEST PUSH1 0x0 DUP1 REVERT JUMPDEST PUSH1 0x0 PUSH1 0x1F NOT PUSH1 0x1F DUP4 ADD AND SWAP1 POP SWAP2 SWAP1 POP JUMP JUMPDEST PUSH3 0xC78 DUP2 PUSH3 0xA8D JUMP JUMPDEST DUP2 EQ PUSH3 0xC84 JUMPI PUSH1 0x0 DUP1 REVERT JUMPDEST POP JUMP JUMPDEST PUSH2 0x5E6 DUP1 PUSH3 0xC97 PUSH1 0x0 CODECOPY PUSH1 0x0 RETURN INVALID PUSH1 0x80 PUSH1 0x40 MSTORE CALLVALUE DUP1 ISZERO PUSH2 0x10 JUMPI PUSH1 0x0 DUP1 REVERT JUMPDEST POP PUSH1 0x4 CALLDATASIZE LT PUSH2 0x62 JUMPI PUSH1 0x0 CALLDATALOAD PUSH1 0xE0 SHR DUP1 PUSH4 0xA83DE16 EQ PUSH2 0x67 JUMPI DUP1 PUSH4 0x4132607B EQ PUSH2 0x85 JUMPI DUP1 PUSH4 0x65C889DB EQ PUSH2 0xB8 JUMPI DUP1 PUSH4 0x71BE7002 EQ PUSH2 0xD6 JUMPI DUP1 PUSH4 0x9CFA7DAA EQ PUSH2 0xF4 JUMPI DUP1 PUSH4 0xCFF2C359 EQ PUSH2 0x127 JUMPI JUMPDEST PUSH1 0x0 DUP1 REVERT JUMPDEST PUSH2 0x6F PUSH2 0x15A JUMP JUMPDEST PUSH1 0x40 MLOAD PUSH2 0x7C SWAP2 SWAP1 PUSH2 0x4AE JUMP JUMPDEST PUSH1 0x40 MLOAD DUP1 SWAP2 SUB SWAP1 RETURN JUMPDEST PUSH2 0x9F PUSH1 0x4 DUP1 CALLDATASIZE SUB DUP2 ADD SWAP1 PUSH2 0x9A SWAP2 SWAP1 PUSH2 0x3ED JUMP JUMPDEST PUSH2 0x167 JUMP JUMPDEST PUSH1 0x40 MLOAD PUSH2 0xAF SWAP5 SWAP4 SWAP3 SWAP2 SWAP1 PUSH2 0x462 JUMP JUMPDEST PUSH1 0x40 MLOAD DUP1 SWAP2 SUB SWAP1 RETURN JUMPDEST PUSH2 0xC0 PUSH2 0x22F JUMP JUMPDEST PUSH1 0x40 MLOAD PUSH2 0xCD SWAP2 SWAP1 PUSH2 0x4AE JUMP JUMPDEST PUSH1 0x40 MLOAD DUP1 SWAP2 SUB SWAP1 RETURN JUMPDEST PUSH2 0xDE PUSH2 0x23B JUMP JUMPDEST PUSH1 0x40 MLOAD PUSH2 0xEB SWAP2 SWAP1 PUSH2 0x4AE JUMP JUMPDEST PUSH1 0x40 MLOAD DUP1 SWAP2 SUB SWAP1 RETURN JUMPDEST PUSH2 0x10E PUSH1 0x4 DUP1 CALLDATASIZE SUB DUP2 ADD SWAP1 PUSH2 0x109 SWAP2 SWAP1 PUSH2 0x3ED JUMP JUMPDEST PUSH2 0x248 JUMP JUMPDEST PUSH1 0x40 MLOAD PUSH2 0x11E SWAP5 SWAP4 SWAP3 SWAP2 SWAP1 PUSH2 0x462 JUMP JUMPDEST PUSH1 0x40 MLOAD DUP1 SWAP2 SUB SWAP1 RETURN JUMPDEST PUSH2 0x141 PUSH1 0x4 DUP1 CALLDATASIZE SUB DUP2 ADD SWAP1 PUSH2 0x13C SWAP2 SWAP1 PUSH2 0x3ED JUMP JUMPDEST PUSH2 0x310 JUMP JUMPDEST PUSH1 0x40 MLOAD PUSH2 0x151 SWAP5 SWAP4 SWAP3 SWAP2 SWAP1 PUSH2 0x462 JUMP JUMPDEST PUSH1 0x40 MLOAD DUP1 SWAP2 SUB SWAP1 RETURN JUMPDEST PUSH1 0x0 PUSH1 0x1 DUP1 SLOAD SWAP1 POP SWAP1 POP SWAP1 JUMP JUMPDEST PUSH1 0x0 DUP2 DUP2 SLOAD DUP2 LT PUSH2 0x177 JUMPI PUSH1 0x0 DUP1 REVERT JUMPDEST SWAP1 PUSH1 0x0 MSTORE PUSH1 0x20 PUSH1 0x0 KECCAK256 SWAP1 PUSH1 0x4 MUL ADD PUSH1 0x0 SWAP2 POP SWAP1 POP DUP1 PUSH1 0x0 ADD DUP1 SLOAD PUSH2 0x19A SWAP1 PUSH2 0x522 JUMP JUMPDEST DUP1 PUSH1 0x1F ADD PUSH1 0x20 DUP1 SWAP2 DIV MUL PUSH1 0x20 ADD PUSH1 0x40 MLOAD SWAP1 DUP2 ADD PUSH1 0x40 MSTORE DUP1 SWAP3 SWAP2 SWAP1 DUP2 DUP2 MSTORE PUSH1 0x20 ADD DUP3 DUP1 SLOAD PUSH2 0x1C6 SWAP1 PUSH2 0x522 JUMP JUMPDEST DUP1 ISZERO PUSH2 0x213 JUMPI DUP1 PUSH1 0x1F LT PUSH2 0x1E8 JUMPI PUSH2 0x100 DUP1 DUP4 SLOAD DIV MUL DUP4 MSTORE SWAP2 PUSH1 0x20 ADD SWAP2 PUSH2 0x213 JUMP JUMPDEST DUP3 ADD SWAP2 SWAP1 PUSH1 0x0 MSTORE PUSH1 0x20 PUSH1 0x0 KECCAK256 SWAP1 JUMPDEST DUP2 SLOAD DUP2 MSTORE SWAP1 PUSH1 0x1 ADD SWAP1 PUSH1 0x20 ADD DUP1 DUP4 GT PUSH2 0x1F6 JUMPI DUP3 SWAP1 SUB PUSH1 0x1F AND DUP3 ADD SWAP2 JUMPDEST POP POP POP POP POP SWAP1 DUP1 PUSH1 0x1 ADD SLOAD SWAP1 DUP1 PUSH1 0x2 ADD SLOAD SWAP1 DUP1 PUSH1 0x3 ADD SLOAD SWAP1 POP DUP5 JUMP JUMPDEST PUSH1 0x0 DUP1 DUP1 SLOAD SWAP1 POP SWAP1 POP SWAP1 JUMP JUMPDEST PUSH1 0x0 PUSH1 0x2 DUP1 SLOAD SWAP1 POP SWAP1 POP SWAP1 JUMP JUMPDEST PUSH1 0x2 DUP2 DUP2 SLOAD DUP2 LT PUSH2 0x258 JUMPI PUSH1 0x0 DUP1 REVERT JUMPDEST SWAP1 PUSH1 0x0 MSTORE PUSH1 0x20 PUSH1 0x0 KECCAK256 SWAP1 PUSH1 0x4 MUL ADD PUSH1 0x0 SWAP2 POP SWAP1 POP DUP1 PUSH1 0x0 ADD DUP1 SLOAD PUSH2 0x27B SWAP1 PUSH2 0x522 JUMP JUMPDEST DUP1 PUSH1 0x1F ADD PUSH1 0x20 DUP1 SWAP2 DIV MUL PUSH1 0x20 ADD PUSH1 0x40 MLOAD SWAP1 DUP2 ADD PUSH1 0x40 MSTORE DUP1 SWAP3 SWAP2 SWAP1 DUP2 DUP2 MSTORE PUSH1 0x20 ADD DUP3 DUP1 SLOAD PUSH2 0x2A7 SWAP1 PUSH2 0x522 JUMP JUMPDEST DUP1 ISZERO PUSH2 0x2F4 JUMPI DUP1 PUSH1 0x1F LT PUSH2 0x2C9 JUMPI PUSH2 0x100 DUP1 DUP4 SLOAD DIV MUL DUP4 MSTORE SWAP2 PUSH1 0x20 ADD SWAP2 PUSH2 0x2F4 JUMP JUMPDEST DUP3 ADD SWAP2 SWAP1 PUSH1 0x0 MSTORE PUSH1 0x20 PUSH1 0x0 KECCAK256 SWAP1 JUMPDEST DUP2 SLOAD DUP2 MSTORE SWAP1 PUSH1 0x1 ADD SWAP1 PUSH1 0x20 ADD DUP1 DUP4 GT PUSH2 0x2D7 JUMPI DUP3 SWAP1 SUB PUSH1 0x1F AND DUP3 ADD SWAP2 JUMPDEST POP POP POP POP POP SWAP1 DUP1 PUSH1 0x1 ADD SLOAD SWAP1 DUP1 PUSH1 0x2 ADD SLOAD SWAP1 DUP1 PUSH1 0x3 ADD SLOAD SWAP1 POP DUP5 JUMP JUMPDEST PUSH1 0x1 DUP2 DUP2 SLOAD DUP2 LT PUSH2 0x320 JUMPI PUSH1 0x0 DUP1 REVERT JUMPDEST SWAP1 PUSH1 0x0 MSTORE PUSH1 0x20 PUSH1 0x0 KECCAK256 SWAP1 PUSH1 0x4 MUL ADD PUSH1 0x0 SWAP2 POP SWAP1 POP DUP1 PUSH1 0x0 ADD DUP1 SLOAD PUSH2 0x343 SWAP1 PUSH2 0x522 JUMP JUMPDEST DUP1 PUSH1 0x1F ADD PUSH1 0x20 DUP1 SWAP2 DIV MUL PUSH1 0x20 ADD PUSH1 0x40 MLOAD SWAP1 DUP2 ADD PUSH1 0x40 MSTORE DUP1 SWAP3 SWAP2 SWAP1 DUP2 DUP2 MSTORE PUSH1 0x20 ADD DUP3 DUP1 SLOAD PUSH2 0x36F SWAP1 PUSH2 0x522 JUMP JUMPDEST DUP1 ISZERO PUSH2 0x3BC JUMPI DUP1 PUSH1 0x1F LT PUSH2 0x391 JUMPI PUSH2 0x100 DUP1 DUP4 SLOAD DIV MUL DUP4 MSTORE SWAP2 PUSH1 0x20 ADD SWAP2 PUSH2 0x3BC JUMP JUMPDEST DUP3 ADD SWAP2 SWAP1 PUSH1 0x0 MSTORE PUSH1 0x20 PUSH1 0x0 KECCAK256 SWAP1 JUMPDEST DUP2 SLOAD DUP2 MSTORE SWAP1 PUSH1 0x1 ADD SWAP1 PUSH1 0x20 ADD DUP1 DUP4 GT PUSH2 0x39F JUMPI DUP3 SWAP1 SUB PUSH1 0x1F AND DUP3 ADD SWAP2 JUMPDEST POP POP POP POP POP SWAP1 DUP1 PUSH1 0x1 ADD SLOAD SWAP1 DUP1 PUSH1 0x2 ADD SLOAD SWAP1 DUP1 PUSH1 0x3 ADD SLOAD SWAP1 POP DUP5 JUMP JUMPDEST PUSH1 0x0 DUP2 CALLDATALOAD SWAP1 POP PUSH2 0x3E7 DUP2 PUSH2 0x599 JUMP JUMPDEST SWAP3 SWAP2 POP POP JUMP JUMPDEST PUSH1 0x0 PUSH1 0x20 DUP3 DUP5 SUB SLT ISZERO PUSH2 0x403 JUMPI PUSH2 0x402 PUSH2 0x583 JUMP JUMPDEST JUMPDEST PUSH1 0x0 PUSH2 0x411 DUP5 DUP3 DUP6 ADD PUSH2 0x3D8 JUMP JUMPDEST SWAP2 POP POP SWAP3 SWAP2 POP POP JUMP JUMPDEST PUSH1 0x0 PUSH2 0x425 DUP3 PUSH2 0x4C9 JUMP JUMPDEST PUSH2 0x42F DUP2 DUP6 PUSH2 0x4D4 JUMP JUMPDEST SWAP4 POP PUSH2 0x43F DUP2 DUP6 PUSH1 0x20 DUP7 ADD PUSH2 0x4EF JUMP JUMPDEST PUSH2 0x448 DUP2 PUSH2 0x588 JUMP JUMPDEST DUP5 ADD SWAP2 POP POP SWAP3 SWAP2 POP POP JUMP JUMPDEST PUSH2 0x45C DUP2 PUSH2 0x4E5 JUMP JUMPDEST DUP3 MSTORE POP POP JUMP JUMPDEST PUSH1 0x0 PUSH1 0x80 DUP3 ADD SWAP1 POP DUP2 DUP2 SUB PUSH1 0x0 DUP4 ADD MSTORE PUSH2 0x47C DUP2 DUP8 PUSH2 0x41A JUMP JUMPDEST SWAP1 POP PUSH2 0x48B PUSH1 0x20 DUP4 ADD DUP7 PUSH2 0x453 JUMP JUMPDEST PUSH2 0x498 PUSH1 0x40 DUP4 ADD DUP6 PUSH2 0x453 JUMP JUMPDEST PUSH2 0x4A5 PUSH1 0x60 DUP4 ADD DUP5 PUSH2 0x453 JUMP JUMPDEST SWAP6 SWAP5 POP POP POP POP POP JUMP JUMPDEST PUSH1 0x0 PUSH1 0x20 DUP3 ADD SWAP1 POP PUSH2 0x4C3 PUSH1 0x0 DUP4 ADD DUP5 PUSH2 0x453 JUMP JUMPDEST SWAP3 SWAP2 POP POP JUMP JUMPDEST PUSH1 0x0 DUP2 MLOAD SWAP1 POP SWAP2 SWAP1 POP JUMP JUMPDEST PUSH1 0x0 DUP3 DUP3 MSTORE PUSH1 0x20 DUP3 ADD SWAP1 POP SWAP3 SWAP2 POP POP JUMP JUMPDEST PUSH1 0x0 DUP2 SWAP1 POP SWAP2 SWAP1 POP JUMP JUMPDEST PUSH1 0x0 JUMPDEST DUP4 DUP2 LT ISZERO PUSH2 0x50D JUMPI DUP1 DUP3 ADD MLOAD DUP2 DUP5 ADD MSTORE PUSH1 0x20 DUP2 ADD SWAP1 POP PUSH2 0x4F2 JUMP JUMPDEST DUP4 DUP2 GT ISZERO PUSH2 0x51C JUMPI PUSH1 0x0 DUP5 DUP5 ADD MSTORE JUMPDEST POP POP POP POP JUMP JUMPDEST PUSH1 0x0 PUSH1 0x2 DUP3 DIV SWAP1 POP PUSH1 0x1 DUP3 AND DUP1 PUSH2 0x53A JUMPI PUSH1 0x7F DUP3 AND SWAP2 POP JUMPDEST PUSH1 0x20 DUP3 LT DUP2 EQ ISZERO PUSH2 0x54E JUMPI PUSH2 0x54D PUSH2 0x554 JUMP JUMPDEST JUMPDEST POP SWAP2 SWAP1 POP JUMP JUMPDEST PUSH32 0x4E487B7100000000000000000000000000000000000000000000000000000000 PUSH1 0x0 MSTORE PUSH1 0x22 PUSH1 0x4 MSTORE PUSH1 0x24 PUSH1 0x0 REVERT JUMPDEST PUSH1 0x0 DUP1 REVERT JUMPDEST PUSH1 0x0 PUSH1 0x1F NOT PUSH1 0x1F DUP4 ADD AND SWAP1 POP SWAP2 SWAP1 POP JUMP JUMPDEST PUSH2 0x5A2 DUP2 PUSH2 0x4E5 JUMP JUMPDEST DUP2 EQ PUSH2 0x5AD JUMPI PUSH1 0x0 DUP1 REVERT JUMPDEST POP JUMP INVALID LOG2 PUSH5 0x6970667358 0x22 SLT KECCAK256 DUP13 0xEB SWAP16 RETURNDATACOPY 0xD 0xFC 0xDA 0x2A DUP9 DUP8 0x28 0xE0 0x5F 0xC3 PUSH32 0x40D65D8BEFA7F329DE4211654AE0F4716064736F6C6343000807003300000000 "},"gasEstimates":{"creation":{"codeDepositCost":"302000","executionCost":"infinite","totalCost":"infinite"},"external":{"legendaryPersons(uint256)":"infinite","legendaryPersonsLength()":"2489","normalPersons(uint256)":"infinite","normalPersonsLength()":"2467","rarePersons(uint256)":"infinite","rarePersonsLength()":"2423"}},"methodIdentifiers":{"legendaryPersons(uint256)":"9cfa7daa","legendaryPersonsLength()":"71be7002","normalPersons(uint256)":"4132607b","normalPersonsLength()":"65c889db","rarePersons(uint256)":"cff2c359","rarePersonsLength()":"0a83de16"}},"storageLayout":{"storage":[{"astId":2968,"contract":"contracts/Characters.sol:Characters","label":"normalPersons","offset":0,"slot":"0","type":"t_array(t_struct(Person)2964_storage)dyn_storage"},{"astId":2972,"contract":"contracts/Characters.sol:Characters","label":"rarePersons","offset":0,"slot":"1","type":"t_array(t_struct(Person)2964_storage)dyn_storage"},{"astId":2976,"contract":"contracts/Characters.sol:Characters","label":"legendaryPersons","offset":0,"slot":"2","type":"t_array(t_struct(Person)2964_storage)dyn_storage"}],"types":{"t_array(t_struct(Person)2964_storage)dyn_storage":{"base":"t_struct(Person)2964_storage","encoding":"dynamic_array","label":"struct Characters.Person[]","numberOfBytes":"32"},"t_string_storage":{"encoding":"bytes","label":"string","numberOfBytes":"32"},"t_struct(Person)2964_storage":{"encoding":"inplace","label":"struct Characters.Person","members":[{"astId":2957,"contract":"contracts/Characters.sol:Characters","label":"tokenUri","offset":0,"slot":"0","type":"t_string_storage"},{"astId":2959,"contract":"contracts/Characters.sol:Characters","label":"attack","offset":0,"slot":"1","type":"t_uint256"},{"astId":2961,"contract":"contracts/Characters.sol:Characters","label":"defence","offset":0,"slot":"2","type":"t_uint256"},{"astId":2963,"contract":"contracts/Characters.sol:Characters","label":"tactics","offset":0,"slot":"3","type":"t_uint256"}],"numberOfBytes":"128"},"t_uint256":{"encoding":"inplace","label":"uint256","numberOfBytes":"32"}}},"userdoc":{"kind":"user","methods":{},"version":1}}}}